{
	"contracts/8_SimpleAMM.sol": {
		"SimpleAMM": {
			"abi": [
				{
					"inputs": [
						{
							"internalType": "bytes32",
							"name": "_tokenA",
							"type": "bytes32"
						},
						{
							"internalType": "bytes32",
							"name": "_tokenB",
							"type": "bytes32"
						},
						{
							"internalType": "uint256",
							"name": "_reserveA",
							"type": "uint256"
						},
						{
							"internalType": "uint256",
							"name": "_reserveB",
							"type": "uint256"
						}
					],
					"stateMutability": "nonpayable",
					"type": "constructor"
				},
				{
					"anonymous": false,
					"inputs": [
						{
							"indexed": true,
							"internalType": "address",
							"name": "user",
							"type": "address"
						},
						{
							"indexed": false,
							"internalType": "string",
							"name": "inputToken",
							"type": "string"
						},
						{
							"indexed": false,
							"internalType": "uint256",
							"name": "amountIn",
							"type": "uint256"
						},
						{
							"indexed": false,
							"internalType": "uint256",
							"name": "amountOut",
							"type": "uint256"
						}
					],
					"name": "Swap",
					"type": "event"
				},
				{
					"inputs": [],
					"name": "constantProduct",
					"outputs": [
						{
							"internalType": "uint256",
							"name": "",
							"type": "uint256"
						}
					],
					"stateMutability": "view",
					"type": "function"
				},
				{
					"inputs": [],
					"name": "getPrice",
					"outputs": [
						{
							"internalType": "uint256",
							"name": "",
							"type": "uint256"
						}
					],
					"stateMutability": "view",
					"type": "function"
				},
				{
					"inputs": [],
					"name": "getReserves",
					"outputs": [
						{
							"internalType": "uint256",
							"name": "",
							"type": "uint256"
						},
						{
							"internalType": "uint256",
							"name": "",
							"type": "uint256"
						}
					],
					"stateMutability": "view",
					"type": "function"
				},
				{
					"inputs": [],
					"name": "reserveA",
					"outputs": [
						{
							"internalType": "uint256",
							"name": "",
							"type": "uint256"
						}
					],
					"stateMutability": "view",
					"type": "function"
				},
				{
					"inputs": [],
					"name": "reserveB",
					"outputs": [
						{
							"internalType": "uint256",
							"name": "",
							"type": "uint256"
						}
					],
					"stateMutability": "view",
					"type": "function"
				},
				{
					"inputs": [
						{
							"internalType": "uint256",
							"name": "amountIn",
							"type": "uint256"
						},
						{
							"internalType": "bytes32",
							"name": "inputToken",
							"type": "bytes32"
						}
					],
					"name": "swap",
					"outputs": [
						{
							"internalType": "uint256",
							"name": "amountOut",
							"type": "uint256"
						}
					],
					"stateMutability": "nonpayable",
					"type": "function"
				},
				{
					"inputs": [],
					"name": "tokenA",
					"outputs": [
						{
							"internalType": "bytes32",
							"name": "",
							"type": "bytes32"
						}
					],
					"stateMutability": "view",
					"type": "function"
				},
				{
					"inputs": [],
					"name": "tokenB",
					"outputs": [
						{
							"internalType": "bytes32",
							"name": "",
							"type": "bytes32"
						}
					],
					"stateMutability": "view",
					"type": "function"
				}
			],
			"devdoc": {
				"kind": "dev",
				"methods": {},
				"version": 1
			},
			"evm": {
				"assembly": "    /* \"contracts/8_SimpleAMM.sol\":61:1706  contract SimpleAMM {... */\n  mstore(0x40, 0x80)\n    /* \"contracts/8_SimpleAMM.sol\":341:672  constructor(bytes32  _tokenA, bytes32 _tokenB, uint256  _reserveA, uint256  _reserveB) {... */\n  callvalue\n  dup1\n  iszero\n  tag_1\n  jumpi\n  0x00\n  dup1\n  revert\ntag_1:\n  pop\n  mload(0x40)\n  sub(codesize, bytecodeSize)\n  dup1\n  bytecodeSize\n  dup4\n  codecopy\n  dup2\n  dup2\n  add\n  0x40\n  mstore\n  dup2\n  add\n  swap1\n  tag_2\n  swap2\n  swap1\n  tag_3\n  jump\t// in\ntag_2:\n    /* \"contracts/8_SimpleAMM.sol\":459:460  0 */\n  0x00\n    /* \"contracts/8_SimpleAMM.sol\":447:456  _reserveA */\n  dup3\n    /* \"contracts/8_SimpleAMM.sol\":447:460  _reserveA > 0 */\n  gt\n    /* \"contracts/8_SimpleAMM.sol\":447:477  _reserveA > 0 && _reserveB > 0 */\n  dup1\n  iszero\n  tag_6\n  jumpi\n  pop\n    /* \"contracts/8_SimpleAMM.sol\":476:477  0 */\n  0x00\n    /* \"contracts/8_SimpleAMM.sol\":464:473  _reserveB */\n  dup2\n    /* \"contracts/8_SimpleAMM.sol\":464:477  _reserveB > 0 */\n  gt\n    /* \"contracts/8_SimpleAMM.sol\":447:477  _reserveA > 0 && _reserveB > 0 */\ntag_6:\n    /* \"contracts/8_SimpleAMM.sol\":439:498  require(_reserveA > 0 && _reserveB > 0, \"invalid reserves\") */\n  tag_7\n  jumpi\n  mload(0x40)\n  0x08c379a000000000000000000000000000000000000000000000000000000000\n  dup2\n  mstore\n  0x04\n  add\n  tag_8\n  swap1\n  tag_9\n  jump\t// in\ntag_8:\n  mload(0x40)\n  dup1\n  swap2\n  sub\n  swap1\n  revert\ntag_7:\n    /* \"contracts/8_SimpleAMM.sol\":518:525  _tokenA */\n  dup4\n    /* \"contracts/8_SimpleAMM.sol\":509:515  tokenA */\n  0x03\n    /* \"contracts/8_SimpleAMM.sol\":509:525  tokenA = _tokenA */\n  dup2\n  swap1\n  sstore\n  pop\n    /* \"contracts/8_SimpleAMM.sol\":545:552  _tokenB */\n  dup3\n    /* \"contracts/8_SimpleAMM.sol\":536:542  tokenB */\n  0x04\n    /* \"contracts/8_SimpleAMM.sol\":536:552  tokenB = _tokenB */\n  dup2\n  swap1\n  sstore\n  pop\n    /* \"contracts/8_SimpleAMM.sol\":574:583  _reserveA */\n  dup2\n    /* \"contracts/8_SimpleAMM.sol\":563:571  reserveA */\n  0x00\n    /* \"contracts/8_SimpleAMM.sol\":563:583  reserveA = _reserveA */\n  dup2\n  swap1\n  sstore\n  pop\n    /* \"contracts/8_SimpleAMM.sol\":605:614  _reserveB */\n  dup1\n    /* \"contracts/8_SimpleAMM.sol\":594:602  reserveB */\n  0x01\n    /* \"contracts/8_SimpleAMM.sol\":594:614  reserveB = _reserveB */\n  dup2\n  swap1\n  sstore\n  pop\n    /* \"contracts/8_SimpleAMM.sol\":655:664  _reserveB */\n  dup1\n    /* \"contracts/8_SimpleAMM.sol\":643:652  _reserveA */\n  dup3\n    /* \"contracts/8_SimpleAMM.sol\":643:664  _reserveA * _reserveB */\n  tag_10\n  swap2\n  swap1\n  tag_11\n  jump\t// in\ntag_10:\n    /* \"contracts/8_SimpleAMM.sol\":625:640  constantProduct */\n  0x02\n    /* \"contracts/8_SimpleAMM.sol\":625:664  constantProduct = _reserveA * _reserveB */\n  dup2\n  swap1\n  sstore\n  pop\n    /* \"contracts/8_SimpleAMM.sol\":341:672  constructor(bytes32  _tokenA, bytes32 _tokenB, uint256  _reserveA, uint256  _reserveB) {... */\n  pop\n  pop\n  pop\n  pop\n    /* \"contracts/8_SimpleAMM.sol\":61:1706  contract SimpleAMM {... */\n  jump(tag_12)\n    /* \"#utility.yul\":88:205   */\ntag_14:\n    /* \"#utility.yul\":197:198   */\n  0x00\n    /* \"#utility.yul\":194:195   */\n  dup1\n    /* \"#utility.yul\":187:199   */\n  revert\n    /* \"#utility.yul\":334:411   */\ntag_16:\n    /* \"#utility.yul\":371:378   */\n  0x00\n    /* \"#utility.yul\":400:405   */\n  dup2\n    /* \"#utility.yul\":389:405   */\n  swap1\n  pop\n    /* \"#utility.yul\":334:411   */\n  swap2\n  swap1\n  pop\n  jump\t// out\n    /* \"#utility.yul\":417:539   */\ntag_17:\n    /* \"#utility.yul\":490:514   */\n  tag_32\n    /* \"#utility.yul\":508:513   */\n  dup2\n    /* \"#utility.yul\":490:514   */\n  tag_16\n  jump\t// in\ntag_32:\n    /* \"#utility.yul\":483:488   */\n  dup2\n    /* \"#utility.yul\":480:515   */\n  eq\n    /* \"#utility.yul\":470:533   */\n  tag_33\n  jumpi\n    /* \"#utility.yul\":529:530   */\n  0x00\n    /* \"#utility.yul\":526:527   */\n  dup1\n    /* \"#utility.yul\":519:531   */\n  revert\n    /* \"#utility.yul\":470:533   */\ntag_33:\n    /* \"#utility.yul\":417:539   */\n  pop\n  jump\t// out\n    /* \"#utility.yul\":545:688   */\ntag_18:\n    /* \"#utility.yul\":602:607   */\n  0x00\n    /* \"#utility.yul\":633:639   */\n  dup2\n    /* \"#utility.yul\":627:640   */\n  mload\n    /* \"#utility.yul\":618:640   */\n  swap1\n  pop\n    /* \"#utility.yul\":649:682   */\n  tag_35\n    /* \"#utility.yul\":676:681   */\n  dup2\n    /* \"#utility.yul\":649:682   */\n  tag_17\n  jump\t// in\ntag_35:\n    /* \"#utility.yul\":545:688   */\n  swap3\n  swap2\n  pop\n  pop\n  jump\t// out\n    /* \"#utility.yul\":694:771   */\ntag_19:\n    /* \"#utility.yul\":731:738   */\n  0x00\n    /* \"#utility.yul\":760:765   */\n  dup2\n    /* \"#utility.yul\":749:765   */\n  swap1\n  pop\n    /* \"#utility.yul\":694:771   */\n  swap2\n  swap1\n  pop\n  jump\t// out\n    /* \"#utility.yul\":777:899   */\ntag_20:\n    /* \"#utility.yul\":850:874   */\n  tag_38\n    /* \"#utility.yul\":868:873   */\n  dup2\n    /* \"#utility.yul\":850:874   */\n  tag_19\n  jump\t// in\ntag_38:\n    /* \"#utility.yul\":843:848   */\n  dup2\n    /* \"#utility.yul\":840:875   */\n  eq\n    /* \"#utility.yul\":830:893   */\n  tag_39\n  jumpi\n    /* \"#utility.yul\":889:890   */\n  0x00\n    /* \"#utility.yul\":886:887   */\n  dup1\n    /* \"#utility.yul\":879:891   */\n  revert\n    /* \"#utility.yul\":830:893   */\ntag_39:\n    /* \"#utility.yul\":777:899   */\n  pop\n  jump\t// out\n    /* \"#utility.yul\":905:1048   */\ntag_21:\n    /* \"#utility.yul\":962:967   */\n  0x00\n    /* \"#utility.yul\":993:999   */\n  dup2\n    /* \"#utility.yul\":987:1000   */\n  mload\n    /* \"#utility.yul\":978:1000   */\n  swap1\n  pop\n    /* \"#utility.yul\":1009:1042   */\n  tag_41\n    /* \"#utility.yul\":1036:1041   */\n  dup2\n    /* \"#utility.yul\":1009:1042   */\n  tag_20\n  jump\t// in\ntag_41:\n    /* \"#utility.yul\":905:1048   */\n  swap3\n  swap2\n  pop\n  pop\n  jump\t// out\n    /* \"#utility.yul\":1054:1874   */\ntag_3:\n    /* \"#utility.yul\":1151:1157   */\n  0x00\n    /* \"#utility.yul\":1159:1165   */\n  dup1\n    /* \"#utility.yul\":1167:1173   */\n  0x00\n    /* \"#utility.yul\":1175:1181   */\n  dup1\n    /* \"#utility.yul\":1224:1227   */\n  0x80\n    /* \"#utility.yul\":1212:1221   */\n  dup6\n    /* \"#utility.yul\":1203:1210   */\n  dup8\n    /* \"#utility.yul\":1199:1222   */\n  sub\n    /* \"#utility.yul\":1195:1228   */\n  slt\n    /* \"#utility.yul\":1192:1312   */\n  iszero\n  tag_43\n  jumpi\n    /* \"#utility.yul\":1231:1310   */\n  tag_44\n  tag_14\n  jump\t// in\ntag_44:\n    /* \"#utility.yul\":1192:1312   */\ntag_43:\n    /* \"#utility.yul\":1351:1352   */\n  0x00\n    /* \"#utility.yul\":1376:1440   */\n  tag_45\n    /* \"#utility.yul\":1432:1439   */\n  dup8\n    /* \"#utility.yul\":1423:1429   */\n  dup3\n    /* \"#utility.yul\":1412:1421   */\n  dup9\n    /* \"#utility.yul\":1408:1430   */\n  add\n    /* \"#utility.yul\":1376:1440   */\n  tag_18\n  jump\t// in\ntag_45:\n    /* \"#utility.yul\":1366:1440   */\n  swap5\n  pop\n    /* \"#utility.yul\":1322:1450   */\n  pop\n    /* \"#utility.yul\":1489:1491   */\n  0x20\n    /* \"#utility.yul\":1515:1579   */\n  tag_46\n    /* \"#utility.yul\":1571:1578   */\n  dup8\n    /* \"#utility.yul\":1562:1568   */\n  dup3\n    /* \"#utility.yul\":1551:1560   */\n  dup9\n    /* \"#utility.yul\":1547:1569   */\n  add\n    /* \"#utility.yul\":1515:1579   */\n  tag_18\n  jump\t// in\ntag_46:\n    /* \"#utility.yul\":1505:1579   */\n  swap4\n  pop\n    /* \"#utility.yul\":1460:1589   */\n  pop\n    /* \"#utility.yul\":1628:1630   */\n  0x40\n    /* \"#utility.yul\":1654:1718   */\n  tag_47\n    /* \"#utility.yul\":1710:1717   */\n  dup8\n    /* \"#utility.yul\":1701:1707   */\n  dup3\n    /* \"#utility.yul\":1690:1699   */\n  dup9\n    /* \"#utility.yul\":1686:1708   */\n  add\n    /* \"#utility.yul\":1654:1718   */\n  tag_21\n  jump\t// in\ntag_47:\n    /* \"#utility.yul\":1644:1718   */\n  swap3\n  pop\n    /* \"#utility.yul\":1599:1728   */\n  pop\n    /* \"#utility.yul\":1767:1769   */\n  0x60\n    /* \"#utility.yul\":1793:1857   */\n  tag_48\n    /* \"#utility.yul\":1849:1856   */\n  dup8\n    /* \"#utility.yul\":1840:1846   */\n  dup3\n    /* \"#utility.yul\":1829:1838   */\n  dup9\n    /* \"#utility.yul\":1825:1847   */\n  add\n    /* \"#utility.yul\":1793:1857   */\n  tag_21\n  jump\t// in\ntag_48:\n    /* \"#utility.yul\":1783:1857   */\n  swap2\n  pop\n    /* \"#utility.yul\":1738:1867   */\n  pop\n    /* \"#utility.yul\":1054:1874   */\n  swap3\n  swap6\n  swap2\n  swap5\n  pop\n  swap3\n  pop\n  jump\t// out\n    /* \"#utility.yul\":1880:2049   */\ntag_22:\n    /* \"#utility.yul\":1964:1975   */\n  0x00\n    /* \"#utility.yul\":1998:2004   */\n  dup3\n    /* \"#utility.yul\":1993:1996   */\n  dup3\n    /* \"#utility.yul\":1986:2005   */\n  mstore\n    /* \"#utility.yul\":2038:2042   */\n  0x20\n    /* \"#utility.yul\":2033:2036   */\n  dup3\n    /* \"#utility.yul\":2029:2043   */\n  add\n    /* \"#utility.yul\":2014:2043   */\n  swap1\n  pop\n    /* \"#utility.yul\":1880:2049   */\n  swap3\n  swap2\n  pop\n  pop\n  jump\t// out\n    /* \"#utility.yul\":2055:2221   */\ntag_23:\n    /* \"#utility.yul\":2195:2213   */\n  0x696e76616c696420726573657276657300000000000000000000000000000000\n    /* \"#utility.yul\":2191:2192   */\n  0x00\n    /* \"#utility.yul\":2183:2189   */\n  dup3\n    /* \"#utility.yul\":2179:2193   */\n  add\n    /* \"#utility.yul\":2172:2214   */\n  mstore\n    /* \"#utility.yul\":2055:2221   */\n  pop\n  jump\t// out\n    /* \"#utility.yul\":2227:2593   */\ntag_24:\n    /* \"#utility.yul\":2369:2372   */\n  0x00\n    /* \"#utility.yul\":2390:2457   */\n  tag_52\n    /* \"#utility.yul\":2454:2456   */\n  0x10\n    /* \"#utility.yul\":2449:2452   */\n  dup4\n    /* \"#utility.yul\":2390:2457   */\n  tag_22\n  jump\t// in\ntag_52:\n    /* \"#utility.yul\":2383:2457   */\n  swap2\n  pop\n    /* \"#utility.yul\":2466:2559   */\n  tag_53\n    /* \"#utility.yul\":2555:2558   */\n  dup3\n    /* \"#utility.yul\":2466:2559   */\n  tag_23\n  jump\t// in\ntag_53:\n    /* \"#utility.yul\":2584:2586   */\n  0x20\n    /* \"#utility.yul\":2579:2582   */\n  dup3\n    /* \"#utility.yul\":2575:2587   */\n  add\n    /* \"#utility.yul\":2568:2587   */\n  swap1\n  pop\n    /* \"#utility.yul\":2227:2593   */\n  swap2\n  swap1\n  pop\n  jump\t// out\n    /* \"#utility.yul\":2599:3018   */\ntag_9:\n    /* \"#utility.yul\":2765:2769   */\n  0x00\n    /* \"#utility.yul\":2803:2805   */\n  0x20\n    /* \"#utility.yul\":2792:2801   */\n  dup3\n    /* \"#utility.yul\":2788:2806   */\n  add\n    /* \"#utility.yul\":2780:2806   */\n  swap1\n  pop\n    /* \"#utility.yul\":2852:2861   */\n  dup2\n    /* \"#utility.yul\":2846:2850   */\n  dup2\n    /* \"#utility.yul\":2842:2862   */\n  sub\n    /* \"#utility.yul\":2838:2839   */\n  0x00\n    /* \"#utility.yul\":2827:2836   */\n  dup4\n    /* \"#utility.yul\":2823:2840   */\n  add\n    /* \"#utility.yul\":2816:2863   */\n  mstore\n    /* \"#utility.yul\":2880:3011   */\n  tag_55\n    /* \"#utility.yul\":3006:3010   */\n  dup2\n    /* \"#utility.yul\":2880:3011   */\n  tag_24\n  jump\t// in\ntag_55:\n    /* \"#utility.yul\":2872:3011   */\n  swap1\n  pop\n    /* \"#utility.yul\":2599:3018   */\n  swap2\n  swap1\n  pop\n  jump\t// out\n    /* \"#utility.yul\":3024:3204   */\ntag_25:\n    /* \"#utility.yul\":3072:3149   */\n  0x4e487b7100000000000000000000000000000000000000000000000000000000\n    /* \"#utility.yul\":3069:3070   */\n  0x00\n    /* \"#utility.yul\":3062:3150   */\n  mstore\n    /* \"#utility.yul\":3169:3173   */\n  0x11\n    /* \"#utility.yul\":3166:3167   */\n  0x04\n    /* \"#utility.yul\":3159:3174   */\n  mstore\n    /* \"#utility.yul\":3193:3197   */\n  0x24\n    /* \"#utility.yul\":3190:3191   */\n  0x00\n    /* \"#utility.yul\":3183:3198   */\n  revert\n    /* \"#utility.yul\":3210:3620   */\ntag_11:\n    /* \"#utility.yul\":3250:3257   */\n  0x00\n    /* \"#utility.yul\":3273:3293   */\n  tag_58\n    /* \"#utility.yul\":3291:3292   */\n  dup3\n    /* \"#utility.yul\":3273:3293   */\n  tag_19\n  jump\t// in\ntag_58:\n    /* \"#utility.yul\":3268:3293   */\n  swap2\n  pop\n    /* \"#utility.yul\":3307:3327   */\n  tag_59\n    /* \"#utility.yul\":3325:3326   */\n  dup4\n    /* \"#utility.yul\":3307:3327   */\n  tag_19\n  jump\t// in\ntag_59:\n    /* \"#utility.yul\":3302:3327   */\n  swap3\n  pop\n    /* \"#utility.yul\":3362:3363   */\n  dup3\n    /* \"#utility.yul\":3359:3360   */\n  dup3\n    /* \"#utility.yul\":3355:3364   */\n  mul\n    /* \"#utility.yul\":3384:3414   */\n  tag_60\n    /* \"#utility.yul\":3402:3413   */\n  dup2\n    /* \"#utility.yul\":3384:3414   */\n  tag_19\n  jump\t// in\ntag_60:\n    /* \"#utility.yul\":3373:3414   */\n  swap2\n  pop\n    /* \"#utility.yul\":3563:3564   */\n  dup3\n    /* \"#utility.yul\":3554:3561   */\n  dup3\n    /* \"#utility.yul\":3550:3565   */\n  div\n    /* \"#utility.yul\":3547:3548   */\n  dup5\n    /* \"#utility.yul\":3544:3566   */\n  eq\n    /* \"#utility.yul\":3524:3525   */\n  dup4\n    /* \"#utility.yul\":3517:3526   */\n  iszero\n    /* \"#utility.yul\":3497:3580   */\n  or\n    /* \"#utility.yul\":3474:3613   */\n  tag_61\n  jumpi\n    /* \"#utility.yul\":3593:3611   */\n  tag_62\n  tag_25\n  jump\t// in\ntag_62:\n    /* \"#utility.yul\":3474:3613   */\ntag_61:\n    /* \"#utility.yul\":3258:3620   */\n  pop\n    /* \"#utility.yul\":3210:3620   */\n  swap3\n  swap2\n  pop\n  pop\n  jump\t// out\n    /* \"contracts/8_SimpleAMM.sol\":61:1706  contract SimpleAMM {... */\ntag_12:\n  dataSize(sub_0)\n  dup1\n  dataOffset(sub_0)\n  0x00\n  codecopy\n  0x00\n  return\nstop\n\nsub_0: assembly {\n        /* \"contracts/8_SimpleAMM.sol\":61:1706  contract SimpleAMM {... */\n      mstore(0x40, 0x80)\n      callvalue\n      dup1\n      iszero\n      tag_1\n      jumpi\n      0x00\n      dup1\n      revert\n    tag_1:\n      pop\n      jumpi(tag_2, lt(calldatasize, 0x04))\n      shr(0xe0, calldataload(0x00))\n      dup1\n      0x5f64b55b\n      gt\n      tag_11\n      jumpi\n      dup1\n      0x5f64b55b\n      eq\n      tag_7\n      jumpi\n      dup1\n      0x60641e59\n      eq\n      tag_8\n      jumpi\n      dup1\n      0x98d5fdca\n      eq\n      tag_9\n      jumpi\n      dup1\n      0xdc5fa6c5\n      eq\n      tag_10\n      jumpi\n      jump(tag_2)\n    tag_11:\n      dup1\n      0x0902f1ac\n      eq\n      tag_3\n      jumpi\n      dup1\n      0x0fc63d10\n      eq\n      tag_4\n      jumpi\n      dup1\n      0x19e36f3b\n      eq\n      tag_5\n      jumpi\n      dup1\n      0x43dbf2a9\n      eq\n      tag_6\n      jumpi\n    tag_2:\n      0x00\n      dup1\n      revert\n        /* \"contracts/8_SimpleAMM.sol\":1595:1703  function getReserves() public view returns (uint256, uint256) {... */\n    tag_3:\n      tag_12\n      tag_13\n      jump\t// in\n    tag_12:\n      mload(0x40)\n      tag_14\n      swap3\n      swap2\n      swap1\n      tag_15\n      jump\t// in\n    tag_14:\n      mload(0x40)\n      dup1\n      swap2\n      sub\n      swap1\n      return\n        /* \"contracts/8_SimpleAMM.sol\":184:206  bytes32  public tokenA */\n    tag_4:\n      tag_16\n      tag_17\n      jump\t// in\n    tag_16:\n      mload(0x40)\n      tag_18\n      swap2\n      swap1\n      tag_19\n      jump\t// in\n    tag_18:\n      mload(0x40)\n      dup1\n      swap2\n      sub\n      swap1\n      return\n        /* \"contracts/8_SimpleAMM.sol\":117:140  uint256 public reserveB */\n    tag_5:\n      tag_20\n      tag_21\n      jump\t// in\n    tag_20:\n      mload(0x40)\n      tag_22\n      swap2\n      swap1\n      tag_23\n      jump\t// in\n    tag_22:\n      mload(0x40)\n      dup1\n      swap2\n      sub\n      swap1\n      return\n        /* \"contracts/8_SimpleAMM.sol\":680:1483  function swap(uint256 amountIn, bytes32  inputToken)  public returns (uint256 amountOut) {... */\n    tag_6:\n      tag_24\n      0x04\n      dup1\n      calldatasize\n      sub\n      dup2\n      add\n      swap1\n      tag_25\n      swap2\n      swap1\n      tag_26\n      jump\t// in\n    tag_25:\n      tag_27\n      jump\t// in\n    tag_24:\n      mload(0x40)\n      tag_28\n      swap2\n      swap1\n      tag_23\n      jump\t// in\n    tag_28:\n      mload(0x40)\n      dup1\n      swap2\n      sub\n      swap1\n      return\n        /* \"contracts/8_SimpleAMM.sol\":213:235  bytes32  public tokenB */\n    tag_7:\n      tag_29\n      tag_30\n      jump\t// in\n    tag_29:\n      mload(0x40)\n      tag_31\n      swap2\n      swap1\n      tag_19\n      jump\t// in\n    tag_31:\n      mload(0x40)\n      dup1\n      swap2\n      sub\n      swap1\n      return\n        /* \"contracts/8_SimpleAMM.sol\":147:177  uint256 public constantProduct */\n    tag_8:\n      tag_32\n      tag_33\n      jump\t// in\n    tag_32:\n      mload(0x40)\n      tag_34\n      swap2\n      swap1\n      tag_23\n      jump\t// in\n    tag_34:\n      mload(0x40)\n      dup1\n      swap2\n      sub\n      swap1\n      return\n        /* \"contracts/8_SimpleAMM.sol\":1492:1587  function getPrice() public view returns (uint256) {... */\n    tag_9:\n      tag_35\n      tag_36\n      jump\t// in\n    tag_35:\n      mload(0x40)\n      tag_37\n      swap2\n      swap1\n      tag_23\n      jump\t// in\n    tag_37:\n      mload(0x40)\n      dup1\n      swap2\n      sub\n      swap1\n      return\n        /* \"contracts/8_SimpleAMM.sol\":87:110  uint256 public reserveA */\n    tag_10:\n      tag_38\n      tag_39\n      jump\t// in\n    tag_38:\n      mload(0x40)\n      tag_40\n      swap2\n      swap1\n      tag_23\n      jump\t// in\n    tag_40:\n      mload(0x40)\n      dup1\n      swap2\n      sub\n      swap1\n      return\n        /* \"contracts/8_SimpleAMM.sol\":1595:1703  function getReserves() public view returns (uint256, uint256) {... */\n    tag_13:\n        /* \"contracts/8_SimpleAMM.sol\":1639:1646  uint256 */\n      0x00\n        /* \"contracts/8_SimpleAMM.sol\":1648:1655  uint256 */\n      dup1\n        /* \"contracts/8_SimpleAMM.sol\":1676:1684  reserveA */\n      sload(0x00)\n        /* \"contracts/8_SimpleAMM.sol\":1686:1694  reserveB */\n      sload(0x01)\n        /* \"contracts/8_SimpleAMM.sol\":1668:1695  return (reserveA, reserveB) */\n      swap2\n      pop\n      swap2\n      pop\n        /* \"contracts/8_SimpleAMM.sol\":1595:1703  function getReserves() public view returns (uint256, uint256) {... */\n      swap1\n      swap2\n      jump\t// out\n        /* \"contracts/8_SimpleAMM.sol\":184:206  bytes32  public tokenA */\n    tag_17:\n      sload(0x03)\n      dup2\n      jump\t// out\n        /* \"contracts/8_SimpleAMM.sol\":117:140  uint256 public reserveB */\n    tag_21:\n      sload(0x01)\n      dup2\n      jump\t// out\n        /* \"contracts/8_SimpleAMM.sol\":680:1483  function swap(uint256 amountIn, bytes32  inputToken)  public returns (uint256 amountOut) {... */\n    tag_27:\n        /* \"contracts/8_SimpleAMM.sol\":750:767  uint256 amountOut */\n      0x00\n        /* \"contracts/8_SimpleAMM.sol\":799:800  0 */\n      dup1\n        /* \"contracts/8_SimpleAMM.sol\":788:796  amountIn */\n      dup4\n        /* \"contracts/8_SimpleAMM.sol\":788:800  amountIn > 0 */\n      gt\n        /* \"contracts/8_SimpleAMM.sol\":780:834  require(amountIn > 0, \"Amount must be greater than 0\") */\n      tag_43\n      jumpi\n      mload(0x40)\n      0x08c379a000000000000000000000000000000000000000000000000000000000\n      dup2\n      mstore\n      0x04\n      add\n      tag_44\n      swap1\n      tag_45\n      jump\t// in\n    tag_44:\n      mload(0x40)\n      dup1\n      swap2\n      sub\n      swap1\n      revert\n    tag_43:\n        /* \"contracts/8_SimpleAMM.sol\":867:873  tokenA */\n      sload(0x03)\n        /* \"contracts/8_SimpleAMM.sol\":853:863  inputToken */\n      dup3\n        /* \"contracts/8_SimpleAMM.sol\":853:873  inputToken == tokenA */\n      eq\n        /* \"contracts/8_SimpleAMM.sol\":853:897  inputToken == tokenA || inputToken == tokenB */\n      dup1\n      tag_46\n      jumpi\n      pop\n        /* \"contracts/8_SimpleAMM.sol\":891:897  tokenB */\n      sload(0x04)\n        /* \"contracts/8_SimpleAMM.sol\":877:887  inputToken */\n      dup3\n        /* \"contracts/8_SimpleAMM.sol\":877:897  inputToken == tokenB */\n      eq\n        /* \"contracts/8_SimpleAMM.sol\":853:897  inputToken == tokenA || inputToken == tokenB */\n    tag_46:\n        /* \"contracts/8_SimpleAMM.sol\":845:915  require(inputToken == tokenA || inputToken == tokenB, \"Invalid token\") */\n      tag_47\n      jumpi\n      mload(0x40)\n      0x08c379a000000000000000000000000000000000000000000000000000000000\n      dup2\n      mstore\n      0x04\n      add\n      tag_48\n      swap1\n      tag_49\n      jump\t// in\n    tag_48:\n      mload(0x40)\n      dup1\n      swap2\n      sub\n      swap1\n      revert\n    tag_47:\n        /* \"contracts/8_SimpleAMM.sol\":944:950  tokenA */\n      sload(0x03)\n        /* \"contracts/8_SimpleAMM.sol\":930:940  inputToken */\n      dup3\n        /* \"contracts/8_SimpleAMM.sol\":930:950  inputToken == tokenA */\n      sub\n        /* \"contracts/8_SimpleAMM.sol\":926:1476  if (inputToken == tokenA) {... */\n      tag_50\n      jumpi\n        /* \"contracts/8_SimpleAMM.sol\":967:986  uint256 newReserveA */\n      0x00\n        /* \"contracts/8_SimpleAMM.sol\":1000:1008  amountIn */\n      dup4\n        /* \"contracts/8_SimpleAMM.sol\":989:997  reserveA */\n      sload(0x00)\n        /* \"contracts/8_SimpleAMM.sol\":989:1008  reserveA + amountIn */\n      tag_51\n      swap2\n      swap1\n      tag_52\n      jump\t// in\n    tag_51:\n        /* \"contracts/8_SimpleAMM.sol\":967:1008  uint256 newReserveA = reserveA + amountIn */\n      swap1\n      pop\n        /* \"contracts/8_SimpleAMM.sol\":1023:1042  uint256 newReserveB */\n      0x00\n        /* \"contracts/8_SimpleAMM.sol\":1063:1074  newReserveA */\n      dup2\n        /* \"contracts/8_SimpleAMM.sol\":1045:1060  constantProduct */\n      sload(0x02)\n        /* \"contracts/8_SimpleAMM.sol\":1045:1074  constantProduct / newReserveA */\n      tag_53\n      swap2\n      swap1\n      tag_54\n      jump\t// in\n    tag_53:\n        /* \"contracts/8_SimpleAMM.sol\":1023:1074  uint256 newReserveB = constantProduct / newReserveA */\n      swap1\n      pop\n        /* \"contracts/8_SimpleAMM.sol\":1112:1123  newReserveB */\n      dup1\n        /* \"contracts/8_SimpleAMM.sol\":1101:1109  reserveB */\n      sload(0x01)\n        /* \"contracts/8_SimpleAMM.sol\":1101:1123  reserveB - newReserveB */\n      tag_55\n      swap2\n      swap1\n      tag_56\n      jump\t// in\n    tag_55:\n        /* \"contracts/8_SimpleAMM.sol\":1089:1123  amountOut = reserveB - newReserveB */\n      swap3\n      pop\n        /* \"contracts/8_SimpleAMM.sol\":1151:1162  newReserveA */\n      dup2\n        /* \"contracts/8_SimpleAMM.sol\":1140:1148  reserveA */\n      0x00\n        /* \"contracts/8_SimpleAMM.sol\":1140:1162  reserveA = newReserveA */\n      dup2\n      swap1\n      sstore\n      pop\n        /* \"contracts/8_SimpleAMM.sol\":1188:1199  newReserveB */\n      dup1\n        /* \"contracts/8_SimpleAMM.sol\":1177:1185  reserveB */\n      0x01\n        /* \"contracts/8_SimpleAMM.sol\":1177:1199  reserveB = newReserveB */\n      dup2\n      swap1\n      sstore\n      pop\n        /* \"contracts/8_SimpleAMM.sol\":952:1211  {... */\n      pop\n      pop\n        /* \"contracts/8_SimpleAMM.sol\":926:1476  if (inputToken == tokenA) {... */\n      jump(tag_57)\n    tag_50:\n        /* \"contracts/8_SimpleAMM.sol\":1232:1251  uint256 newReserveB */\n      0x00\n        /* \"contracts/8_SimpleAMM.sol\":1265:1273  amountIn */\n      dup4\n        /* \"contracts/8_SimpleAMM.sol\":1254:1262  reserveB */\n      sload(0x01)\n        /* \"contracts/8_SimpleAMM.sol\":1254:1273  reserveB + amountIn */\n      tag_58\n      swap2\n      swap1\n      tag_52\n      jump\t// in\n    tag_58:\n        /* \"contracts/8_SimpleAMM.sol\":1232:1273  uint256 newReserveB = reserveB + amountIn */\n      swap1\n      pop\n        /* \"contracts/8_SimpleAMM.sol\":1288:1307  uint256 newReserveA */\n      0x00\n        /* \"contracts/8_SimpleAMM.sol\":1328:1339  newReserveB */\n      dup2\n        /* \"contracts/8_SimpleAMM.sol\":1310:1325  constantProduct */\n      sload(0x02)\n        /* \"contracts/8_SimpleAMM.sol\":1310:1339  constantProduct / newReserveB */\n      tag_59\n      swap2\n      swap1\n      tag_54\n      jump\t// in\n    tag_59:\n        /* \"contracts/8_SimpleAMM.sol\":1288:1339  uint256 newReserveA = constantProduct / newReserveB */\n      swap1\n      pop\n        /* \"contracts/8_SimpleAMM.sol\":1377:1388  newReserveA */\n      dup1\n        /* \"contracts/8_SimpleAMM.sol\":1366:1374  reserveA */\n      sload(0x00)\n        /* \"contracts/8_SimpleAMM.sol\":1366:1388  reserveA - newReserveA */\n      tag_60\n      swap2\n      swap1\n      tag_56\n      jump\t// in\n    tag_60:\n        /* \"contracts/8_SimpleAMM.sol\":1354:1388  amountOut = reserveA - newReserveA */\n      swap3\n      pop\n        /* \"contracts/8_SimpleAMM.sol\":1416:1427  newReserveA */\n      dup1\n        /* \"contracts/8_SimpleAMM.sol\":1405:1413  reserveA */\n      0x00\n        /* \"contracts/8_SimpleAMM.sol\":1405:1427  reserveA = newReserveA */\n      dup2\n      swap1\n      sstore\n      pop\n        /* \"contracts/8_SimpleAMM.sol\":1453:1464  newReserveB */\n      dup2\n        /* \"contracts/8_SimpleAMM.sol\":1442:1450  reserveB */\n      0x01\n        /* \"contracts/8_SimpleAMM.sol\":1442:1464  reserveB = newReserveB */\n      dup2\n      swap1\n      sstore\n      pop\n        /* \"contracts/8_SimpleAMM.sol\":1217:1476  {... */\n      pop\n      pop\n        /* \"contracts/8_SimpleAMM.sol\":926:1476  if (inputToken == tokenA) {... */\n    tag_57:\n        /* \"contracts/8_SimpleAMM.sol\":680:1483  function swap(uint256 amountIn, bytes32  inputToken)  public returns (uint256 amountOut) {... */\n      swap3\n      swap2\n      pop\n      pop\n      jump\t// out\n        /* \"contracts/8_SimpleAMM.sol\":213:235  bytes32  public tokenB */\n    tag_30:\n      sload(0x04)\n      dup2\n      jump\t// out\n        /* \"contracts/8_SimpleAMM.sol\":147:177  uint256 public constantProduct */\n    tag_33:\n      sload(0x02)\n      dup2\n      jump\t// out\n        /* \"contracts/8_SimpleAMM.sol\":1492:1587  function getPrice() public view returns (uint256) {... */\n    tag_36:\n        /* \"contracts/8_SimpleAMM.sol\":1533:1540  uint256 */\n      0x00\n        /* \"contracts/8_SimpleAMM.sol\":1571:1579  reserveB */\n      sload(0x01)\n        /* \"contracts/8_SimpleAMM.sol\":1560:1568  reserveA */\n      sload(0x00)\n        /* \"contracts/8_SimpleAMM.sol\":1560:1579  reserveA / reserveB */\n      tag_62\n      swap2\n      swap1\n      tag_54\n      jump\t// in\n    tag_62:\n        /* \"contracts/8_SimpleAMM.sol\":1553:1579  return reserveA / reserveB */\n      swap1\n      pop\n        /* \"contracts/8_SimpleAMM.sol\":1492:1587  function getPrice() public view returns (uint256) {... */\n      swap1\n      jump\t// out\n        /* \"contracts/8_SimpleAMM.sol\":87:110  uint256 public reserveA */\n    tag_39:\n      sload(0x00)\n      dup2\n      jump\t// out\n        /* \"#utility.yul\":7:84   */\n    tag_63:\n        /* \"#utility.yul\":44:51   */\n      0x00\n        /* \"#utility.yul\":73:78   */\n      dup2\n        /* \"#utility.yul\":62:78   */\n      swap1\n      pop\n        /* \"#utility.yul\":7:84   */\n      swap2\n      swap1\n      pop\n      jump\t// out\n        /* \"#utility.yul\":90:208   */\n    tag_64:\n        /* \"#utility.yul\":177:201   */\n      tag_84\n        /* \"#utility.yul\":195:200   */\n      dup2\n        /* \"#utility.yul\":177:201   */\n      tag_63\n      jump\t// in\n    tag_84:\n        /* \"#utility.yul\":172:175   */\n      dup3\n        /* \"#utility.yul\":165:202   */\n      mstore\n        /* \"#utility.yul\":90:208   */\n      pop\n      pop\n      jump\t// out\n        /* \"#utility.yul\":214:546   */\n    tag_15:\n        /* \"#utility.yul\":335:339   */\n      0x00\n        /* \"#utility.yul\":373:375   */\n      0x40\n        /* \"#utility.yul\":362:371   */\n      dup3\n        /* \"#utility.yul\":358:376   */\n      add\n        /* \"#utility.yul\":350:376   */\n      swap1\n      pop\n        /* \"#utility.yul\":386:457   */\n      tag_86\n        /* \"#utility.yul\":454:455   */\n      0x00\n        /* \"#utility.yul\":443:452   */\n      dup4\n        /* \"#utility.yul\":439:456   */\n      add\n        /* \"#utility.yul\":430:436   */\n      dup6\n        /* \"#utility.yul\":386:457   */\n      tag_64\n      jump\t// in\n    tag_86:\n        /* \"#utility.yul\":467:539   */\n      tag_87\n        /* \"#utility.yul\":535:537   */\n      0x20\n        /* \"#utility.yul\":524:533   */\n      dup4\n        /* \"#utility.yul\":520:538   */\n      add\n        /* \"#utility.yul\":511:517   */\n      dup5\n        /* \"#utility.yul\":467:539   */\n      tag_64\n      jump\t// in\n    tag_87:\n        /* \"#utility.yul\":214:546   */\n      swap4\n      swap3\n      pop\n      pop\n      pop\n      jump\t// out\n        /* \"#utility.yul\":552:629   */\n    tag_65:\n        /* \"#utility.yul\":589:596   */\n      0x00\n        /* \"#utility.yul\":618:623   */\n      dup2\n        /* \"#utility.yul\":607:623   */\n      swap1\n      pop\n        /* \"#utility.yul\":552:629   */\n      swap2\n      swap1\n      pop\n      jump\t// out\n        /* \"#utility.yul\":635:753   */\n    tag_66:\n        /* \"#utility.yul\":722:746   */\n      tag_90\n        /* \"#utility.yul\":740:745   */\n      dup2\n        /* \"#utility.yul\":722:746   */\n      tag_65\n      jump\t// in\n    tag_90:\n        /* \"#utility.yul\":717:720   */\n      dup3\n        /* \"#utility.yul\":710:747   */\n      mstore\n        /* \"#utility.yul\":635:753   */\n      pop\n      pop\n      jump\t// out\n        /* \"#utility.yul\":759:981   */\n    tag_19:\n        /* \"#utility.yul\":852:856   */\n      0x00\n        /* \"#utility.yul\":890:892   */\n      0x20\n        /* \"#utility.yul\":879:888   */\n      dup3\n        /* \"#utility.yul\":875:893   */\n      add\n        /* \"#utility.yul\":867:893   */\n      swap1\n      pop\n        /* \"#utility.yul\":903:974   */\n      tag_92\n        /* \"#utility.yul\":971:972   */\n      0x00\n        /* \"#utility.yul\":960:969   */\n      dup4\n        /* \"#utility.yul\":956:973   */\n      add\n        /* \"#utility.yul\":947:953   */\n      dup5\n        /* \"#utility.yul\":903:974   */\n      tag_66\n      jump\t// in\n    tag_92:\n        /* \"#utility.yul\":759:981   */\n      swap3\n      swap2\n      pop\n      pop\n      jump\t// out\n        /* \"#utility.yul\":987:1209   */\n    tag_23:\n        /* \"#utility.yul\":1080:1084   */\n      0x00\n        /* \"#utility.yul\":1118:1120   */\n      0x20\n        /* \"#utility.yul\":1107:1116   */\n      dup3\n        /* \"#utility.yul\":1103:1121   */\n      add\n        /* \"#utility.yul\":1095:1121   */\n      swap1\n      pop\n        /* \"#utility.yul\":1131:1202   */\n      tag_94\n        /* \"#utility.yul\":1199:1200   */\n      0x00\n        /* \"#utility.yul\":1188:1197   */\n      dup4\n        /* \"#utility.yul\":1184:1201   */\n      add\n        /* \"#utility.yul\":1175:1181   */\n      dup5\n        /* \"#utility.yul\":1131:1202   */\n      tag_64\n      jump\t// in\n    tag_94:\n        /* \"#utility.yul\":987:1209   */\n      swap3\n      swap2\n      pop\n      pop\n      jump\t// out\n        /* \"#utility.yul\":1296:1413   */\n    tag_68:\n        /* \"#utility.yul\":1405:1406   */\n      0x00\n        /* \"#utility.yul\":1402:1403   */\n      dup1\n        /* \"#utility.yul\":1395:1407   */\n      revert\n        /* \"#utility.yul\":1542:1664   */\n    tag_70:\n        /* \"#utility.yul\":1615:1639   */\n      tag_99\n        /* \"#utility.yul\":1633:1638   */\n      dup2\n        /* \"#utility.yul\":1615:1639   */\n      tag_63\n      jump\t// in\n    tag_99:\n        /* \"#utility.yul\":1608:1613   */\n      dup2\n        /* \"#utility.yul\":1605:1640   */\n      eq\n        /* \"#utility.yul\":1595:1658   */\n      tag_100\n      jumpi\n        /* \"#utility.yul\":1654:1655   */\n      0x00\n        /* \"#utility.yul\":1651:1652   */\n      dup1\n        /* \"#utility.yul\":1644:1656   */\n      revert\n        /* \"#utility.yul\":1595:1658   */\n    tag_100:\n        /* \"#utility.yul\":1542:1664   */\n      pop\n      jump\t// out\n        /* \"#utility.yul\":1670:1809   */\n    tag_71:\n        /* \"#utility.yul\":1716:1721   */\n      0x00\n        /* \"#utility.yul\":1754:1760   */\n      dup2\n        /* \"#utility.yul\":1741:1761   */\n      calldataload\n        /* \"#utility.yul\":1732:1761   */\n      swap1\n      pop\n        /* \"#utility.yul\":1770:1803   */\n      tag_102\n        /* \"#utility.yul\":1797:1802   */\n      dup2\n        /* \"#utility.yul\":1770:1803   */\n      tag_70\n      jump\t// in\n    tag_102:\n        /* \"#utility.yul\":1670:1809   */\n      swap3\n      swap2\n      pop\n      pop\n      jump\t// out\n        /* \"#utility.yul\":1815:1937   */\n    tag_72:\n        /* \"#utility.yul\":1888:1912   */\n      tag_104\n        /* \"#utility.yul\":1906:1911   */\n      dup2\n        /* \"#utility.yul\":1888:1912   */\n      tag_65\n      jump\t// in\n    tag_104:\n        /* \"#utility.yul\":1881:1886   */\n      dup2\n        /* \"#utility.yul\":1878:1913   */\n      eq\n        /* \"#utility.yul\":1868:1931   */\n      tag_105\n      jumpi\n        /* \"#utility.yul\":1927:1928   */\n      0x00\n        /* \"#utility.yul\":1924:1925   */\n      dup1\n        /* \"#utility.yul\":1917:1929   */\n      revert\n        /* \"#utility.yul\":1868:1931   */\n    tag_105:\n        /* \"#utility.yul\":1815:1937   */\n      pop\n      jump\t// out\n        /* \"#utility.yul\":1943:2082   */\n    tag_73:\n        /* \"#utility.yul\":1989:1994   */\n      0x00\n        /* \"#utility.yul\":2027:2033   */\n      dup2\n        /* \"#utility.yul\":2014:2034   */\n      calldataload\n        /* \"#utility.yul\":2005:2034   */\n      swap1\n      pop\n        /* \"#utility.yul\":2043:2076   */\n      tag_107\n        /* \"#utility.yul\":2070:2075   */\n      dup2\n        /* \"#utility.yul\":2043:2076   */\n      tag_72\n      jump\t// in\n    tag_107:\n        /* \"#utility.yul\":1943:2082   */\n      swap3\n      swap2\n      pop\n      pop\n      jump\t// out\n        /* \"#utility.yul\":2088:2562   */\n    tag_26:\n        /* \"#utility.yul\":2156:2162   */\n      0x00\n        /* \"#utility.yul\":2164:2170   */\n      dup1\n        /* \"#utility.yul\":2213:2215   */\n      0x40\n        /* \"#utility.yul\":2201:2210   */\n      dup4\n        /* \"#utility.yul\":2192:2199   */\n      dup6\n        /* \"#utility.yul\":2188:2211   */\n      sub\n        /* \"#utility.yul\":2184:2216   */\n      slt\n        /* \"#utility.yul\":2181:2300   */\n      iszero\n      tag_109\n      jumpi\n        /* \"#utility.yul\":2219:2298   */\n      tag_110\n      tag_68\n      jump\t// in\n    tag_110:\n        /* \"#utility.yul\":2181:2300   */\n    tag_109:\n        /* \"#utility.yul\":2339:2340   */\n      0x00\n        /* \"#utility.yul\":2364:2417   */\n      tag_111\n        /* \"#utility.yul\":2409:2416   */\n      dup6\n        /* \"#utility.yul\":2400:2406   */\n      dup3\n        /* \"#utility.yul\":2389:2398   */\n      dup7\n        /* \"#utility.yul\":2385:2407   */\n      add\n        /* \"#utility.yul\":2364:2417   */\n      tag_71\n      jump\t// in\n    tag_111:\n        /* \"#utility.yul\":2354:2417   */\n      swap3\n      pop\n        /* \"#utility.yul\":2310:2427   */\n      pop\n        /* \"#utility.yul\":2466:2468   */\n      0x20\n        /* \"#utility.yul\":2492:2545   */\n      tag_112\n        /* \"#utility.yul\":2537:2544   */\n      dup6\n        /* \"#utility.yul\":2528:2534   */\n      dup3\n        /* \"#utility.yul\":2517:2526   */\n      dup7\n        /* \"#utility.yul\":2513:2535   */\n      add\n        /* \"#utility.yul\":2492:2545   */\n      tag_73\n      jump\t// in\n    tag_112:\n        /* \"#utility.yul\":2482:2545   */\n      swap2\n      pop\n        /* \"#utility.yul\":2437:2555   */\n      pop\n        /* \"#utility.yul\":2088:2562   */\n      swap3\n      pop\n      swap3\n      swap1\n      pop\n      jump\t// out\n        /* \"#utility.yul\":2568:2737   */\n    tag_74:\n        /* \"#utility.yul\":2652:2663   */\n      0x00\n        /* \"#utility.yul\":2686:2692   */\n      dup3\n        /* \"#utility.yul\":2681:2684   */\n      dup3\n        /* \"#utility.yul\":2674:2693   */\n      mstore\n        /* \"#utility.yul\":2726:2730   */\n      0x20\n        /* \"#utility.yul\":2721:2724   */\n      dup3\n        /* \"#utility.yul\":2717:2731   */\n      add\n        /* \"#utility.yul\":2702:2731   */\n      swap1\n      pop\n        /* \"#utility.yul\":2568:2737   */\n      swap3\n      swap2\n      pop\n      pop\n      jump\t// out\n        /* \"#utility.yul\":2743:2922   */\n    tag_75:\n        /* \"#utility.yul\":2883:2914   */\n      0x416d6f756e74206d7573742062652067726561746572207468616e2030000000\n        /* \"#utility.yul\":2879:2880   */\n      0x00\n        /* \"#utility.yul\":2871:2877   */\n      dup3\n        /* \"#utility.yul\":2867:2881   */\n      add\n        /* \"#utility.yul\":2860:2915   */\n      mstore\n        /* \"#utility.yul\":2743:2922   */\n      pop\n      jump\t// out\n        /* \"#utility.yul\":2928:3294   */\n    tag_76:\n        /* \"#utility.yul\":3070:3073   */\n      0x00\n        /* \"#utility.yul\":3091:3158   */\n      tag_116\n        /* \"#utility.yul\":3155:3157   */\n      0x1d\n        /* \"#utility.yul\":3150:3153   */\n      dup4\n        /* \"#utility.yul\":3091:3158   */\n      tag_74\n      jump\t// in\n    tag_116:\n        /* \"#utility.yul\":3084:3158   */\n      swap2\n      pop\n        /* \"#utility.yul\":3167:3260   */\n      tag_117\n        /* \"#utility.yul\":3256:3259   */\n      dup3\n        /* \"#utility.yul\":3167:3260   */\n      tag_75\n      jump\t// in\n    tag_117:\n        /* \"#utility.yul\":3285:3287   */\n      0x20\n        /* \"#utility.yul\":3280:3283   */\n      dup3\n        /* \"#utility.yul\":3276:3288   */\n      add\n        /* \"#utility.yul\":3269:3288   */\n      swap1\n      pop\n        /* \"#utility.yul\":2928:3294   */\n      swap2\n      swap1\n      pop\n      jump\t// out\n        /* \"#utility.yul\":3300:3719   */\n    tag_45:\n        /* \"#utility.yul\":3466:3470   */\n      0x00\n        /* \"#utility.yul\":3504:3506   */\n      0x20\n        /* \"#utility.yul\":3493:3502   */\n      dup3\n        /* \"#utility.yul\":3489:3507   */\n      add\n        /* \"#utility.yul\":3481:3507   */\n      swap1\n      pop\n        /* \"#utility.yul\":3553:3562   */\n      dup2\n        /* \"#utility.yul\":3547:3551   */\n      dup2\n        /* \"#utility.yul\":3543:3563   */\n      sub\n        /* \"#utility.yul\":3539:3540   */\n      0x00\n        /* \"#utility.yul\":3528:3537   */\n      dup4\n        /* \"#utility.yul\":3524:3541   */\n      add\n        /* \"#utility.yul\":3517:3564   */\n      mstore\n        /* \"#utility.yul\":3581:3712   */\n      tag_119\n        /* \"#utility.yul\":3707:3711   */\n      dup2\n        /* \"#utility.yul\":3581:3712   */\n      tag_76\n      jump\t// in\n    tag_119:\n        /* \"#utility.yul\":3573:3712   */\n      swap1\n      pop\n        /* \"#utility.yul\":3300:3719   */\n      swap2\n      swap1\n      pop\n      jump\t// out\n        /* \"#utility.yul\":3725:3888   */\n    tag_77:\n        /* \"#utility.yul\":3865:3880   */\n      0x496e76616c696420746f6b656e00000000000000000000000000000000000000\n        /* \"#utility.yul\":3861:3862   */\n      0x00\n        /* \"#utility.yul\":3853:3859   */\n      dup3\n        /* \"#utility.yul\":3849:3863   */\n      add\n        /* \"#utility.yul\":3842:3881   */\n      mstore\n        /* \"#utility.yul\":3725:3888   */\n      pop\n      jump\t// out\n        /* \"#utility.yul\":3894:4260   */\n    tag_78:\n        /* \"#utility.yul\":4036:4039   */\n      0x00\n        /* \"#utility.yul\":4057:4124   */\n      tag_122\n        /* \"#utility.yul\":4121:4123   */\n      0x0d\n        /* \"#utility.yul\":4116:4119   */\n      dup4\n        /* \"#utility.yul\":4057:4124   */\n      tag_74\n      jump\t// in\n    tag_122:\n        /* \"#utility.yul\":4050:4124   */\n      swap2\n      pop\n        /* \"#utility.yul\":4133:4226   */\n      tag_123\n        /* \"#utility.yul\":4222:4225   */\n      dup3\n        /* \"#utility.yul\":4133:4226   */\n      tag_77\n      jump\t// in\n    tag_123:\n        /* \"#utility.yul\":4251:4253   */\n      0x20\n        /* \"#utility.yul\":4246:4249   */\n      dup3\n        /* \"#utility.yul\":4242:4254   */\n      add\n        /* \"#utility.yul\":4235:4254   */\n      swap1\n      pop\n        /* \"#utility.yul\":3894:4260   */\n      swap2\n      swap1\n      pop\n      jump\t// out\n        /* \"#utility.yul\":4266:4685   */\n    tag_49:\n        /* \"#utility.yul\":4432:4436   */\n      0x00\n        /* \"#utility.yul\":4470:4472   */\n      0x20\n        /* \"#utility.yul\":4459:4468   */\n      dup3\n        /* \"#utility.yul\":4455:4473   */\n      add\n        /* \"#utility.yul\":4447:4473   */\n      swap1\n      pop\n        /* \"#utility.yul\":4519:4528   */\n      dup2\n        /* \"#utility.yul\":4513:4517   */\n      dup2\n        /* \"#utility.yul\":4509:4529   */\n      sub\n        /* \"#utility.yul\":4505:4506   */\n      0x00\n        /* \"#utility.yul\":4494:4503   */\n      dup4\n        /* \"#utility.yul\":4490:4507   */\n      add\n        /* \"#utility.yul\":4483:4530   */\n      mstore\n        /* \"#utility.yul\":4547:4678   */\n      tag_125\n        /* \"#utility.yul\":4673:4677   */\n      dup2\n        /* \"#utility.yul\":4547:4678   */\n      tag_78\n      jump\t// in\n    tag_125:\n        /* \"#utility.yul\":4539:4678   */\n      swap1\n      pop\n        /* \"#utility.yul\":4266:4685   */\n      swap2\n      swap1\n      pop\n      jump\t// out\n        /* \"#utility.yul\":4691:4871   */\n    tag_79:\n        /* \"#utility.yul\":4739:4816   */\n      0x4e487b7100000000000000000000000000000000000000000000000000000000\n        /* \"#utility.yul\":4736:4737   */\n      0x00\n        /* \"#utility.yul\":4729:4817   */\n      mstore\n        /* \"#utility.yul\":4836:4840   */\n      0x11\n        /* \"#utility.yul\":4833:4834   */\n      0x04\n        /* \"#utility.yul\":4826:4841   */\n      mstore\n        /* \"#utility.yul\":4860:4864   */\n      0x24\n        /* \"#utility.yul\":4857:4858   */\n      0x00\n        /* \"#utility.yul\":4850:4865   */\n      revert\n        /* \"#utility.yul\":4877:5068   */\n    tag_52:\n        /* \"#utility.yul\":4917:4920   */\n      0x00\n        /* \"#utility.yul\":4936:4956   */\n      tag_128\n        /* \"#utility.yul\":4954:4955   */\n      dup3\n        /* \"#utility.yul\":4936:4956   */\n      tag_63\n      jump\t// in\n    tag_128:\n        /* \"#utility.yul\":4931:4956   */\n      swap2\n      pop\n        /* \"#utility.yul\":4970:4990   */\n      tag_129\n        /* \"#utility.yul\":4988:4989   */\n      dup4\n        /* \"#utility.yul\":4970:4990   */\n      tag_63\n      jump\t// in\n    tag_129:\n        /* \"#utility.yul\":4965:4990   */\n      swap3\n      pop\n        /* \"#utility.yul\":5013:5014   */\n      dup3\n        /* \"#utility.yul\":5010:5011   */\n      dup3\n        /* \"#utility.yul\":5006:5015   */\n      add\n        /* \"#utility.yul\":4999:5015   */\n      swap1\n      pop\n        /* \"#utility.yul\":5034:5037   */\n      dup1\n        /* \"#utility.yul\":5031:5032   */\n      dup3\n        /* \"#utility.yul\":5028:5038   */\n      gt\n        /* \"#utility.yul\":5025:5061   */\n      iszero\n      tag_130\n      jumpi\n        /* \"#utility.yul\":5041:5059   */\n      tag_131\n      tag_79\n      jump\t// in\n    tag_131:\n        /* \"#utility.yul\":5025:5061   */\n    tag_130:\n        /* \"#utility.yul\":4877:5068   */\n      swap3\n      swap2\n      pop\n      pop\n      jump\t// out\n        /* \"#utility.yul\":5074:5254   */\n    tag_80:\n        /* \"#utility.yul\":5122:5199   */\n      0x4e487b7100000000000000000000000000000000000000000000000000000000\n        /* \"#utility.yul\":5119:5120   */\n      0x00\n        /* \"#utility.yul\":5112:5200   */\n      mstore\n        /* \"#utility.yul\":5219:5223   */\n      0x12\n        /* \"#utility.yul\":5216:5217   */\n      0x04\n        /* \"#utility.yul\":5209:5224   */\n      mstore\n        /* \"#utility.yul\":5243:5247   */\n      0x24\n        /* \"#utility.yul\":5240:5241   */\n      0x00\n        /* \"#utility.yul\":5233:5248   */\n      revert\n        /* \"#utility.yul\":5260:5445   */\n    tag_54:\n        /* \"#utility.yul\":5300:5301   */\n      0x00\n        /* \"#utility.yul\":5317:5337   */\n      tag_134\n        /* \"#utility.yul\":5335:5336   */\n      dup3\n        /* \"#utility.yul\":5317:5337   */\n      tag_63\n      jump\t// in\n    tag_134:\n        /* \"#utility.yul\":5312:5337   */\n      swap2\n      pop\n        /* \"#utility.yul\":5351:5371   */\n      tag_135\n        /* \"#utility.yul\":5369:5370   */\n      dup4\n        /* \"#utility.yul\":5351:5371   */\n      tag_63\n      jump\t// in\n    tag_135:\n        /* \"#utility.yul\":5346:5371   */\n      swap3\n      pop\n        /* \"#utility.yul\":5390:5391   */\n      dup3\n        /* \"#utility.yul\":5380:5415   */\n      tag_136\n      jumpi\n        /* \"#utility.yul\":5395:5413   */\n      tag_137\n      tag_80\n      jump\t// in\n    tag_137:\n        /* \"#utility.yul\":5380:5415   */\n    tag_136:\n        /* \"#utility.yul\":5437:5438   */\n      dup3\n        /* \"#utility.yul\":5434:5435   */\n      dup3\n        /* \"#utility.yul\":5430:5439   */\n      div\n        /* \"#utility.yul\":5425:5439   */\n      swap1\n      pop\n        /* \"#utility.yul\":5260:5445   */\n      swap3\n      swap2\n      pop\n      pop\n      jump\t// out\n        /* \"#utility.yul\":5451:5645   */\n    tag_56:\n        /* \"#utility.yul\":5491:5495   */\n      0x00\n        /* \"#utility.yul\":5511:5531   */\n      tag_139\n        /* \"#utility.yul\":5529:5530   */\n      dup3\n        /* \"#utility.yul\":5511:5531   */\n      tag_63\n      jump\t// in\n    tag_139:\n        /* \"#utility.yul\":5506:5531   */\n      swap2\n      pop\n        /* \"#utility.yul\":5545:5565   */\n      tag_140\n        /* \"#utility.yul\":5563:5564   */\n      dup4\n        /* \"#utility.yul\":5545:5565   */\n      tag_63\n      jump\t// in\n    tag_140:\n        /* \"#utility.yul\":5540:5565   */\n      swap3\n      pop\n        /* \"#utility.yul\":5589:5590   */\n      dup3\n        /* \"#utility.yul\":5586:5587   */\n      dup3\n        /* \"#utility.yul\":5582:5591   */\n      sub\n        /* \"#utility.yul\":5574:5591   */\n      swap1\n      pop\n        /* \"#utility.yul\":5613:5614   */\n      dup2\n        /* \"#utility.yul\":5607:5611   */\n      dup2\n        /* \"#utility.yul\":5604:5615   */\n      gt\n        /* \"#utility.yul\":5601:5638   */\n      iszero\n      tag_141\n      jumpi\n        /* \"#utility.yul\":5618:5636   */\n      tag_142\n      tag_79\n      jump\t// in\n    tag_142:\n        /* \"#utility.yul\":5601:5638   */\n    tag_141:\n        /* \"#utility.yul\":5451:5645   */\n      swap3\n      swap2\n      pop\n      pop\n      jump\t// out\n\n    auxdata: 0xa2646970667358221220366f48aa768c8aa9e69e86efc3f4d7f29548a1b7f6c64f0d7e36a5824353193d64736f6c634300081a0033\n}\n",
				"bytecode": {
					"linkReferences": {},
					"object": "608060405234801561000f575f80fd5b506040516108903803806108908339818101604052810190610031919061011e565b5f8211801561003f57505f81115b61007e576040517f08c379a0000000000000000000000000000000000000000000000000000000008152600401610075906101dc565b60405180910390fd5b8360038190555082600481905550815f819055508060018190555080826100a59190610227565b60028190555050505050610268565b5f80fd5b5f819050919050565b6100ca816100b8565b81146100d4575f80fd5b50565b5f815190506100e5816100c1565b92915050565b5f819050919050565b6100fd816100eb565b8114610107575f80fd5b50565b5f81519050610118816100f4565b92915050565b5f805f8060808587031215610136576101356100b4565b5b5f610143878288016100d7565b9450506020610154878288016100d7565b93505060406101658782880161010a565b92505060606101768782880161010a565b91505092959194509250565b5f82825260208201905092915050565b7f696e76616c6964207265736572766573000000000000000000000000000000005f82015250565b5f6101c6601083610182565b91506101d182610192565b602082019050919050565b5f6020820190508181035f8301526101f3816101ba565b9050919050565b7f4e487b71000000000000000000000000000000000000000000000000000000005f52601160045260245ffd5b5f610231826100eb565b915061023c836100eb565b925082820261024a816100eb565b91508282048414831517610261576102606101fa565b5b5092915050565b61061b806102755f395ff3fe608060405234801561000f575f80fd5b5060043610610086575f3560e01c80635f64b55b116100595780635f64b55b1461011557806360641e591461013357806398d5fdca14610151578063dc5fa6c51461016f57610086565b80630902f1ac1461008a5780630fc63d10146100a957806319e36f3b146100c757806343dbf2a9146100e5575b5f80fd5b61009261018d565b6040516100a092919061030e565b60405180910390f35b6100b161019c565b6040516100be919061034d565b60405180910390f35b6100cf6101a2565b6040516100dc9190610366565b60405180910390f35b6100ff60048036038101906100fa91906103d7565b6101a8565b60405161010c9190610366565b60405180910390f35b61011d6102d0565b60405161012a919061034d565b60405180910390f35b61013b6102d6565b6040516101489190610366565b60405180910390f35b6101596102dc565b6040516101669190610366565b60405180910390f35b6101776102f1565b6040516101849190610366565b60405180910390f35b5f805f54600154915091509091565b60035481565b60015481565b5f8083116101eb576040517f08c379a00000000000000000000000000000000000000000000000000000000081526004016101e29061046f565b60405180910390fd5b6003548214806101fc575060045482145b61023b576040517f08c379a0000000000000000000000000000000000000000000000000000000008152600401610232906104d7565b60405180910390fd5b6003548203610289575f835f546102529190610522565b90505f816002546102639190610582565b90508060015461027391906105b2565b9250815f819055508060018190555050506102ca565b5f836001546102989190610522565b90505f816002546102a99190610582565b9050805f546102b891906105b2565b9250805f819055508160018190555050505b92915050565b60045481565b60025481565b5f6001545f546102ec9190610582565b905090565b5f5481565b5f819050919050565b610308816102f6565b82525050565b5f6040820190506103215f8301856102ff565b61032e60208301846102ff565b9392505050565b5f819050919050565b61034781610335565b82525050565b5f6020820190506103605f83018461033e565b92915050565b5f6020820190506103795f8301846102ff565b92915050565b5f80fd5b61038c816102f6565b8114610396575f80fd5b50565b5f813590506103a781610383565b92915050565b6103b681610335565b81146103c0575f80fd5b50565b5f813590506103d1816103ad565b92915050565b5f80604083850312156103ed576103ec61037f565b5b5f6103fa85828601610399565b925050602061040b858286016103c3565b9150509250929050565b5f82825260208201905092915050565b7f416d6f756e74206d7573742062652067726561746572207468616e20300000005f82015250565b5f610459601d83610415565b915061046482610425565b602082019050919050565b5f6020820190508181035f8301526104868161044d565b9050919050565b7f496e76616c696420746f6b656e000000000000000000000000000000000000005f82015250565b5f6104c1600d83610415565b91506104cc8261048d565b602082019050919050565b5f6020820190508181035f8301526104ee816104b5565b9050919050565b7f4e487b71000000000000000000000000000000000000000000000000000000005f52601160045260245ffd5b5f61052c826102f6565b9150610537836102f6565b925082820190508082111561054f5761054e6104f5565b5b92915050565b7f4e487b71000000000000000000000000000000000000000000000000000000005f52601260045260245ffd5b5f61058c826102f6565b9150610597836102f6565b9250826105a7576105a6610555565b5b828204905092915050565b5f6105bc826102f6565b91506105c7836102f6565b92508282039050818111156105df576105de6104f5565b5b9291505056fea2646970667358221220366f48aa768c8aa9e69e86efc3f4d7f29548a1b7f6c64f0d7e36a5824353193d64736f6c634300081a0033",
					"opcodes": "PUSH1 0x80 PUSH1 0x40 MSTORE CALLVALUE DUP1 ISZERO PUSH2 0xF JUMPI PUSH0 DUP1 REVERT JUMPDEST POP PUSH1 0x40 MLOAD PUSH2 0x890 CODESIZE SUB DUP1 PUSH2 0x890 DUP4 CODECOPY DUP2 DUP2 ADD PUSH1 0x40 MSTORE DUP2 ADD SWAP1 PUSH2 0x31 SWAP2 SWAP1 PUSH2 0x11E JUMP JUMPDEST PUSH0 DUP3 GT DUP1 ISZERO PUSH2 0x3F JUMPI POP PUSH0 DUP2 GT JUMPDEST PUSH2 0x7E JUMPI PUSH1 0x40 MLOAD PUSH32 0x8C379A000000000000000000000000000000000000000000000000000000000 DUP2 MSTORE PUSH1 0x4 ADD PUSH2 0x75 SWAP1 PUSH2 0x1DC JUMP JUMPDEST PUSH1 0x40 MLOAD DUP1 SWAP2 SUB SWAP1 REVERT JUMPDEST DUP4 PUSH1 0x3 DUP2 SWAP1 SSTORE POP DUP3 PUSH1 0x4 DUP2 SWAP1 SSTORE POP DUP2 PUSH0 DUP2 SWAP1 SSTORE POP DUP1 PUSH1 0x1 DUP2 SWAP1 SSTORE POP DUP1 DUP3 PUSH2 0xA5 SWAP2 SWAP1 PUSH2 0x227 JUMP JUMPDEST PUSH1 0x2 DUP2 SWAP1 SSTORE POP POP POP POP POP PUSH2 0x268 JUMP JUMPDEST PUSH0 DUP1 REVERT JUMPDEST PUSH0 DUP2 SWAP1 POP SWAP2 SWAP1 POP JUMP JUMPDEST PUSH2 0xCA DUP2 PUSH2 0xB8 JUMP JUMPDEST DUP2 EQ PUSH2 0xD4 JUMPI PUSH0 DUP1 REVERT JUMPDEST POP JUMP JUMPDEST PUSH0 DUP2 MLOAD SWAP1 POP PUSH2 0xE5 DUP2 PUSH2 0xC1 JUMP JUMPDEST SWAP3 SWAP2 POP POP JUMP JUMPDEST PUSH0 DUP2 SWAP1 POP SWAP2 SWAP1 POP JUMP JUMPDEST PUSH2 0xFD DUP2 PUSH2 0xEB JUMP JUMPDEST DUP2 EQ PUSH2 0x107 JUMPI PUSH0 DUP1 REVERT JUMPDEST POP JUMP JUMPDEST PUSH0 DUP2 MLOAD SWAP1 POP PUSH2 0x118 DUP2 PUSH2 0xF4 JUMP JUMPDEST SWAP3 SWAP2 POP POP JUMP JUMPDEST PUSH0 DUP1 PUSH0 DUP1 PUSH1 0x80 DUP6 DUP8 SUB SLT ISZERO PUSH2 0x136 JUMPI PUSH2 0x135 PUSH2 0xB4 JUMP JUMPDEST JUMPDEST PUSH0 PUSH2 0x143 DUP8 DUP3 DUP9 ADD PUSH2 0xD7 JUMP JUMPDEST SWAP5 POP POP PUSH1 0x20 PUSH2 0x154 DUP8 DUP3 DUP9 ADD PUSH2 0xD7 JUMP JUMPDEST SWAP4 POP POP PUSH1 0x40 PUSH2 0x165 DUP8 DUP3 DUP9 ADD PUSH2 0x10A JUMP JUMPDEST SWAP3 POP POP PUSH1 0x60 PUSH2 0x176 DUP8 DUP3 DUP9 ADD PUSH2 0x10A JUMP JUMPDEST SWAP2 POP POP SWAP3 SWAP6 SWAP2 SWAP5 POP SWAP3 POP JUMP JUMPDEST PUSH0 DUP3 DUP3 MSTORE PUSH1 0x20 DUP3 ADD SWAP1 POP SWAP3 SWAP2 POP POP JUMP JUMPDEST PUSH32 0x696E76616C696420726573657276657300000000000000000000000000000000 PUSH0 DUP3 ADD MSTORE POP JUMP JUMPDEST PUSH0 PUSH2 0x1C6 PUSH1 0x10 DUP4 PUSH2 0x182 JUMP JUMPDEST SWAP2 POP PUSH2 0x1D1 DUP3 PUSH2 0x192 JUMP JUMPDEST PUSH1 0x20 DUP3 ADD SWAP1 POP SWAP2 SWAP1 POP JUMP JUMPDEST PUSH0 PUSH1 0x20 DUP3 ADD SWAP1 POP DUP2 DUP2 SUB PUSH0 DUP4 ADD MSTORE PUSH2 0x1F3 DUP2 PUSH2 0x1BA JUMP JUMPDEST SWAP1 POP SWAP2 SWAP1 POP JUMP JUMPDEST PUSH32 0x4E487B7100000000000000000000000000000000000000000000000000000000 PUSH0 MSTORE PUSH1 0x11 PUSH1 0x4 MSTORE PUSH1 0x24 PUSH0 REVERT JUMPDEST PUSH0 PUSH2 0x231 DUP3 PUSH2 0xEB JUMP JUMPDEST SWAP2 POP PUSH2 0x23C DUP4 PUSH2 0xEB JUMP JUMPDEST SWAP3 POP DUP3 DUP3 MUL PUSH2 0x24A DUP2 PUSH2 0xEB JUMP JUMPDEST SWAP2 POP DUP3 DUP3 DIV DUP5 EQ DUP4 ISZERO OR PUSH2 0x261 JUMPI PUSH2 0x260 PUSH2 0x1FA JUMP JUMPDEST JUMPDEST POP SWAP3 SWAP2 POP POP JUMP JUMPDEST PUSH2 0x61B DUP1 PUSH2 0x275 PUSH0 CODECOPY PUSH0 RETURN INVALID PUSH1 0x80 PUSH1 0x40 MSTORE CALLVALUE DUP1 ISZERO PUSH2 0xF JUMPI PUSH0 DUP1 REVERT JUMPDEST POP PUSH1 0x4 CALLDATASIZE LT PUSH2 0x86 JUMPI PUSH0 CALLDATALOAD PUSH1 0xE0 SHR DUP1 PUSH4 0x5F64B55B GT PUSH2 0x59 JUMPI DUP1 PUSH4 0x5F64B55B EQ PUSH2 0x115 JUMPI DUP1 PUSH4 0x60641E59 EQ PUSH2 0x133 JUMPI DUP1 PUSH4 0x98D5FDCA EQ PUSH2 0x151 JUMPI DUP1 PUSH4 0xDC5FA6C5 EQ PUSH2 0x16F JUMPI PUSH2 0x86 JUMP JUMPDEST DUP1 PUSH4 0x902F1AC EQ PUSH2 0x8A JUMPI DUP1 PUSH4 0xFC63D10 EQ PUSH2 0xA9 JUMPI DUP1 PUSH4 0x19E36F3B EQ PUSH2 0xC7 JUMPI DUP1 PUSH4 0x43DBF2A9 EQ PUSH2 0xE5 JUMPI JUMPDEST PUSH0 DUP1 REVERT JUMPDEST PUSH2 0x92 PUSH2 0x18D JUMP JUMPDEST PUSH1 0x40 MLOAD PUSH2 0xA0 SWAP3 SWAP2 SWAP1 PUSH2 0x30E JUMP JUMPDEST PUSH1 0x40 MLOAD DUP1 SWAP2 SUB SWAP1 RETURN JUMPDEST PUSH2 0xB1 PUSH2 0x19C JUMP JUMPDEST PUSH1 0x40 MLOAD PUSH2 0xBE SWAP2 SWAP1 PUSH2 0x34D JUMP JUMPDEST PUSH1 0x40 MLOAD DUP1 SWAP2 SUB SWAP1 RETURN JUMPDEST PUSH2 0xCF PUSH2 0x1A2 JUMP JUMPDEST PUSH1 0x40 MLOAD PUSH2 0xDC SWAP2 SWAP1 PUSH2 0x366 JUMP JUMPDEST PUSH1 0x40 MLOAD DUP1 SWAP2 SUB SWAP1 RETURN JUMPDEST PUSH2 0xFF PUSH1 0x4 DUP1 CALLDATASIZE SUB DUP2 ADD SWAP1 PUSH2 0xFA SWAP2 SWAP1 PUSH2 0x3D7 JUMP JUMPDEST PUSH2 0x1A8 JUMP JUMPDEST PUSH1 0x40 MLOAD PUSH2 0x10C SWAP2 SWAP1 PUSH2 0x366 JUMP JUMPDEST PUSH1 0x40 MLOAD DUP1 SWAP2 SUB SWAP1 RETURN JUMPDEST PUSH2 0x11D PUSH2 0x2D0 JUMP JUMPDEST PUSH1 0x40 MLOAD PUSH2 0x12A SWAP2 SWAP1 PUSH2 0x34D JUMP JUMPDEST PUSH1 0x40 MLOAD DUP1 SWAP2 SUB SWAP1 RETURN JUMPDEST PUSH2 0x13B PUSH2 0x2D6 JUMP JUMPDEST PUSH1 0x40 MLOAD PUSH2 0x148 SWAP2 SWAP1 PUSH2 0x366 JUMP JUMPDEST PUSH1 0x40 MLOAD DUP1 SWAP2 SUB SWAP1 RETURN JUMPDEST PUSH2 0x159 PUSH2 0x2DC JUMP JUMPDEST PUSH1 0x40 MLOAD PUSH2 0x166 SWAP2 SWAP1 PUSH2 0x366 JUMP JUMPDEST PUSH1 0x40 MLOAD DUP1 SWAP2 SUB SWAP1 RETURN JUMPDEST PUSH2 0x177 PUSH2 0x2F1 JUMP JUMPDEST PUSH1 0x40 MLOAD PUSH2 0x184 SWAP2 SWAP1 PUSH2 0x366 JUMP JUMPDEST PUSH1 0x40 MLOAD DUP1 SWAP2 SUB SWAP1 RETURN JUMPDEST PUSH0 DUP1 PUSH0 SLOAD PUSH1 0x1 SLOAD SWAP2 POP SWAP2 POP SWAP1 SWAP2 JUMP JUMPDEST PUSH1 0x3 SLOAD DUP2 JUMP JUMPDEST PUSH1 0x1 SLOAD DUP2 JUMP JUMPDEST PUSH0 DUP1 DUP4 GT PUSH2 0x1EB JUMPI PUSH1 0x40 MLOAD PUSH32 0x8C379A000000000000000000000000000000000000000000000000000000000 DUP2 MSTORE PUSH1 0x4 ADD PUSH2 0x1E2 SWAP1 PUSH2 0x46F JUMP JUMPDEST PUSH1 0x40 MLOAD DUP1 SWAP2 SUB SWAP1 REVERT JUMPDEST PUSH1 0x3 SLOAD DUP3 EQ DUP1 PUSH2 0x1FC JUMPI POP PUSH1 0x4 SLOAD DUP3 EQ JUMPDEST PUSH2 0x23B JUMPI PUSH1 0x40 MLOAD PUSH32 0x8C379A000000000000000000000000000000000000000000000000000000000 DUP2 MSTORE PUSH1 0x4 ADD PUSH2 0x232 SWAP1 PUSH2 0x4D7 JUMP JUMPDEST PUSH1 0x40 MLOAD DUP1 SWAP2 SUB SWAP1 REVERT JUMPDEST PUSH1 0x3 SLOAD DUP3 SUB PUSH2 0x289 JUMPI PUSH0 DUP4 PUSH0 SLOAD PUSH2 0x252 SWAP2 SWAP1 PUSH2 0x522 JUMP JUMPDEST SWAP1 POP PUSH0 DUP2 PUSH1 0x2 SLOAD PUSH2 0x263 SWAP2 SWAP1 PUSH2 0x582 JUMP JUMPDEST SWAP1 POP DUP1 PUSH1 0x1 SLOAD PUSH2 0x273 SWAP2 SWAP1 PUSH2 0x5B2 JUMP JUMPDEST SWAP3 POP DUP2 PUSH0 DUP2 SWAP1 SSTORE POP DUP1 PUSH1 0x1 DUP2 SWAP1 SSTORE POP POP POP PUSH2 0x2CA JUMP JUMPDEST PUSH0 DUP4 PUSH1 0x1 SLOAD PUSH2 0x298 SWAP2 SWAP1 PUSH2 0x522 JUMP JUMPDEST SWAP1 POP PUSH0 DUP2 PUSH1 0x2 SLOAD PUSH2 0x2A9 SWAP2 SWAP1 PUSH2 0x582 JUMP JUMPDEST SWAP1 POP DUP1 PUSH0 SLOAD PUSH2 0x2B8 SWAP2 SWAP1 PUSH2 0x5B2 JUMP JUMPDEST SWAP3 POP DUP1 PUSH0 DUP2 SWAP1 SSTORE POP DUP2 PUSH1 0x1 DUP2 SWAP1 SSTORE POP POP POP JUMPDEST SWAP3 SWAP2 POP POP JUMP JUMPDEST PUSH1 0x4 SLOAD DUP2 JUMP JUMPDEST PUSH1 0x2 SLOAD DUP2 JUMP JUMPDEST PUSH0 PUSH1 0x1 SLOAD PUSH0 SLOAD PUSH2 0x2EC SWAP2 SWAP1 PUSH2 0x582 JUMP JUMPDEST SWAP1 POP SWAP1 JUMP JUMPDEST PUSH0 SLOAD DUP2 JUMP JUMPDEST PUSH0 DUP2 SWAP1 POP SWAP2 SWAP1 POP JUMP JUMPDEST PUSH2 0x308 DUP2 PUSH2 0x2F6 JUMP JUMPDEST DUP3 MSTORE POP POP JUMP JUMPDEST PUSH0 PUSH1 0x40 DUP3 ADD SWAP1 POP PUSH2 0x321 PUSH0 DUP4 ADD DUP6 PUSH2 0x2FF JUMP JUMPDEST PUSH2 0x32E PUSH1 0x20 DUP4 ADD DUP5 PUSH2 0x2FF JUMP JUMPDEST SWAP4 SWAP3 POP POP POP JUMP JUMPDEST PUSH0 DUP2 SWAP1 POP SWAP2 SWAP1 POP JUMP JUMPDEST PUSH2 0x347 DUP2 PUSH2 0x335 JUMP JUMPDEST DUP3 MSTORE POP POP JUMP JUMPDEST PUSH0 PUSH1 0x20 DUP3 ADD SWAP1 POP PUSH2 0x360 PUSH0 DUP4 ADD DUP5 PUSH2 0x33E JUMP JUMPDEST SWAP3 SWAP2 POP POP JUMP JUMPDEST PUSH0 PUSH1 0x20 DUP3 ADD SWAP1 POP PUSH2 0x379 PUSH0 DUP4 ADD DUP5 PUSH2 0x2FF JUMP JUMPDEST SWAP3 SWAP2 POP POP JUMP JUMPDEST PUSH0 DUP1 REVERT JUMPDEST PUSH2 0x38C DUP2 PUSH2 0x2F6 JUMP JUMPDEST DUP2 EQ PUSH2 0x396 JUMPI PUSH0 DUP1 REVERT JUMPDEST POP JUMP JUMPDEST PUSH0 DUP2 CALLDATALOAD SWAP1 POP PUSH2 0x3A7 DUP2 PUSH2 0x383 JUMP JUMPDEST SWAP3 SWAP2 POP POP JUMP JUMPDEST PUSH2 0x3B6 DUP2 PUSH2 0x335 JUMP JUMPDEST DUP2 EQ PUSH2 0x3C0 JUMPI PUSH0 DUP1 REVERT JUMPDEST POP JUMP JUMPDEST PUSH0 DUP2 CALLDATALOAD SWAP1 POP PUSH2 0x3D1 DUP2 PUSH2 0x3AD JUMP JUMPDEST SWAP3 SWAP2 POP POP JUMP JUMPDEST PUSH0 DUP1 PUSH1 0x40 DUP4 DUP6 SUB SLT ISZERO PUSH2 0x3ED JUMPI PUSH2 0x3EC PUSH2 0x37F JUMP JUMPDEST JUMPDEST PUSH0 PUSH2 0x3FA DUP6 DUP3 DUP7 ADD PUSH2 0x399 JUMP JUMPDEST SWAP3 POP POP PUSH1 0x20 PUSH2 0x40B DUP6 DUP3 DUP7 ADD PUSH2 0x3C3 JUMP JUMPDEST SWAP2 POP POP SWAP3 POP SWAP3 SWAP1 POP JUMP JUMPDEST PUSH0 DUP3 DUP3 MSTORE PUSH1 0x20 DUP3 ADD SWAP1 POP SWAP3 SWAP2 POP POP JUMP JUMPDEST PUSH32 0x416D6F756E74206D7573742062652067726561746572207468616E2030000000 PUSH0 DUP3 ADD MSTORE POP JUMP JUMPDEST PUSH0 PUSH2 0x459 PUSH1 0x1D DUP4 PUSH2 0x415 JUMP JUMPDEST SWAP2 POP PUSH2 0x464 DUP3 PUSH2 0x425 JUMP JUMPDEST PUSH1 0x20 DUP3 ADD SWAP1 POP SWAP2 SWAP1 POP JUMP JUMPDEST PUSH0 PUSH1 0x20 DUP3 ADD SWAP1 POP DUP2 DUP2 SUB PUSH0 DUP4 ADD MSTORE PUSH2 0x486 DUP2 PUSH2 0x44D JUMP JUMPDEST SWAP1 POP SWAP2 SWAP1 POP JUMP JUMPDEST PUSH32 0x496E76616C696420746F6B656E00000000000000000000000000000000000000 PUSH0 DUP3 ADD MSTORE POP JUMP JUMPDEST PUSH0 PUSH2 0x4C1 PUSH1 0xD DUP4 PUSH2 0x415 JUMP JUMPDEST SWAP2 POP PUSH2 0x4CC DUP3 PUSH2 0x48D JUMP JUMPDEST PUSH1 0x20 DUP3 ADD SWAP1 POP SWAP2 SWAP1 POP JUMP JUMPDEST PUSH0 PUSH1 0x20 DUP3 ADD SWAP1 POP DUP2 DUP2 SUB PUSH0 DUP4 ADD MSTORE PUSH2 0x4EE DUP2 PUSH2 0x4B5 JUMP JUMPDEST SWAP1 POP SWAP2 SWAP1 POP JUMP JUMPDEST PUSH32 0x4E487B7100000000000000000000000000000000000000000000000000000000 PUSH0 MSTORE PUSH1 0x11 PUSH1 0x4 MSTORE PUSH1 0x24 PUSH0 REVERT JUMPDEST PUSH0 PUSH2 0x52C DUP3 PUSH2 0x2F6 JUMP JUMPDEST SWAP2 POP PUSH2 0x537 DUP4 PUSH2 0x2F6 JUMP JUMPDEST SWAP3 POP DUP3 DUP3 ADD SWAP1 POP DUP1 DUP3 GT ISZERO PUSH2 0x54F JUMPI PUSH2 0x54E PUSH2 0x4F5 JUMP JUMPDEST JUMPDEST SWAP3 SWAP2 POP POP JUMP JUMPDEST PUSH32 0x4E487B7100000000000000000000000000000000000000000000000000000000 PUSH0 MSTORE PUSH1 0x12 PUSH1 0x4 MSTORE PUSH1 0x24 PUSH0 REVERT JUMPDEST PUSH0 PUSH2 0x58C DUP3 PUSH2 0x2F6 JUMP JUMPDEST SWAP2 POP PUSH2 0x597 DUP4 PUSH2 0x2F6 JUMP JUMPDEST SWAP3 POP DUP3 PUSH2 0x5A7 JUMPI PUSH2 0x5A6 PUSH2 0x555 JUMP JUMPDEST JUMPDEST DUP3 DUP3 DIV SWAP1 POP SWAP3 SWAP2 POP POP JUMP JUMPDEST PUSH0 PUSH2 0x5BC DUP3 PUSH2 0x2F6 JUMP JUMPDEST SWAP2 POP PUSH2 0x5C7 DUP4 PUSH2 0x2F6 JUMP JUMPDEST SWAP3 POP DUP3 DUP3 SUB SWAP1 POP DUP2 DUP2 GT ISZERO PUSH2 0x5DF JUMPI PUSH2 0x5DE PUSH2 0x4F5 JUMP JUMPDEST JUMPDEST SWAP3 SWAP2 POP POP JUMP INVALID LOG2 PUSH5 0x6970667358 0x22 SLT KECCAK256 CALLDATASIZE PUSH16 0x48AA768C8AA9E69E86EFC3F4D7F29548 LOG1 0xB7 0xF6 0xC6 0x4F 0xD PUSH31 0x36A5824353193D64736F6C634300081A003300000000000000000000000000 "
				},
				"gasEstimates": {
					"creation": {
						"codeDepositCost": "312600",
						"executionCost": "infinite",
						"totalCost": "infinite"
					},
					"external": {
						"constantProduct()": "2447",
						"getPrice()": "infinite",
						"getReserves()": "infinite",
						"reserveA()": "2490",
						"reserveB()": "2470",
						"swap(uint256,bytes32)": "infinite",
						"tokenA()": "2448",
						"tokenB()": "2425"
					}
				},
				"methodIdentifiers": {
					"constantProduct()": "60641e59",
					"getPrice()": "98d5fdca",
					"getReserves()": "0902f1ac",
					"reserveA()": "dc5fa6c5",
					"reserveB()": "19e36f3b",
					"swap(uint256,bytes32)": "43dbf2a9",
					"tokenA()": "0fc63d10",
					"tokenB()": "5f64b55b"
				}
			},
			"storageLayout": {
				"storage": [
					{
						"astId": 3,
						"contract": "contracts/8_SimpleAMM.sol:SimpleAMM",
						"label": "reserveA",
						"offset": 0,
						"slot": "0",
						"type": "t_uint256"
					},
					{
						"astId": 5,
						"contract": "contracts/8_SimpleAMM.sol:SimpleAMM",
						"label": "reserveB",
						"offset": 0,
						"slot": "1",
						"type": "t_uint256"
					},
					{
						"astId": 7,
						"contract": "contracts/8_SimpleAMM.sol:SimpleAMM",
						"label": "constantProduct",
						"offset": 0,
						"slot": "2",
						"type": "t_uint256"
					},
					{
						"astId": 9,
						"contract": "contracts/8_SimpleAMM.sol:SimpleAMM",
						"label": "tokenA",
						"offset": 0,
						"slot": "3",
						"type": "t_bytes32"
					},
					{
						"astId": 11,
						"contract": "contracts/8_SimpleAMM.sol:SimpleAMM",
						"label": "tokenB",
						"offset": 0,
						"slot": "4",
						"type": "t_bytes32"
					}
				],
				"types": {
					"t_bytes32": {
						"encoding": "inplace",
						"label": "bytes32",
						"numberOfBytes": "32"
					},
					"t_uint256": {
						"encoding": "inplace",
						"label": "uint256",
						"numberOfBytes": "32"
					}
				}
			},
			"userdoc": {
				"kind": "user",
				"methods": {},
				"version": 1
			}
		}
	}
}