{
	"contracts/8_SimpleAMM.sol": {
		"SimpleAMM": {
			"abi": [
				{
					"inputs": [
						{
							"internalType": "string",
							"name": "_tokenA",
							"type": "string"
						},
						{
							"internalType": "string",
							"name": "_tokenB",
							"type": "string"
						},
						{
							"internalType": "uint256",
							"name": "_reserveA",
							"type": "uint256"
						},
						{
							"internalType": "uint256",
							"name": "_reserveB",
							"type": "uint256"
						}
					],
					"stateMutability": "nonpayable",
					"type": "constructor"
				},
				{
					"anonymous": false,
					"inputs": [
						{
							"indexed": true,
							"internalType": "address",
							"name": "user",
							"type": "address"
						},
						{
							"indexed": false,
							"internalType": "string",
							"name": "inputToken",
							"type": "string"
						},
						{
							"indexed": false,
							"internalType": "uint256",
							"name": "amountIn",
							"type": "uint256"
						},
						{
							"indexed": false,
							"internalType": "uint256",
							"name": "amountOut",
							"type": "uint256"
						}
					],
					"name": "Swap",
					"type": "event"
				},
				{
					"inputs": [],
					"name": "constantProduct",
					"outputs": [
						{
							"internalType": "uint256",
							"name": "",
							"type": "uint256"
						}
					],
					"stateMutability": "view",
					"type": "function"
				},
				{
					"inputs": [],
					"name": "getPrice",
					"outputs": [
						{
							"internalType": "uint256",
							"name": "",
							"type": "uint256"
						}
					],
					"stateMutability": "view",
					"type": "function"
				},
				{
					"inputs": [],
					"name": "getReserves",
					"outputs": [
						{
							"internalType": "uint256",
							"name": "",
							"type": "uint256"
						},
						{
							"internalType": "uint256",
							"name": "",
							"type": "uint256"
						}
					],
					"stateMutability": "view",
					"type": "function"
				},
				{
					"inputs": [],
					"name": "hashA",
					"outputs": [
						{
							"internalType": "bytes32",
							"name": "",
							"type": "bytes32"
						}
					],
					"stateMutability": "view",
					"type": "function"
				},
				{
					"inputs": [],
					"name": "hashB",
					"outputs": [
						{
							"internalType": "bytes32",
							"name": "",
							"type": "bytes32"
						}
					],
					"stateMutability": "view",
					"type": "function"
				},
				{
					"inputs": [],
					"name": "reserveA",
					"outputs": [
						{
							"internalType": "uint256",
							"name": "",
							"type": "uint256"
						}
					],
					"stateMutability": "view",
					"type": "function"
				},
				{
					"inputs": [],
					"name": "reserveB",
					"outputs": [
						{
							"internalType": "uint256",
							"name": "",
							"type": "uint256"
						}
					],
					"stateMutability": "view",
					"type": "function"
				},
				{
					"inputs": [
						{
							"internalType": "uint256",
							"name": "amountIn",
							"type": "uint256"
						},
						{
							"internalType": "string",
							"name": "inputToken",
							"type": "string"
						}
					],
					"name": "swap",
					"outputs": [
						{
							"internalType": "uint256",
							"name": "amountOut",
							"type": "uint256"
						}
					],
					"stateMutability": "nonpayable",
					"type": "function"
				}
			],
			"devdoc": {
				"kind": "dev",
				"methods": {},
				"version": 1
			},
			"evm": {
				"assembly": "    /* \"contracts/8_SimpleAMM.sol\":61:1841  contract SimpleAMM {... */\n  mstore(0x40, 0x80)\n    /* \"contracts/8_SimpleAMM.sol\":339:738  constructor(string memory  _tokenA, string memory _tokenB, uint256  _reserveA, uint256  _reserveB) {... */\n  callvalue\n  dup1\n  iszero\n  tag_1\n  jumpi\n  0x00\n  dup1\n  revert\ntag_1:\n  pop\n  mload(0x40)\n  sub(codesize, bytecodeSize)\n  dup1\n  bytecodeSize\n  dup4\n  codecopy\n  dup2\n  dup2\n  add\n  0x40\n  mstore\n  dup2\n  add\n  swap1\n  tag_2\n  swap2\n  swap1\n  tag_3\n  jump\t// in\ntag_2:\n    /* \"contracts/8_SimpleAMM.sol\":469:470  0 */\n  0x00\n    /* \"contracts/8_SimpleAMM.sol\":457:466  _reserveA */\n  dup3\n    /* \"contracts/8_SimpleAMM.sol\":457:470  _reserveA > 0 */\n  gt\n    /* \"contracts/8_SimpleAMM.sol\":457:487  _reserveA > 0 && _reserveB > 0 */\n  dup1\n  iszero\n  tag_6\n  jumpi\n  pop\n    /* \"contracts/8_SimpleAMM.sol\":486:487  0 */\n  0x00\n    /* \"contracts/8_SimpleAMM.sol\":474:483  _reserveB */\n  dup2\n    /* \"contracts/8_SimpleAMM.sol\":474:487  _reserveB > 0 */\n  gt\n    /* \"contracts/8_SimpleAMM.sol\":457:487  _reserveA > 0 && _reserveB > 0 */\ntag_6:\n    /* \"contracts/8_SimpleAMM.sol\":449:508  require(_reserveA > 0 && _reserveB > 0, \"invalid reserves\") */\n  tag_7\n  jumpi\n  mload(0x40)\n  0x08c379a000000000000000000000000000000000000000000000000000000000\n  dup2\n  mstore\n  0x04\n  add\n  tag_8\n  swap1\n  tag_9\n  jump\t// in\ntag_8:\n  mload(0x40)\n  dup1\n  swap2\n  sub\n  swap1\n  revert\ntag_7:\n    /* \"contracts/8_SimpleAMM.sol\":554:561  _tokenA */\n  dup4\n    /* \"contracts/8_SimpleAMM.sol\":537:562  abi.encodePacked(_tokenA) */\n  add(0x20, mload(0x40))\n  tag_10\n  swap2\n  swap1\n  tag_11\n  jump\t// in\ntag_10:\n  mload(0x40)\n  0x20\n  dup2\n  dup4\n  sub\n  sub\n  dup2\n  mstore\n  swap1\n  0x40\n  mstore\n    /* \"contracts/8_SimpleAMM.sol\":527:563  keccak256(abi.encodePacked(_tokenA)) */\n  dup1\n  mload\n  swap1\n  0x20\n  add\n  keccak256\n    /* \"contracts/8_SimpleAMM.sol\":519:524  hashA */\n  0x03\n    /* \"contracts/8_SimpleAMM.sol\":519:563  hashA = keccak256(abi.encodePacked(_tokenA)) */\n  dup2\n  swap1\n  sstore\n  pop\n    /* \"contracts/8_SimpleAMM.sol\":609:616  _tokenB */\n  dup3\n    /* \"contracts/8_SimpleAMM.sol\":592:617  abi.encodePacked(_tokenB) */\n  add(0x20, mload(0x40))\n  tag_12\n  swap2\n  swap1\n  tag_11\n  jump\t// in\ntag_12:\n  mload(0x40)\n  0x20\n  dup2\n  dup4\n  sub\n  sub\n  dup2\n  mstore\n  swap1\n  0x40\n  mstore\n    /* \"contracts/8_SimpleAMM.sol\":582:618  keccak256(abi.encodePacked(_tokenB)) */\n  dup1\n  mload\n  swap1\n  0x20\n  add\n  keccak256\n    /* \"contracts/8_SimpleAMM.sol\":574:579  hashB */\n  0x04\n    /* \"contracts/8_SimpleAMM.sol\":574:618  hashB = keccak256(abi.encodePacked(_tokenB)) */\n  dup2\n  swap1\n  sstore\n  pop\n    /* \"contracts/8_SimpleAMM.sol\":640:649  _reserveA */\n  dup2\n    /* \"contracts/8_SimpleAMM.sol\":629:637  reserveA */\n  0x00\n    /* \"contracts/8_SimpleAMM.sol\":629:649  reserveA = _reserveA */\n  dup2\n  swap1\n  sstore\n  pop\n    /* \"contracts/8_SimpleAMM.sol\":671:680  _reserveB */\n  dup1\n    /* \"contracts/8_SimpleAMM.sol\":660:668  reserveB */\n  0x01\n    /* \"contracts/8_SimpleAMM.sol\":660:680  reserveB = _reserveB */\n  dup2\n  swap1\n  sstore\n  pop\n    /* \"contracts/8_SimpleAMM.sol\":721:730  _reserveB */\n  dup1\n    /* \"contracts/8_SimpleAMM.sol\":709:718  _reserveA */\n  dup3\n    /* \"contracts/8_SimpleAMM.sol\":709:730  _reserveA * _reserveB */\n  tag_13\n  swap2\n  swap1\n  tag_14\n  jump\t// in\ntag_13:\n    /* \"contracts/8_SimpleAMM.sol\":691:706  constantProduct */\n  0x02\n    /* \"contracts/8_SimpleAMM.sol\":691:730  constantProduct = _reserveA * _reserveB */\n  dup2\n  swap1\n  sstore\n  pop\n    /* \"contracts/8_SimpleAMM.sol\":339:738  constructor(string memory  _tokenA, string memory _tokenB, uint256  _reserveA, uint256  _reserveB) {... */\n  pop\n  pop\n  pop\n  pop\n    /* \"contracts/8_SimpleAMM.sol\":61:1841  contract SimpleAMM {... */\n  jump(tag_15)\n    /* \"#utility.yul\":7:82   */\ntag_16:\n    /* \"#utility.yul\":40:46   */\n  0x00\n    /* \"#utility.yul\":73:75   */\n  0x40\n    /* \"#utility.yul\":67:76   */\n  mload\n    /* \"#utility.yul\":57:76   */\n  swap1\n  pop\n    /* \"#utility.yul\":7:82   */\n  swap1\n  jump\t// out\n    /* \"#utility.yul\":88:205   */\ntag_17:\n    /* \"#utility.yul\":197:198   */\n  0x00\n    /* \"#utility.yul\":194:195   */\n  dup1\n    /* \"#utility.yul\":187:199   */\n  revert\n    /* \"#utility.yul\":211:328   */\ntag_18:\n    /* \"#utility.yul\":320:321   */\n  0x00\n    /* \"#utility.yul\":317:318   */\n  dup1\n    /* \"#utility.yul\":310:322   */\n  revert\n    /* \"#utility.yul\":334:451   */\ntag_19:\n    /* \"#utility.yul\":443:444   */\n  0x00\n    /* \"#utility.yul\":440:441   */\n  dup1\n    /* \"#utility.yul\":433:445   */\n  revert\n    /* \"#utility.yul\":457:574   */\ntag_20:\n    /* \"#utility.yul\":566:567   */\n  0x00\n    /* \"#utility.yul\":563:564   */\n  dup1\n    /* \"#utility.yul\":556:568   */\n  revert\n    /* \"#utility.yul\":580:682   */\ntag_21:\n    /* \"#utility.yul\":621:627   */\n  0x00\n    /* \"#utility.yul\":672:674   */\n  0x1f\n    /* \"#utility.yul\":668:675   */\n  not\n    /* \"#utility.yul\":663:665   */\n  0x1f\n    /* \"#utility.yul\":656:661   */\n  dup4\n    /* \"#utility.yul\":652:666   */\n  add\n    /* \"#utility.yul\":648:676   */\n  and\n    /* \"#utility.yul\":638:676   */\n  swap1\n  pop\n    /* \"#utility.yul\":580:682   */\n  swap2\n  swap1\n  pop\n  jump\t// out\n    /* \"#utility.yul\":688:868   */\ntag_22:\n    /* \"#utility.yul\":736:813   */\n  0x4e487b7100000000000000000000000000000000000000000000000000000000\n    /* \"#utility.yul\":733:734   */\n  0x00\n    /* \"#utility.yul\":726:814   */\n  mstore\n    /* \"#utility.yul\":833:837   */\n  0x41\n    /* \"#utility.yul\":830:831   */\n  0x04\n    /* \"#utility.yul\":823:838   */\n  mstore\n    /* \"#utility.yul\":857:861   */\n  0x24\n    /* \"#utility.yul\":854:855   */\n  0x00\n    /* \"#utility.yul\":847:862   */\n  revert\n    /* \"#utility.yul\":874:1155   */\ntag_23:\n    /* \"#utility.yul\":957:984   */\n  tag_48\n    /* \"#utility.yul\":979:983   */\n  dup3\n    /* \"#utility.yul\":957:984   */\n  tag_21\n  jump\t// in\ntag_48:\n    /* \"#utility.yul\":949:955   */\n  dup2\n    /* \"#utility.yul\":945:985   */\n  add\n    /* \"#utility.yul\":1087:1093   */\n  dup2\n    /* \"#utility.yul\":1075:1085   */\n  dup2\n    /* \"#utility.yul\":1072:1094   */\n  lt\n    /* \"#utility.yul\":1051:1069   */\n  0xffffffffffffffff\n    /* \"#utility.yul\":1039:1049   */\n  dup3\n    /* \"#utility.yul\":1036:1070   */\n  gt\n    /* \"#utility.yul\":1033:1095   */\n  or\n    /* \"#utility.yul\":1030:1118   */\n  iszero\n  tag_49\n  jumpi\n    /* \"#utility.yul\":1098:1116   */\n  tag_50\n  tag_22\n  jump\t// in\ntag_50:\n    /* \"#utility.yul\":1030:1118   */\ntag_49:\n    /* \"#utility.yul\":1138:1148   */\n  dup1\n    /* \"#utility.yul\":1134:1136   */\n  0x40\n    /* \"#utility.yul\":1127:1149   */\n  mstore\n    /* \"#utility.yul\":917:1155   */\n  pop\n    /* \"#utility.yul\":874:1155   */\n  pop\n  pop\n  jump\t// out\n    /* \"#utility.yul\":1161:1290   */\ntag_24:\n    /* \"#utility.yul\":1195:1201   */\n  0x00\n    /* \"#utility.yul\":1222:1242   */\n  tag_52\n  tag_16\n  jump\t// in\ntag_52:\n    /* \"#utility.yul\":1212:1242   */\n  swap1\n  pop\n    /* \"#utility.yul\":1251:1284   */\n  tag_53\n    /* \"#utility.yul\":1279:1283   */\n  dup3\n    /* \"#utility.yul\":1271:1277   */\n  dup3\n    /* \"#utility.yul\":1251:1284   */\n  tag_23\n  jump\t// in\ntag_53:\n    /* \"#utility.yul\":1161:1290   */\n  swap2\n  swap1\n  pop\n  jump\t// out\n    /* \"#utility.yul\":1296:1604   */\ntag_25:\n    /* \"#utility.yul\":1358:1362   */\n  0x00\n    /* \"#utility.yul\":1448:1466   */\n  0xffffffffffffffff\n    /* \"#utility.yul\":1440:1446   */\n  dup3\n    /* \"#utility.yul\":1437:1467   */\n  gt\n    /* \"#utility.yul\":1434:1490   */\n  iszero\n  tag_55\n  jumpi\n    /* \"#utility.yul\":1470:1488   */\n  tag_56\n  tag_22\n  jump\t// in\ntag_56:\n    /* \"#utility.yul\":1434:1490   */\ntag_55:\n    /* \"#utility.yul\":1508:1537   */\n  tag_57\n    /* \"#utility.yul\":1530:1536   */\n  dup3\n    /* \"#utility.yul\":1508:1537   */\n  tag_21\n  jump\t// in\ntag_57:\n    /* \"#utility.yul\":1500:1537   */\n  swap1\n  pop\n    /* \"#utility.yul\":1592:1596   */\n  0x20\n    /* \"#utility.yul\":1586:1590   */\n  dup2\n    /* \"#utility.yul\":1582:1597   */\n  add\n    /* \"#utility.yul\":1574:1597   */\n  swap1\n  pop\n    /* \"#utility.yul\":1296:1604   */\n  swap2\n  swap1\n  pop\n  jump\t// out\n    /* \"#utility.yul\":1610:1749   */\ntag_26:\n    /* \"#utility.yul\":1699:1705   */\n  dup3\n    /* \"#utility.yul\":1694:1697   */\n  dup2\n    /* \"#utility.yul\":1689:1692   */\n  dup4\n    /* \"#utility.yul\":1683:1706   */\n  mcopy\n    /* \"#utility.yul\":1740:1741   */\n  0x00\n    /* \"#utility.yul\":1731:1737   */\n  dup4\n    /* \"#utility.yul\":1726:1729   */\n  dup4\n    /* \"#utility.yul\":1722:1738   */\n  add\n    /* \"#utility.yul\":1715:1742   */\n  mstore\n    /* \"#utility.yul\":1610:1749   */\n  pop\n  pop\n  pop\n  jump\t// out\n    /* \"#utility.yul\":1755:2189   */\ntag_27:\n    /* \"#utility.yul\":1844:1849   */\n  0x00\n    /* \"#utility.yul\":1869:1935   */\n  tag_60\n    /* \"#utility.yul\":1885:1934   */\n  tag_61\n    /* \"#utility.yul\":1927:1933   */\n  dup5\n    /* \"#utility.yul\":1885:1934   */\n  tag_25\n  jump\t// in\ntag_61:\n    /* \"#utility.yul\":1869:1935   */\n  tag_24\n  jump\t// in\ntag_60:\n    /* \"#utility.yul\":1860:1935   */\n  swap1\n  pop\n    /* \"#utility.yul\":1958:1964   */\n  dup3\n    /* \"#utility.yul\":1951:1956   */\n  dup2\n    /* \"#utility.yul\":1944:1965   */\n  mstore\n    /* \"#utility.yul\":1996:2000   */\n  0x20\n    /* \"#utility.yul\":1989:1994   */\n  dup2\n    /* \"#utility.yul\":1985:2001   */\n  add\n    /* \"#utility.yul\":2034:2037   */\n  dup5\n    /* \"#utility.yul\":2025:2031   */\n  dup5\n    /* \"#utility.yul\":2020:2023   */\n  dup5\n    /* \"#utility.yul\":2016:2032   */\n  add\n    /* \"#utility.yul\":2013:2038   */\n  gt\n    /* \"#utility.yul\":2010:2122   */\n  iszero\n  tag_62\n  jumpi\n    /* \"#utility.yul\":2041:2120   */\n  tag_63\n  tag_20\n  jump\t// in\ntag_63:\n    /* \"#utility.yul\":2010:2122   */\ntag_62:\n    /* \"#utility.yul\":2131:2183   */\n  tag_64\n    /* \"#utility.yul\":2176:2182   */\n  dup5\n    /* \"#utility.yul\":2171:2174   */\n  dup3\n    /* \"#utility.yul\":2166:2169   */\n  dup6\n    /* \"#utility.yul\":2131:2183   */\n  tag_26\n  jump\t// in\ntag_64:\n    /* \"#utility.yul\":1850:2189   */\n  pop\n    /* \"#utility.yul\":1755:2189   */\n  swap4\n  swap3\n  pop\n  pop\n  pop\n  jump\t// out\n    /* \"#utility.yul\":2209:2564   */\ntag_28:\n    /* \"#utility.yul\":2276:2281   */\n  0x00\n    /* \"#utility.yul\":2325:2328   */\n  dup3\n    /* \"#utility.yul\":2318:2322   */\n  0x1f\n    /* \"#utility.yul\":2310:2316   */\n  dup4\n    /* \"#utility.yul\":2306:2323   */\n  add\n    /* \"#utility.yul\":2302:2329   */\n  slt\n    /* \"#utility.yul\":2292:2414   */\n  tag_66\n  jumpi\n    /* \"#utility.yul\":2333:2412   */\n  tag_67\n  tag_19\n  jump\t// in\ntag_67:\n    /* \"#utility.yul\":2292:2414   */\ntag_66:\n    /* \"#utility.yul\":2443:2449   */\n  dup2\n    /* \"#utility.yul\":2437:2450   */\n  mload\n    /* \"#utility.yul\":2468:2558   */\n  tag_68\n    /* \"#utility.yul\":2554:2557   */\n  dup5\n    /* \"#utility.yul\":2546:2552   */\n  dup3\n    /* \"#utility.yul\":2539:2543   */\n  0x20\n    /* \"#utility.yul\":2531:2537   */\n  dup7\n    /* \"#utility.yul\":2527:2544   */\n  add\n    /* \"#utility.yul\":2468:2558   */\n  tag_27\n  jump\t// in\ntag_68:\n    /* \"#utility.yul\":2459:2558   */\n  swap2\n  pop\n    /* \"#utility.yul\":2282:2564   */\n  pop\n    /* \"#utility.yul\":2209:2564   */\n  swap3\n  swap2\n  pop\n  pop\n  jump\t// out\n    /* \"#utility.yul\":2570:2647   */\ntag_29:\n    /* \"#utility.yul\":2607:2614   */\n  0x00\n    /* \"#utility.yul\":2636:2641   */\n  dup2\n    /* \"#utility.yul\":2625:2641   */\n  swap1\n  pop\n    /* \"#utility.yul\":2570:2647   */\n  swap2\n  swap1\n  pop\n  jump\t// out\n    /* \"#utility.yul\":2653:2775   */\ntag_30:\n    /* \"#utility.yul\":2726:2750   */\n  tag_71\n    /* \"#utility.yul\":2744:2749   */\n  dup2\n    /* \"#utility.yul\":2726:2750   */\n  tag_29\n  jump\t// in\ntag_71:\n    /* \"#utility.yul\":2719:2724   */\n  dup2\n    /* \"#utility.yul\":2716:2751   */\n  eq\n    /* \"#utility.yul\":2706:2769   */\n  tag_72\n  jumpi\n    /* \"#utility.yul\":2765:2766   */\n  0x00\n    /* \"#utility.yul\":2762:2763   */\n  dup1\n    /* \"#utility.yul\":2755:2767   */\n  revert\n    /* \"#utility.yul\":2706:2769   */\ntag_72:\n    /* \"#utility.yul\":2653:2775   */\n  pop\n  jump\t// out\n    /* \"#utility.yul\":2781:2924   */\ntag_31:\n    /* \"#utility.yul\":2838:2843   */\n  0x00\n    /* \"#utility.yul\":2869:2875   */\n  dup2\n    /* \"#utility.yul\":2863:2876   */\n  mload\n    /* \"#utility.yul\":2854:2876   */\n  swap1\n  pop\n    /* \"#utility.yul\":2885:2918   */\n  tag_74\n    /* \"#utility.yul\":2912:2917   */\n  dup2\n    /* \"#utility.yul\":2885:2918   */\n  tag_30\n  jump\t// in\ntag_74:\n    /* \"#utility.yul\":2781:2924   */\n  swap3\n  swap2\n  pop\n  pop\n  jump\t// out\n    /* \"#utility.yul\":2930:4096   */\ntag_3:\n    /* \"#utility.yul\":3047:3053   */\n  0x00\n    /* \"#utility.yul\":3055:3061   */\n  dup1\n    /* \"#utility.yul\":3063:3069   */\n  0x00\n    /* \"#utility.yul\":3071:3077   */\n  dup1\n    /* \"#utility.yul\":3120:3123   */\n  0x80\n    /* \"#utility.yul\":3108:3117   */\n  dup6\n    /* \"#utility.yul\":3099:3106   */\n  dup8\n    /* \"#utility.yul\":3095:3118   */\n  sub\n    /* \"#utility.yul\":3091:3124   */\n  slt\n    /* \"#utility.yul\":3088:3208   */\n  iszero\n  tag_76\n  jumpi\n    /* \"#utility.yul\":3127:3206   */\n  tag_77\n  tag_17\n  jump\t// in\ntag_77:\n    /* \"#utility.yul\":3088:3208   */\ntag_76:\n    /* \"#utility.yul\":3268:3269   */\n  0x00\n    /* \"#utility.yul\":3257:3266   */\n  dup6\n    /* \"#utility.yul\":3253:3270   */\n  add\n    /* \"#utility.yul\":3247:3271   */\n  mload\n    /* \"#utility.yul\":3298:3316   */\n  0xffffffffffffffff\n    /* \"#utility.yul\":3290:3296   */\n  dup2\n    /* \"#utility.yul\":3287:3317   */\n  gt\n    /* \"#utility.yul\":3284:3401   */\n  iszero\n  tag_78\n  jumpi\n    /* \"#utility.yul\":3320:3399   */\n  tag_79\n  tag_18\n  jump\t// in\ntag_79:\n    /* \"#utility.yul\":3284:3401   */\ntag_78:\n    /* \"#utility.yul\":3425:3499   */\n  tag_80\n    /* \"#utility.yul\":3491:3498   */\n  dup8\n    /* \"#utility.yul\":3482:3488   */\n  dup3\n    /* \"#utility.yul\":3471:3480   */\n  dup9\n    /* \"#utility.yul\":3467:3489   */\n  add\n    /* \"#utility.yul\":3425:3499   */\n  tag_28\n  jump\t// in\ntag_80:\n    /* \"#utility.yul\":3415:3499   */\n  swap5\n  pop\n    /* \"#utility.yul\":3218:3509   */\n  pop\n    /* \"#utility.yul\":3569:3571   */\n  0x20\n    /* \"#utility.yul\":3558:3567   */\n  dup6\n    /* \"#utility.yul\":3554:3572   */\n  add\n    /* \"#utility.yul\":3548:3573   */\n  mload\n    /* \"#utility.yul\":3600:3618   */\n  0xffffffffffffffff\n    /* \"#utility.yul\":3592:3598   */\n  dup2\n    /* \"#utility.yul\":3589:3619   */\n  gt\n    /* \"#utility.yul\":3586:3703   */\n  iszero\n  tag_81\n  jumpi\n    /* \"#utility.yul\":3622:3701   */\n  tag_82\n  tag_18\n  jump\t// in\ntag_82:\n    /* \"#utility.yul\":3586:3703   */\ntag_81:\n    /* \"#utility.yul\":3727:3801   */\n  tag_83\n    /* \"#utility.yul\":3793:3800   */\n  dup8\n    /* \"#utility.yul\":3784:3790   */\n  dup3\n    /* \"#utility.yul\":3773:3782   */\n  dup9\n    /* \"#utility.yul\":3769:3791   */\n  add\n    /* \"#utility.yul\":3727:3801   */\n  tag_28\n  jump\t// in\ntag_83:\n    /* \"#utility.yul\":3717:3801   */\n  swap4\n  pop\n    /* \"#utility.yul\":3519:3811   */\n  pop\n    /* \"#utility.yul\":3850:3852   */\n  0x40\n    /* \"#utility.yul\":3876:3940   */\n  tag_84\n    /* \"#utility.yul\":3932:3939   */\n  dup8\n    /* \"#utility.yul\":3923:3929   */\n  dup3\n    /* \"#utility.yul\":3912:3921   */\n  dup9\n    /* \"#utility.yul\":3908:3930   */\n  add\n    /* \"#utility.yul\":3876:3940   */\n  tag_31\n  jump\t// in\ntag_84:\n    /* \"#utility.yul\":3866:3940   */\n  swap3\n  pop\n    /* \"#utility.yul\":3821:3950   */\n  pop\n    /* \"#utility.yul\":3989:3991   */\n  0x60\n    /* \"#utility.yul\":4015:4079   */\n  tag_85\n    /* \"#utility.yul\":4071:4078   */\n  dup8\n    /* \"#utility.yul\":4062:4068   */\n  dup3\n    /* \"#utility.yul\":4051:4060   */\n  dup9\n    /* \"#utility.yul\":4047:4069   */\n  add\n    /* \"#utility.yul\":4015:4079   */\n  tag_31\n  jump\t// in\ntag_85:\n    /* \"#utility.yul\":4005:4079   */\n  swap2\n  pop\n    /* \"#utility.yul\":3960:4089   */\n  pop\n    /* \"#utility.yul\":2930:4096   */\n  swap3\n  swap6\n  swap2\n  swap5\n  pop\n  swap3\n  pop\n  jump\t// out\n    /* \"#utility.yul\":4102:4271   */\ntag_32:\n    /* \"#utility.yul\":4186:4197   */\n  0x00\n    /* \"#utility.yul\":4220:4226   */\n  dup3\n    /* \"#utility.yul\":4215:4218   */\n  dup3\n    /* \"#utility.yul\":4208:4227   */\n  mstore\n    /* \"#utility.yul\":4260:4264   */\n  0x20\n    /* \"#utility.yul\":4255:4258   */\n  dup3\n    /* \"#utility.yul\":4251:4265   */\n  add\n    /* \"#utility.yul\":4236:4265   */\n  swap1\n  pop\n    /* \"#utility.yul\":4102:4271   */\n  swap3\n  swap2\n  pop\n  pop\n  jump\t// out\n    /* \"#utility.yul\":4277:4443   */\ntag_33:\n    /* \"#utility.yul\":4417:4435   */\n  0x696e76616c696420726573657276657300000000000000000000000000000000\n    /* \"#utility.yul\":4413:4414   */\n  0x00\n    /* \"#utility.yul\":4405:4411   */\n  dup3\n    /* \"#utility.yul\":4401:4415   */\n  add\n    /* \"#utility.yul\":4394:4436   */\n  mstore\n    /* \"#utility.yul\":4277:4443   */\n  pop\n  jump\t// out\n    /* \"#utility.yul\":4449:4815   */\ntag_34:\n    /* \"#utility.yul\":4591:4594   */\n  0x00\n    /* \"#utility.yul\":4612:4679   */\n  tag_89\n    /* \"#utility.yul\":4676:4678   */\n  0x10\n    /* \"#utility.yul\":4671:4674   */\n  dup4\n    /* \"#utility.yul\":4612:4679   */\n  tag_32\n  jump\t// in\ntag_89:\n    /* \"#utility.yul\":4605:4679   */\n  swap2\n  pop\n    /* \"#utility.yul\":4688:4781   */\n  tag_90\n    /* \"#utility.yul\":4777:4780   */\n  dup3\n    /* \"#utility.yul\":4688:4781   */\n  tag_33\n  jump\t// in\ntag_90:\n    /* \"#utility.yul\":4806:4808   */\n  0x20\n    /* \"#utility.yul\":4801:4804   */\n  dup3\n    /* \"#utility.yul\":4797:4809   */\n  add\n    /* \"#utility.yul\":4790:4809   */\n  swap1\n  pop\n    /* \"#utility.yul\":4449:4815   */\n  swap2\n  swap1\n  pop\n  jump\t// out\n    /* \"#utility.yul\":4821:5240   */\ntag_9:\n    /* \"#utility.yul\":4987:4991   */\n  0x00\n    /* \"#utility.yul\":5025:5027   */\n  0x20\n    /* \"#utility.yul\":5014:5023   */\n  dup3\n    /* \"#utility.yul\":5010:5028   */\n  add\n    /* \"#utility.yul\":5002:5028   */\n  swap1\n  pop\n    /* \"#utility.yul\":5074:5083   */\n  dup2\n    /* \"#utility.yul\":5068:5072   */\n  dup2\n    /* \"#utility.yul\":5064:5084   */\n  sub\n    /* \"#utility.yul\":5060:5061   */\n  0x00\n    /* \"#utility.yul\":5049:5058   */\n  dup4\n    /* \"#utility.yul\":5045:5062   */\n  add\n    /* \"#utility.yul\":5038:5085   */\n  mstore\n    /* \"#utility.yul\":5102:5233   */\n  tag_92\n    /* \"#utility.yul\":5228:5232   */\n  dup2\n    /* \"#utility.yul\":5102:5233   */\n  tag_34\n  jump\t// in\ntag_92:\n    /* \"#utility.yul\":5094:5233   */\n  swap1\n  pop\n    /* \"#utility.yul\":4821:5240   */\n  swap2\n  swap1\n  pop\n  jump\t// out\n    /* \"#utility.yul\":5246:5345   */\ntag_35:\n    /* \"#utility.yul\":5298:5304   */\n  0x00\n    /* \"#utility.yul\":5332:5337   */\n  dup2\n    /* \"#utility.yul\":5326:5338   */\n  mload\n    /* \"#utility.yul\":5316:5338   */\n  swap1\n  pop\n    /* \"#utility.yul\":5246:5345   */\n  swap2\n  swap1\n  pop\n  jump\t// out\n    /* \"#utility.yul\":5351:5499   */\ntag_36:\n    /* \"#utility.yul\":5453:5464   */\n  0x00\n    /* \"#utility.yul\":5490:5493   */\n  dup2\n    /* \"#utility.yul\":5475:5493   */\n  swap1\n  pop\n    /* \"#utility.yul\":5351:5499   */\n  swap3\n  swap2\n  pop\n  pop\n  jump\t// out\n    /* \"#utility.yul\":5505:5895   */\ntag_37:\n    /* \"#utility.yul\":5611:5614   */\n  0x00\n    /* \"#utility.yul\":5639:5678   */\n  tag_96\n    /* \"#utility.yul\":5672:5677   */\n  dup3\n    /* \"#utility.yul\":5639:5678   */\n  tag_35\n  jump\t// in\ntag_96:\n    /* \"#utility.yul\":5694:5783   */\n  tag_97\n    /* \"#utility.yul\":5776:5782   */\n  dup2\n    /* \"#utility.yul\":5771:5774   */\n  dup6\n    /* \"#utility.yul\":5694:5783   */\n  tag_36\n  jump\t// in\ntag_97:\n    /* \"#utility.yul\":5687:5783   */\n  swap4\n  pop\n    /* \"#utility.yul\":5792:5857   */\n  tag_98\n    /* \"#utility.yul\":5850:5856   */\n  dup2\n    /* \"#utility.yul\":5845:5848   */\n  dup6\n    /* \"#utility.yul\":5838:5842   */\n  0x20\n    /* \"#utility.yul\":5831:5836   */\n  dup7\n    /* \"#utility.yul\":5827:5843   */\n  add\n    /* \"#utility.yul\":5792:5857   */\n  tag_26\n  jump\t// in\ntag_98:\n    /* \"#utility.yul\":5882:5888   */\n  dup1\n    /* \"#utility.yul\":5877:5880   */\n  dup5\n    /* \"#utility.yul\":5873:5889   */\n  add\n    /* \"#utility.yul\":5866:5889   */\n  swap2\n  pop\n    /* \"#utility.yul\":5615:5895   */\n  pop\n    /* \"#utility.yul\":5505:5895   */\n  swap3\n  swap2\n  pop\n  pop\n  jump\t// out\n    /* \"#utility.yul\":5901:6176   */\ntag_11:\n    /* \"#utility.yul\":6033:6036   */\n  0x00\n    /* \"#utility.yul\":6055:6150   */\n  tag_100\n    /* \"#utility.yul\":6146:6149   */\n  dup3\n    /* \"#utility.yul\":6137:6143   */\n  dup5\n    /* \"#utility.yul\":6055:6150   */\n  tag_37\n  jump\t// in\ntag_100:\n    /* \"#utility.yul\":6048:6150   */\n  swap2\n  pop\n    /* \"#utility.yul\":6167:6170   */\n  dup2\n    /* \"#utility.yul\":6160:6170   */\n  swap1\n  pop\n    /* \"#utility.yul\":5901:6176   */\n  swap3\n  swap2\n  pop\n  pop\n  jump\t// out\n    /* \"#utility.yul\":6182:6362   */\ntag_38:\n    /* \"#utility.yul\":6230:6307   */\n  0x4e487b7100000000000000000000000000000000000000000000000000000000\n    /* \"#utility.yul\":6227:6228   */\n  0x00\n    /* \"#utility.yul\":6220:6308   */\n  mstore\n    /* \"#utility.yul\":6327:6331   */\n  0x11\n    /* \"#utility.yul\":6324:6325   */\n  0x04\n    /* \"#utility.yul\":6317:6332   */\n  mstore\n    /* \"#utility.yul\":6351:6355   */\n  0x24\n    /* \"#utility.yul\":6348:6349   */\n  0x00\n    /* \"#utility.yul\":6341:6356   */\n  revert\n    /* \"#utility.yul\":6368:6778   */\ntag_14:\n    /* \"#utility.yul\":6408:6415   */\n  0x00\n    /* \"#utility.yul\":6431:6451   */\n  tag_103\n    /* \"#utility.yul\":6449:6450   */\n  dup3\n    /* \"#utility.yul\":6431:6451   */\n  tag_29\n  jump\t// in\ntag_103:\n    /* \"#utility.yul\":6426:6451   */\n  swap2\n  pop\n    /* \"#utility.yul\":6465:6485   */\n  tag_104\n    /* \"#utility.yul\":6483:6484   */\n  dup4\n    /* \"#utility.yul\":6465:6485   */\n  tag_29\n  jump\t// in\ntag_104:\n    /* \"#utility.yul\":6460:6485   */\n  swap3\n  pop\n    /* \"#utility.yul\":6520:6521   */\n  dup3\n    /* \"#utility.yul\":6517:6518   */\n  dup3\n    /* \"#utility.yul\":6513:6522   */\n  mul\n    /* \"#utility.yul\":6542:6572   */\n  tag_105\n    /* \"#utility.yul\":6560:6571   */\n  dup2\n    /* \"#utility.yul\":6542:6572   */\n  tag_29\n  jump\t// in\ntag_105:\n    /* \"#utility.yul\":6531:6572   */\n  swap2\n  pop\n    /* \"#utility.yul\":6721:6722   */\n  dup3\n    /* \"#utility.yul\":6712:6719   */\n  dup3\n    /* \"#utility.yul\":6708:6723   */\n  div\n    /* \"#utility.yul\":6705:6706   */\n  dup5\n    /* \"#utility.yul\":6702:6724   */\n  eq\n    /* \"#utility.yul\":6682:6683   */\n  dup4\n    /* \"#utility.yul\":6675:6684   */\n  iszero\n    /* \"#utility.yul\":6655:6738   */\n  or\n    /* \"#utility.yul\":6632:6771   */\n  tag_106\n  jumpi\n    /* \"#utility.yul\":6751:6769   */\n  tag_107\n  tag_38\n  jump\t// in\ntag_107:\n    /* \"#utility.yul\":6632:6771   */\ntag_106:\n    /* \"#utility.yul\":6416:6778   */\n  pop\n    /* \"#utility.yul\":6368:6778   */\n  swap3\n  swap2\n  pop\n  pop\n  jump\t// out\n    /* \"contracts/8_SimpleAMM.sol\":61:1841  contract SimpleAMM {... */\ntag_15:\n  dataSize(sub_0)\n  dup1\n  dataOffset(sub_0)\n  0x00\n  codecopy\n  0x00\n  return\nstop\n\nsub_0: assembly {\n        /* \"contracts/8_SimpleAMM.sol\":61:1841  contract SimpleAMM {... */\n      mstore(0x40, 0x80)\n      callvalue\n      dup1\n      iszero\n      tag_1\n      jumpi\n      0x00\n      dup1\n      revert\n    tag_1:\n      pop\n      jumpi(tag_2, lt(calldatasize, 0x04))\n      shr(0xe0, calldataload(0x00))\n      dup1\n      0x98d5fdca\n      gt\n      tag_11\n      jumpi\n      dup1\n      0x98d5fdca\n      eq\n      tag_7\n      jumpi\n      dup1\n      0xdc5fa6c5\n      eq\n      tag_8\n      jumpi\n      dup1\n      0xdeb4a6d2\n      eq\n      tag_9\n      jumpi\n      dup1\n      0xdf45d88e\n      eq\n      tag_10\n      jumpi\n      jump(tag_2)\n    tag_11:\n      dup1\n      0x0902f1ac\n      eq\n      tag_3\n      jumpi\n      dup1\n      0x19e36f3b\n      eq\n      tag_4\n      jumpi\n      dup1\n      0x518344ed\n      eq\n      tag_5\n      jumpi\n      dup1\n      0x60641e59\n      eq\n      tag_6\n      jumpi\n    tag_2:\n      0x00\n      dup1\n      revert\n        /* \"contracts/8_SimpleAMM.sol\":1730:1838  function getReserves() public view returns (uint256, uint256) {... */\n    tag_3:\n      tag_12\n      tag_13\n      jump\t// in\n    tag_12:\n      mload(0x40)\n      tag_14\n      swap3\n      swap2\n      swap1\n      tag_15\n      jump\t// in\n    tag_14:\n      mload(0x40)\n      dup1\n      swap2\n      sub\n      swap1\n      return\n        /* \"contracts/8_SimpleAMM.sol\":117:140  uint256 public reserveB */\n    tag_4:\n      tag_16\n      tag_17\n      jump\t// in\n    tag_16:\n      mload(0x40)\n      tag_18\n      swap2\n      swap1\n      tag_19\n      jump\t// in\n    tag_18:\n      mload(0x40)\n      dup1\n      swap2\n      sub\n      swap1\n      return\n        /* \"contracts/8_SimpleAMM.sol\":184:205  bytes32  public hashA */\n    tag_5:\n      tag_20\n      tag_21\n      jump\t// in\n    tag_20:\n      mload(0x40)\n      tag_22\n      swap2\n      swap1\n      tag_23\n      jump\t// in\n    tag_22:\n      mload(0x40)\n      dup1\n      swap2\n      sub\n      swap1\n      return\n        /* \"contracts/8_SimpleAMM.sol\":147:177  uint256 public constantProduct */\n    tag_6:\n      tag_24\n      tag_25\n      jump\t// in\n    tag_24:\n      mload(0x40)\n      tag_26\n      swap2\n      swap1\n      tag_19\n      jump\t// in\n    tag_26:\n      mload(0x40)\n      dup1\n      swap2\n      sub\n      swap1\n      return\n        /* \"contracts/8_SimpleAMM.sol\":1627:1722  function getPrice() public view returns (uint256) {... */\n    tag_7:\n      tag_27\n      tag_28\n      jump\t// in\n    tag_27:\n      mload(0x40)\n      tag_29\n      swap2\n      swap1\n      tag_19\n      jump\t// in\n    tag_29:\n      mload(0x40)\n      dup1\n      swap2\n      sub\n      swap1\n      return\n        /* \"contracts/8_SimpleAMM.sol\":87:110  uint256 public reserveA */\n    tag_8:\n      tag_30\n      tag_31\n      jump\t// in\n    tag_30:\n      mload(0x40)\n      tag_32\n      swap2\n      swap1\n      tag_19\n      jump\t// in\n    tag_32:\n      mload(0x40)\n      dup1\n      swap2\n      sub\n      swap1\n      return\n        /* \"contracts/8_SimpleAMM.sol\":746:1618  function swap(uint256 amountIn, string memory inputToken)  public returns (uint256 amountOut) {... */\n    tag_9:\n      tag_33\n      0x04\n      dup1\n      calldatasize\n      sub\n      dup2\n      add\n      swap1\n      tag_34\n      swap2\n      swap1\n      tag_35\n      jump\t// in\n    tag_34:\n      tag_36\n      jump\t// in\n    tag_33:\n      mload(0x40)\n      tag_37\n      swap2\n      swap1\n      tag_19\n      jump\t// in\n    tag_37:\n      mload(0x40)\n      dup1\n      swap2\n      sub\n      swap1\n      return\n        /* \"contracts/8_SimpleAMM.sol\":212:233  bytes32  public hashB */\n    tag_10:\n      tag_38\n      tag_39\n      jump\t// in\n    tag_38:\n      mload(0x40)\n      tag_40\n      swap2\n      swap1\n      tag_23\n      jump\t// in\n    tag_40:\n      mload(0x40)\n      dup1\n      swap2\n      sub\n      swap1\n      return\n        /* \"contracts/8_SimpleAMM.sol\":1730:1838  function getReserves() public view returns (uint256, uint256) {... */\n    tag_13:\n        /* \"contracts/8_SimpleAMM.sol\":1774:1781  uint256 */\n      0x00\n        /* \"contracts/8_SimpleAMM.sol\":1783:1790  uint256 */\n      dup1\n        /* \"contracts/8_SimpleAMM.sol\":1811:1819  reserveA */\n      sload(0x00)\n        /* \"contracts/8_SimpleAMM.sol\":1821:1829  reserveB */\n      sload(0x01)\n        /* \"contracts/8_SimpleAMM.sol\":1803:1830  return (reserveA, reserveB) */\n      swap2\n      pop\n      swap2\n      pop\n        /* \"contracts/8_SimpleAMM.sol\":1730:1838  function getReserves() public view returns (uint256, uint256) {... */\n      swap1\n      swap2\n      jump\t// out\n        /* \"contracts/8_SimpleAMM.sol\":117:140  uint256 public reserveB */\n    tag_17:\n      sload(0x01)\n      dup2\n      jump\t// out\n        /* \"contracts/8_SimpleAMM.sol\":184:205  bytes32  public hashA */\n    tag_21:\n      sload(0x03)\n      dup2\n      jump\t// out\n        /* \"contracts/8_SimpleAMM.sol\":147:177  uint256 public constantProduct */\n    tag_25:\n      sload(0x02)\n      dup2\n      jump\t// out\n        /* \"contracts/8_SimpleAMM.sol\":1627:1722  function getPrice() public view returns (uint256) {... */\n    tag_28:\n        /* \"contracts/8_SimpleAMM.sol\":1668:1675  uint256 */\n      0x00\n        /* \"contracts/8_SimpleAMM.sol\":1706:1714  reserveB */\n      sload(0x01)\n        /* \"contracts/8_SimpleAMM.sol\":1695:1703  reserveA */\n      sload(0x00)\n        /* \"contracts/8_SimpleAMM.sol\":1695:1714  reserveA / reserveB */\n      tag_43\n      swap2\n      swap1\n      tag_44\n      jump\t// in\n    tag_43:\n        /* \"contracts/8_SimpleAMM.sol\":1688:1714  return reserveA / reserveB */\n      swap1\n      pop\n        /* \"contracts/8_SimpleAMM.sol\":1627:1722  function getPrice() public view returns (uint256) {... */\n      swap1\n      jump\t// out\n        /* \"contracts/8_SimpleAMM.sol\":87:110  uint256 public reserveA */\n    tag_31:\n      sload(0x00)\n      dup2\n      jump\t// out\n        /* \"contracts/8_SimpleAMM.sol\":746:1618  function swap(uint256 amountIn, string memory inputToken)  public returns (uint256 amountOut) {... */\n    tag_36:\n        /* \"contracts/8_SimpleAMM.sol\":821:838  uint256 amountOut */\n      0x00\n        /* \"contracts/8_SimpleAMM.sol\":870:871  0 */\n      dup1\n        /* \"contracts/8_SimpleAMM.sol\":859:867  amountIn */\n      dup4\n        /* \"contracts/8_SimpleAMM.sol\":859:871  amountIn > 0 */\n      gt\n        /* \"contracts/8_SimpleAMM.sol\":851:905  require(amountIn > 0, \"Amount must be greater than 0\") */\n      tag_46\n      jumpi\n      mload(0x40)\n      0x08c379a000000000000000000000000000000000000000000000000000000000\n      dup2\n      mstore\n      0x04\n      add\n      tag_47\n      swap1\n      tag_48\n      jump\t// in\n    tag_47:\n      mload(0x40)\n      dup1\n      swap2\n      sub\n      swap1\n      revert\n    tag_46:\n        /* \"contracts/8_SimpleAMM.sol\":916:933  bytes32 tokenHash */\n      0x00\n        /* \"contracts/8_SimpleAMM.sol\":963:973  inputToken */\n      dup3\n        /* \"contracts/8_SimpleAMM.sol\":946:974  abi.encodePacked(inputToken) */\n      add(0x20, mload(0x40))\n      tag_49\n      swap2\n      swap1\n      tag_50\n      jump\t// in\n    tag_49:\n      mload(0x40)\n      0x20\n      dup2\n      dup4\n      sub\n      sub\n      dup2\n      mstore\n      swap1\n      0x40\n      mstore\n        /* \"contracts/8_SimpleAMM.sol\":936:975  keccak256(abi.encodePacked(inputToken)) */\n      dup1\n      mload\n      swap1\n      0x20\n      add\n      keccak256\n        /* \"contracts/8_SimpleAMM.sol\":916:975  bytes32 tokenHash = keccak256(abi.encodePacked(inputToken)) */\n      swap1\n      pop\n        /* \"contracts/8_SimpleAMM.sol\":1007:1012  hashA */\n      sload(0x03)\n        /* \"contracts/8_SimpleAMM.sol\":994:1003  tokenHash */\n      dup2\n        /* \"contracts/8_SimpleAMM.sol\":994:1012  tokenHash == hashA */\n      eq\n        /* \"contracts/8_SimpleAMM.sol\":994:1034  tokenHash == hashA || tokenHash == hashB */\n      dup1\n      tag_51\n      jumpi\n      pop\n        /* \"contracts/8_SimpleAMM.sol\":1029:1034  hashB */\n      sload(0x04)\n        /* \"contracts/8_SimpleAMM.sol\":1016:1025  tokenHash */\n      dup2\n        /* \"contracts/8_SimpleAMM.sol\":1016:1034  tokenHash == hashB */\n      eq\n        /* \"contracts/8_SimpleAMM.sol\":994:1034  tokenHash == hashA || tokenHash == hashB */\n    tag_51:\n        /* \"contracts/8_SimpleAMM.sol\":986:1052  require(tokenHash == hashA || tokenHash == hashB, \"Invalid token\") */\n      tag_52\n      jumpi\n      mload(0x40)\n      0x08c379a000000000000000000000000000000000000000000000000000000000\n      dup2\n      mstore\n      0x04\n      add\n      tag_53\n      swap1\n      tag_54\n      jump\t// in\n    tag_53:\n      mload(0x40)\n      dup1\n      swap2\n      sub\n      swap1\n      revert\n    tag_52:\n        /* \"contracts/8_SimpleAMM.sol\":1080:1085  hashA */\n      sload(0x03)\n        /* \"contracts/8_SimpleAMM.sol\":1067:1076  tokenHash */\n      dup2\n        /* \"contracts/8_SimpleAMM.sol\":1067:1085  tokenHash == hashA */\n      sub\n        /* \"contracts/8_SimpleAMM.sol\":1063:1611  if (tokenHash == hashA) {... */\n      tag_55\n      jumpi\n        /* \"contracts/8_SimpleAMM.sol\":1102:1121  uint256 newReserveA */\n      0x00\n        /* \"contracts/8_SimpleAMM.sol\":1135:1143  amountIn */\n      dup5\n        /* \"contracts/8_SimpleAMM.sol\":1124:1132  reserveA */\n      sload(0x00)\n        /* \"contracts/8_SimpleAMM.sol\":1124:1143  reserveA + amountIn */\n      tag_56\n      swap2\n      swap1\n      tag_57\n      jump\t// in\n    tag_56:\n        /* \"contracts/8_SimpleAMM.sol\":1102:1143  uint256 newReserveA = reserveA + amountIn */\n      swap1\n      pop\n        /* \"contracts/8_SimpleAMM.sol\":1158:1177  uint256 newReserveB */\n      0x00\n        /* \"contracts/8_SimpleAMM.sol\":1198:1209  newReserveA */\n      dup2\n        /* \"contracts/8_SimpleAMM.sol\":1180:1195  constantProduct */\n      sload(0x02)\n        /* \"contracts/8_SimpleAMM.sol\":1180:1209  constantProduct / newReserveA */\n      tag_58\n      swap2\n      swap1\n      tag_44\n      jump\t// in\n    tag_58:\n        /* \"contracts/8_SimpleAMM.sol\":1158:1209  uint256 newReserveB = constantProduct / newReserveA */\n      swap1\n      pop\n        /* \"contracts/8_SimpleAMM.sol\":1247:1258  newReserveB */\n      dup1\n        /* \"contracts/8_SimpleAMM.sol\":1236:1244  reserveB */\n      sload(0x01)\n        /* \"contracts/8_SimpleAMM.sol\":1236:1258  reserveB - newReserveB */\n      tag_59\n      swap2\n      swap1\n      tag_60\n      jump\t// in\n    tag_59:\n        /* \"contracts/8_SimpleAMM.sol\":1224:1258  amountOut = reserveB - newReserveB */\n      swap4\n      pop\n        /* \"contracts/8_SimpleAMM.sol\":1286:1297  newReserveA */\n      dup2\n        /* \"contracts/8_SimpleAMM.sol\":1275:1283  reserveA */\n      0x00\n        /* \"contracts/8_SimpleAMM.sol\":1275:1297  reserveA = newReserveA */\n      dup2\n      swap1\n      sstore\n      pop\n        /* \"contracts/8_SimpleAMM.sol\":1323:1334  newReserveB */\n      dup1\n        /* \"contracts/8_SimpleAMM.sol\":1312:1320  reserveB */\n      0x01\n        /* \"contracts/8_SimpleAMM.sol\":1312:1334  reserveB = newReserveB */\n      dup2\n      swap1\n      sstore\n      pop\n        /* \"contracts/8_SimpleAMM.sol\":1087:1346  {... */\n      pop\n      pop\n        /* \"contracts/8_SimpleAMM.sol\":1063:1611  if (tokenHash == hashA) {... */\n      jump(tag_61)\n    tag_55:\n        /* \"contracts/8_SimpleAMM.sol\":1367:1386  uint256 newReserveB */\n      0x00\n        /* \"contracts/8_SimpleAMM.sol\":1400:1408  amountIn */\n      dup5\n        /* \"contracts/8_SimpleAMM.sol\":1389:1397  reserveB */\n      sload(0x01)\n        /* \"contracts/8_SimpleAMM.sol\":1389:1408  reserveB + amountIn */\n      tag_62\n      swap2\n      swap1\n      tag_57\n      jump\t// in\n    tag_62:\n        /* \"contracts/8_SimpleAMM.sol\":1367:1408  uint256 newReserveB = reserveB + amountIn */\n      swap1\n      pop\n        /* \"contracts/8_SimpleAMM.sol\":1423:1442  uint256 newReserveA */\n      0x00\n        /* \"contracts/8_SimpleAMM.sol\":1463:1474  newReserveB */\n      dup2\n        /* \"contracts/8_SimpleAMM.sol\":1445:1460  constantProduct */\n      sload(0x02)\n        /* \"contracts/8_SimpleAMM.sol\":1445:1474  constantProduct / newReserveB */\n      tag_63\n      swap2\n      swap1\n      tag_44\n      jump\t// in\n    tag_63:\n        /* \"contracts/8_SimpleAMM.sol\":1423:1474  uint256 newReserveA = constantProduct / newReserveB */\n      swap1\n      pop\n        /* \"contracts/8_SimpleAMM.sol\":1512:1523  newReserveA */\n      dup1\n        /* \"contracts/8_SimpleAMM.sol\":1501:1509  reserveA */\n      sload(0x00)\n        /* \"contracts/8_SimpleAMM.sol\":1501:1523  reserveA - newReserveA */\n      tag_64\n      swap2\n      swap1\n      tag_60\n      jump\t// in\n    tag_64:\n        /* \"contracts/8_SimpleAMM.sol\":1489:1523  amountOut = reserveA - newReserveA */\n      swap4\n      pop\n        /* \"contracts/8_SimpleAMM.sol\":1551:1562  newReserveA */\n      dup1\n        /* \"contracts/8_SimpleAMM.sol\":1540:1548  reserveA */\n      0x00\n        /* \"contracts/8_SimpleAMM.sol\":1540:1562  reserveA = newReserveA */\n      dup2\n      swap1\n      sstore\n      pop\n        /* \"contracts/8_SimpleAMM.sol\":1588:1599  newReserveB */\n      dup2\n        /* \"contracts/8_SimpleAMM.sol\":1577:1585  reserveB */\n      0x01\n        /* \"contracts/8_SimpleAMM.sol\":1577:1599  reserveB = newReserveB */\n      dup2\n      swap1\n      sstore\n      pop\n        /* \"contracts/8_SimpleAMM.sol\":1352:1611  {... */\n      pop\n      pop\n        /* \"contracts/8_SimpleAMM.sol\":1063:1611  if (tokenHash == hashA) {... */\n    tag_61:\n        /* \"contracts/8_SimpleAMM.sol\":840:1618  {... */\n      pop\n        /* \"contracts/8_SimpleAMM.sol\":746:1618  function swap(uint256 amountIn, string memory inputToken)  public returns (uint256 amountOut) {... */\n      swap3\n      swap2\n      pop\n      pop\n      jump\t// out\n        /* \"contracts/8_SimpleAMM.sol\":212:233  bytes32  public hashB */\n    tag_39:\n      sload(0x04)\n      dup2\n      jump\t// out\n        /* \"#utility.yul\":7:84   */\n    tag_65:\n        /* \"#utility.yul\":44:51   */\n      0x00\n        /* \"#utility.yul\":73:78   */\n      dup2\n        /* \"#utility.yul\":62:78   */\n      swap1\n      pop\n        /* \"#utility.yul\":7:84   */\n      swap2\n      swap1\n      pop\n      jump\t// out\n        /* \"#utility.yul\":90:208   */\n    tag_66:\n        /* \"#utility.yul\":177:201   */\n      tag_98\n        /* \"#utility.yul\":195:200   */\n      dup2\n        /* \"#utility.yul\":177:201   */\n      tag_65\n      jump\t// in\n    tag_98:\n        /* \"#utility.yul\":172:175   */\n      dup3\n        /* \"#utility.yul\":165:202   */\n      mstore\n        /* \"#utility.yul\":90:208   */\n      pop\n      pop\n      jump\t// out\n        /* \"#utility.yul\":214:546   */\n    tag_15:\n        /* \"#utility.yul\":335:339   */\n      0x00\n        /* \"#utility.yul\":373:375   */\n      0x40\n        /* \"#utility.yul\":362:371   */\n      dup3\n        /* \"#utility.yul\":358:376   */\n      add\n        /* \"#utility.yul\":350:376   */\n      swap1\n      pop\n        /* \"#utility.yul\":386:457   */\n      tag_100\n        /* \"#utility.yul\":454:455   */\n      0x00\n        /* \"#utility.yul\":443:452   */\n      dup4\n        /* \"#utility.yul\":439:456   */\n      add\n        /* \"#utility.yul\":430:436   */\n      dup6\n        /* \"#utility.yul\":386:457   */\n      tag_66\n      jump\t// in\n    tag_100:\n        /* \"#utility.yul\":467:539   */\n      tag_101\n        /* \"#utility.yul\":535:537   */\n      0x20\n        /* \"#utility.yul\":524:533   */\n      dup4\n        /* \"#utility.yul\":520:538   */\n      add\n        /* \"#utility.yul\":511:517   */\n      dup5\n        /* \"#utility.yul\":467:539   */\n      tag_66\n      jump\t// in\n    tag_101:\n        /* \"#utility.yul\":214:546   */\n      swap4\n      swap3\n      pop\n      pop\n      pop\n      jump\t// out\n        /* \"#utility.yul\":552:774   */\n    tag_19:\n        /* \"#utility.yul\":645:649   */\n      0x00\n        /* \"#utility.yul\":683:685   */\n      0x20\n        /* \"#utility.yul\":672:681   */\n      dup3\n        /* \"#utility.yul\":668:686   */\n      add\n        /* \"#utility.yul\":660:686   */\n      swap1\n      pop\n        /* \"#utility.yul\":696:767   */\n      tag_103\n        /* \"#utility.yul\":764:765   */\n      0x00\n        /* \"#utility.yul\":753:762   */\n      dup4\n        /* \"#utility.yul\":749:766   */\n      add\n        /* \"#utility.yul\":740:746   */\n      dup5\n        /* \"#utility.yul\":696:767   */\n      tag_66\n      jump\t// in\n    tag_103:\n        /* \"#utility.yul\":552:774   */\n      swap3\n      swap2\n      pop\n      pop\n      jump\t// out\n        /* \"#utility.yul\":780:857   */\n    tag_67:\n        /* \"#utility.yul\":817:824   */\n      0x00\n        /* \"#utility.yul\":846:851   */\n      dup2\n        /* \"#utility.yul\":835:851   */\n      swap1\n      pop\n        /* \"#utility.yul\":780:857   */\n      swap2\n      swap1\n      pop\n      jump\t// out\n        /* \"#utility.yul\":863:981   */\n    tag_68:\n        /* \"#utility.yul\":950:974   */\n      tag_106\n        /* \"#utility.yul\":968:973   */\n      dup2\n        /* \"#utility.yul\":950:974   */\n      tag_67\n      jump\t// in\n    tag_106:\n        /* \"#utility.yul\":945:948   */\n      dup3\n        /* \"#utility.yul\":938:975   */\n      mstore\n        /* \"#utility.yul\":863:981   */\n      pop\n      pop\n      jump\t// out\n        /* \"#utility.yul\":987:1209   */\n    tag_23:\n        /* \"#utility.yul\":1080:1084   */\n      0x00\n        /* \"#utility.yul\":1118:1120   */\n      0x20\n        /* \"#utility.yul\":1107:1116   */\n      dup3\n        /* \"#utility.yul\":1103:1121   */\n      add\n        /* \"#utility.yul\":1095:1121   */\n      swap1\n      pop\n        /* \"#utility.yul\":1131:1202   */\n      tag_108\n        /* \"#utility.yul\":1199:1200   */\n      0x00\n        /* \"#utility.yul\":1188:1197   */\n      dup4\n        /* \"#utility.yul\":1184:1201   */\n      add\n        /* \"#utility.yul\":1175:1181   */\n      dup5\n        /* \"#utility.yul\":1131:1202   */\n      tag_68\n      jump\t// in\n    tag_108:\n        /* \"#utility.yul\":987:1209   */\n      swap3\n      swap2\n      pop\n      pop\n      jump\t// out\n        /* \"#utility.yul\":1215:1290   */\n    tag_69:\n        /* \"#utility.yul\":1248:1254   */\n      0x00\n        /* \"#utility.yul\":1281:1283   */\n      0x40\n        /* \"#utility.yul\":1275:1284   */\n      mload\n        /* \"#utility.yul\":1265:1284   */\n      swap1\n      pop\n        /* \"#utility.yul\":1215:1290   */\n      swap1\n      jump\t// out\n        /* \"#utility.yul\":1296:1413   */\n    tag_70:\n        /* \"#utility.yul\":1405:1406   */\n      0x00\n        /* \"#utility.yul\":1402:1403   */\n      dup1\n        /* \"#utility.yul\":1395:1407   */\n      revert\n        /* \"#utility.yul\":1419:1536   */\n    tag_71:\n        /* \"#utility.yul\":1528:1529   */\n      0x00\n        /* \"#utility.yul\":1525:1526   */\n      dup1\n        /* \"#utility.yul\":1518:1530   */\n      revert\n        /* \"#utility.yul\":1542:1664   */\n    tag_72:\n        /* \"#utility.yul\":1615:1639   */\n      tag_113\n        /* \"#utility.yul\":1633:1638   */\n      dup2\n        /* \"#utility.yul\":1615:1639   */\n      tag_65\n      jump\t// in\n    tag_113:\n        /* \"#utility.yul\":1608:1613   */\n      dup2\n        /* \"#utility.yul\":1605:1640   */\n      eq\n        /* \"#utility.yul\":1595:1658   */\n      tag_114\n      jumpi\n        /* \"#utility.yul\":1654:1655   */\n      0x00\n        /* \"#utility.yul\":1651:1652   */\n      dup1\n        /* \"#utility.yul\":1644:1656   */\n      revert\n        /* \"#utility.yul\":1595:1658   */\n    tag_114:\n        /* \"#utility.yul\":1542:1664   */\n      pop\n      jump\t// out\n        /* \"#utility.yul\":1670:1809   */\n    tag_73:\n        /* \"#utility.yul\":1716:1721   */\n      0x00\n        /* \"#utility.yul\":1754:1760   */\n      dup2\n        /* \"#utility.yul\":1741:1761   */\n      calldataload\n        /* \"#utility.yul\":1732:1761   */\n      swap1\n      pop\n        /* \"#utility.yul\":1770:1803   */\n      tag_116\n        /* \"#utility.yul\":1797:1802   */\n      dup2\n        /* \"#utility.yul\":1770:1803   */\n      tag_72\n      jump\t// in\n    tag_116:\n        /* \"#utility.yul\":1670:1809   */\n      swap3\n      swap2\n      pop\n      pop\n      jump\t// out\n        /* \"#utility.yul\":1815:1932   */\n    tag_74:\n        /* \"#utility.yul\":1924:1925   */\n      0x00\n        /* \"#utility.yul\":1921:1922   */\n      dup1\n        /* \"#utility.yul\":1914:1926   */\n      revert\n        /* \"#utility.yul\":1938:2055   */\n    tag_75:\n        /* \"#utility.yul\":2047:2048   */\n      0x00\n        /* \"#utility.yul\":2044:2045   */\n      dup1\n        /* \"#utility.yul\":2037:2049   */\n      revert\n        /* \"#utility.yul\":2061:2163   */\n    tag_76:\n        /* \"#utility.yul\":2102:2108   */\n      0x00\n        /* \"#utility.yul\":2153:2155   */\n      0x1f\n        /* \"#utility.yul\":2149:2156   */\n      not\n        /* \"#utility.yul\":2144:2146   */\n      0x1f\n        /* \"#utility.yul\":2137:2142   */\n      dup4\n        /* \"#utility.yul\":2133:2147   */\n      add\n        /* \"#utility.yul\":2129:2157   */\n      and\n        /* \"#utility.yul\":2119:2157   */\n      swap1\n      pop\n        /* \"#utility.yul\":2061:2163   */\n      swap2\n      swap1\n      pop\n      jump\t// out\n        /* \"#utility.yul\":2169:2349   */\n    tag_77:\n        /* \"#utility.yul\":2217:2294   */\n      0x4e487b7100000000000000000000000000000000000000000000000000000000\n        /* \"#utility.yul\":2214:2215   */\n      0x00\n        /* \"#utility.yul\":2207:2295   */\n      mstore\n        /* \"#utility.yul\":2314:2318   */\n      0x41\n        /* \"#utility.yul\":2311:2312   */\n      0x04\n        /* \"#utility.yul\":2304:2319   */\n      mstore\n        /* \"#utility.yul\":2338:2342   */\n      0x24\n        /* \"#utility.yul\":2335:2336   */\n      0x00\n        /* \"#utility.yul\":2328:2343   */\n      revert\n        /* \"#utility.yul\":2355:2636   */\n    tag_78:\n        /* \"#utility.yul\":2438:2465   */\n      tag_122\n        /* \"#utility.yul\":2460:2464   */\n      dup3\n        /* \"#utility.yul\":2438:2465   */\n      tag_76\n      jump\t// in\n    tag_122:\n        /* \"#utility.yul\":2430:2436   */\n      dup2\n        /* \"#utility.yul\":2426:2466   */\n      add\n        /* \"#utility.yul\":2568:2574   */\n      dup2\n        /* \"#utility.yul\":2556:2566   */\n      dup2\n        /* \"#utility.yul\":2553:2575   */\n      lt\n        /* \"#utility.yul\":2532:2550   */\n      0xffffffffffffffff\n        /* \"#utility.yul\":2520:2530   */\n      dup3\n        /* \"#utility.yul\":2517:2551   */\n      gt\n        /* \"#utility.yul\":2514:2576   */\n      or\n        /* \"#utility.yul\":2511:2599   */\n      iszero\n      tag_123\n      jumpi\n        /* \"#utility.yul\":2579:2597   */\n      tag_124\n      tag_77\n      jump\t// in\n    tag_124:\n        /* \"#utility.yul\":2511:2599   */\n    tag_123:\n        /* \"#utility.yul\":2619:2629   */\n      dup1\n        /* \"#utility.yul\":2615:2617   */\n      0x40\n        /* \"#utility.yul\":2608:2630   */\n      mstore\n        /* \"#utility.yul\":2398:2636   */\n      pop\n        /* \"#utility.yul\":2355:2636   */\n      pop\n      pop\n      jump\t// out\n        /* \"#utility.yul\":2642:2771   */\n    tag_79:\n        /* \"#utility.yul\":2676:2682   */\n      0x00\n        /* \"#utility.yul\":2703:2723   */\n      tag_126\n      tag_69\n      jump\t// in\n    tag_126:\n        /* \"#utility.yul\":2693:2723   */\n      swap1\n      pop\n        /* \"#utility.yul\":2732:2765   */\n      tag_127\n        /* \"#utility.yul\":2760:2764   */\n      dup3\n        /* \"#utility.yul\":2752:2758   */\n      dup3\n        /* \"#utility.yul\":2732:2765   */\n      tag_78\n      jump\t// in\n    tag_127:\n        /* \"#utility.yul\":2642:2771   */\n      swap2\n      swap1\n      pop\n      jump\t// out\n        /* \"#utility.yul\":2777:3085   */\n    tag_80:\n        /* \"#utility.yul\":2839:2843   */\n      0x00\n        /* \"#utility.yul\":2929:2947   */\n      0xffffffffffffffff\n        /* \"#utility.yul\":2921:2927   */\n      dup3\n        /* \"#utility.yul\":2918:2948   */\n      gt\n        /* \"#utility.yul\":2915:2971   */\n      iszero\n      tag_129\n      jumpi\n        /* \"#utility.yul\":2951:2969   */\n      tag_130\n      tag_77\n      jump\t// in\n    tag_130:\n        /* \"#utility.yul\":2915:2971   */\n    tag_129:\n        /* \"#utility.yul\":2989:3018   */\n      tag_131\n        /* \"#utility.yul\":3011:3017   */\n      dup3\n        /* \"#utility.yul\":2989:3018   */\n      tag_76\n      jump\t// in\n    tag_131:\n        /* \"#utility.yul\":2981:3018   */\n      swap1\n      pop\n        /* \"#utility.yul\":3073:3077   */\n      0x20\n        /* \"#utility.yul\":3067:3071   */\n      dup2\n        /* \"#utility.yul\":3063:3078   */\n      add\n        /* \"#utility.yul\":3055:3078   */\n      swap1\n      pop\n        /* \"#utility.yul\":2777:3085   */\n      swap2\n      swap1\n      pop\n      jump\t// out\n        /* \"#utility.yul\":3091:3239   */\n    tag_81:\n        /* \"#utility.yul\":3189:3195   */\n      dup3\n        /* \"#utility.yul\":3184:3187   */\n      dup2\n        /* \"#utility.yul\":3179:3182   */\n      dup4\n        /* \"#utility.yul\":3166:3196   */\n      calldatacopy\n        /* \"#utility.yul\":3230:3231   */\n      0x00\n        /* \"#utility.yul\":3221:3227   */\n      dup4\n        /* \"#utility.yul\":3216:3219   */\n      dup4\n        /* \"#utility.yul\":3212:3228   */\n      add\n        /* \"#utility.yul\":3205:3232   */\n      mstore\n        /* \"#utility.yul\":3091:3239   */\n      pop\n      pop\n      pop\n      jump\t// out\n        /* \"#utility.yul\":3245:3670   */\n    tag_82:\n        /* \"#utility.yul\":3323:3328   */\n      0x00\n        /* \"#utility.yul\":3348:3414   */\n      tag_134\n        /* \"#utility.yul\":3364:3413   */\n      tag_135\n        /* \"#utility.yul\":3406:3412   */\n      dup5\n        /* \"#utility.yul\":3364:3413   */\n      tag_80\n      jump\t// in\n    tag_135:\n        /* \"#utility.yul\":3348:3414   */\n      tag_79\n      jump\t// in\n    tag_134:\n        /* \"#utility.yul\":3339:3414   */\n      swap1\n      pop\n        /* \"#utility.yul\":3437:3443   */\n      dup3\n        /* \"#utility.yul\":3430:3435   */\n      dup2\n        /* \"#utility.yul\":3423:3444   */\n      mstore\n        /* \"#utility.yul\":3475:3479   */\n      0x20\n        /* \"#utility.yul\":3468:3473   */\n      dup2\n        /* \"#utility.yul\":3464:3480   */\n      add\n        /* \"#utility.yul\":3513:3516   */\n      dup5\n        /* \"#utility.yul\":3504:3510   */\n      dup5\n        /* \"#utility.yul\":3499:3502   */\n      dup5\n        /* \"#utility.yul\":3495:3511   */\n      add\n        /* \"#utility.yul\":3492:3517   */\n      gt\n        /* \"#utility.yul\":3489:3601   */\n      iszero\n      tag_136\n      jumpi\n        /* \"#utility.yul\":3520:3599   */\n      tag_137\n      tag_75\n      jump\t// in\n    tag_137:\n        /* \"#utility.yul\":3489:3601   */\n    tag_136:\n        /* \"#utility.yul\":3610:3664   */\n      tag_138\n        /* \"#utility.yul\":3657:3663   */\n      dup5\n        /* \"#utility.yul\":3652:3655   */\n      dup3\n        /* \"#utility.yul\":3647:3650   */\n      dup6\n        /* \"#utility.yul\":3610:3664   */\n      tag_81\n      jump\t// in\n    tag_138:\n        /* \"#utility.yul\":3329:3670   */\n      pop\n        /* \"#utility.yul\":3245:3670   */\n      swap4\n      swap3\n      pop\n      pop\n      pop\n      jump\t// out\n        /* \"#utility.yul\":3690:4030   */\n    tag_83:\n        /* \"#utility.yul\":3746:3751   */\n      0x00\n        /* \"#utility.yul\":3795:3798   */\n      dup3\n        /* \"#utility.yul\":3788:3792   */\n      0x1f\n        /* \"#utility.yul\":3780:3786   */\n      dup4\n        /* \"#utility.yul\":3776:3793   */\n      add\n        /* \"#utility.yul\":3772:3799   */\n      slt\n        /* \"#utility.yul\":3762:3884   */\n      tag_140\n      jumpi\n        /* \"#utility.yul\":3803:3882   */\n      tag_141\n      tag_74\n      jump\t// in\n    tag_141:\n        /* \"#utility.yul\":3762:3884   */\n    tag_140:\n        /* \"#utility.yul\":3920:3926   */\n      dup2\n        /* \"#utility.yul\":3907:3927   */\n      calldataload\n        /* \"#utility.yul\":3945:4024   */\n      tag_142\n        /* \"#utility.yul\":4020:4023   */\n      dup5\n        /* \"#utility.yul\":4012:4018   */\n      dup3\n        /* \"#utility.yul\":4005:4009   */\n      0x20\n        /* \"#utility.yul\":3997:4003   */\n      dup7\n        /* \"#utility.yul\":3993:4010   */\n      add\n        /* \"#utility.yul\":3945:4024   */\n      tag_82\n      jump\t// in\n    tag_142:\n        /* \"#utility.yul\":3936:4024   */\n      swap2\n      pop\n        /* \"#utility.yul\":3752:4030   */\n      pop\n        /* \"#utility.yul\":3690:4030   */\n      swap3\n      swap2\n      pop\n      pop\n      jump\t// out\n        /* \"#utility.yul\":4036:4690   */\n    tag_35:\n        /* \"#utility.yul\":4114:4120   */\n      0x00\n        /* \"#utility.yul\":4122:4128   */\n      dup1\n        /* \"#utility.yul\":4171:4173   */\n      0x40\n        /* \"#utility.yul\":4159:4168   */\n      dup4\n        /* \"#utility.yul\":4150:4157   */\n      dup6\n        /* \"#utility.yul\":4146:4169   */\n      sub\n        /* \"#utility.yul\":4142:4174   */\n      slt\n        /* \"#utility.yul\":4139:4258   */\n      iszero\n      tag_144\n      jumpi\n        /* \"#utility.yul\":4177:4256   */\n      tag_145\n      tag_70\n      jump\t// in\n    tag_145:\n        /* \"#utility.yul\":4139:4258   */\n    tag_144:\n        /* \"#utility.yul\":4297:4298   */\n      0x00\n        /* \"#utility.yul\":4322:4375   */\n      tag_146\n        /* \"#utility.yul\":4367:4374   */\n      dup6\n        /* \"#utility.yul\":4358:4364   */\n      dup3\n        /* \"#utility.yul\":4347:4356   */\n      dup7\n        /* \"#utility.yul\":4343:4365   */\n      add\n        /* \"#utility.yul\":4322:4375   */\n      tag_73\n      jump\t// in\n    tag_146:\n        /* \"#utility.yul\":4312:4375   */\n      swap3\n      pop\n        /* \"#utility.yul\":4268:4385   */\n      pop\n        /* \"#utility.yul\":4452:4454   */\n      0x20\n        /* \"#utility.yul\":4441:4450   */\n      dup4\n        /* \"#utility.yul\":4437:4455   */\n      add\n        /* \"#utility.yul\":4424:4456   */\n      calldataload\n        /* \"#utility.yul\":4483:4501   */\n      0xffffffffffffffff\n        /* \"#utility.yul\":4475:4481   */\n      dup2\n        /* \"#utility.yul\":4472:4502   */\n      gt\n        /* \"#utility.yul\":4469:4586   */\n      iszero\n      tag_147\n      jumpi\n        /* \"#utility.yul\":4505:4584   */\n      tag_148\n      tag_71\n      jump\t// in\n    tag_148:\n        /* \"#utility.yul\":4469:4586   */\n    tag_147:\n        /* \"#utility.yul\":4610:4673   */\n      tag_149\n        /* \"#utility.yul\":4665:4672   */\n      dup6\n        /* \"#utility.yul\":4656:4662   */\n      dup3\n        /* \"#utility.yul\":4645:4654   */\n      dup7\n        /* \"#utility.yul\":4641:4663   */\n      add\n        /* \"#utility.yul\":4610:4673   */\n      tag_83\n      jump\t// in\n    tag_149:\n        /* \"#utility.yul\":4600:4673   */\n      swap2\n      pop\n        /* \"#utility.yul\":4395:4683   */\n      pop\n        /* \"#utility.yul\":4036:4690   */\n      swap3\n      pop\n      swap3\n      swap1\n      pop\n      jump\t// out\n        /* \"#utility.yul\":4696:4876   */\n    tag_84:\n        /* \"#utility.yul\":4744:4821   */\n      0x4e487b7100000000000000000000000000000000000000000000000000000000\n        /* \"#utility.yul\":4741:4742   */\n      0x00\n        /* \"#utility.yul\":4734:4822   */\n      mstore\n        /* \"#utility.yul\":4841:4845   */\n      0x12\n        /* \"#utility.yul\":4838:4839   */\n      0x04\n        /* \"#utility.yul\":4831:4846   */\n      mstore\n        /* \"#utility.yul\":4865:4869   */\n      0x24\n        /* \"#utility.yul\":4862:4863   */\n      0x00\n        /* \"#utility.yul\":4855:4870   */\n      revert\n        /* \"#utility.yul\":4882:5062   */\n    tag_85:\n        /* \"#utility.yul\":4930:5007   */\n      0x4e487b7100000000000000000000000000000000000000000000000000000000\n        /* \"#utility.yul\":4927:4928   */\n      0x00\n        /* \"#utility.yul\":4920:5008   */\n      mstore\n        /* \"#utility.yul\":5027:5031   */\n      0x11\n        /* \"#utility.yul\":5024:5025   */\n      0x04\n        /* \"#utility.yul\":5017:5032   */\n      mstore\n        /* \"#utility.yul\":5051:5055   */\n      0x24\n        /* \"#utility.yul\":5048:5049   */\n      0x00\n        /* \"#utility.yul\":5041:5056   */\n      revert\n        /* \"#utility.yul\":5068:5253   */\n    tag_44:\n        /* \"#utility.yul\":5108:5109   */\n      0x00\n        /* \"#utility.yul\":5125:5145   */\n      tag_153\n        /* \"#utility.yul\":5143:5144   */\n      dup3\n        /* \"#utility.yul\":5125:5145   */\n      tag_65\n      jump\t// in\n    tag_153:\n        /* \"#utility.yul\":5120:5145   */\n      swap2\n      pop\n        /* \"#utility.yul\":5159:5179   */\n      tag_154\n        /* \"#utility.yul\":5177:5178   */\n      dup4\n        /* \"#utility.yul\":5159:5179   */\n      tag_65\n      jump\t// in\n    tag_154:\n        /* \"#utility.yul\":5154:5179   */\n      swap3\n      pop\n        /* \"#utility.yul\":5198:5199   */\n      dup3\n        /* \"#utility.yul\":5188:5223   */\n      tag_155\n      jumpi\n        /* \"#utility.yul\":5203:5221   */\n      tag_156\n      tag_84\n      jump\t// in\n    tag_156:\n        /* \"#utility.yul\":5188:5223   */\n    tag_155:\n        /* \"#utility.yul\":5245:5246   */\n      dup3\n        /* \"#utility.yul\":5242:5243   */\n      dup3\n        /* \"#utility.yul\":5238:5247   */\n      div\n        /* \"#utility.yul\":5233:5247   */\n      swap1\n      pop\n        /* \"#utility.yul\":5068:5253   */\n      swap3\n      swap2\n      pop\n      pop\n      jump\t// out\n        /* \"#utility.yul\":5259:5428   */\n    tag_86:\n        /* \"#utility.yul\":5343:5354   */\n      0x00\n        /* \"#utility.yul\":5377:5383   */\n      dup3\n        /* \"#utility.yul\":5372:5375   */\n      dup3\n        /* \"#utility.yul\":5365:5384   */\n      mstore\n        /* \"#utility.yul\":5417:5421   */\n      0x20\n        /* \"#utility.yul\":5412:5415   */\n      dup3\n        /* \"#utility.yul\":5408:5422   */\n      add\n        /* \"#utility.yul\":5393:5422   */\n      swap1\n      pop\n        /* \"#utility.yul\":5259:5428   */\n      swap3\n      swap2\n      pop\n      pop\n      jump\t// out\n        /* \"#utility.yul\":5434:5613   */\n    tag_87:\n        /* \"#utility.yul\":5574:5605   */\n      0x416d6f756e74206d7573742062652067726561746572207468616e2030000000\n        /* \"#utility.yul\":5570:5571   */\n      0x00\n        /* \"#utility.yul\":5562:5568   */\n      dup3\n        /* \"#utility.yul\":5558:5572   */\n      add\n        /* \"#utility.yul\":5551:5606   */\n      mstore\n        /* \"#utility.yul\":5434:5613   */\n      pop\n      jump\t// out\n        /* \"#utility.yul\":5619:5985   */\n    tag_88:\n        /* \"#utility.yul\":5761:5764   */\n      0x00\n        /* \"#utility.yul\":5782:5849   */\n      tag_160\n        /* \"#utility.yul\":5846:5848   */\n      0x1d\n        /* \"#utility.yul\":5841:5844   */\n      dup4\n        /* \"#utility.yul\":5782:5849   */\n      tag_86\n      jump\t// in\n    tag_160:\n        /* \"#utility.yul\":5775:5849   */\n      swap2\n      pop\n        /* \"#utility.yul\":5858:5951   */\n      tag_161\n        /* \"#utility.yul\":5947:5950   */\n      dup3\n        /* \"#utility.yul\":5858:5951   */\n      tag_87\n      jump\t// in\n    tag_161:\n        /* \"#utility.yul\":5976:5978   */\n      0x20\n        /* \"#utility.yul\":5971:5974   */\n      dup3\n        /* \"#utility.yul\":5967:5979   */\n      add\n        /* \"#utility.yul\":5960:5979   */\n      swap1\n      pop\n        /* \"#utility.yul\":5619:5985   */\n      swap2\n      swap1\n      pop\n      jump\t// out\n        /* \"#utility.yul\":5991:6410   */\n    tag_48:\n        /* \"#utility.yul\":6157:6161   */\n      0x00\n        /* \"#utility.yul\":6195:6197   */\n      0x20\n        /* \"#utility.yul\":6184:6193   */\n      dup3\n        /* \"#utility.yul\":6180:6198   */\n      add\n        /* \"#utility.yul\":6172:6198   */\n      swap1\n      pop\n        /* \"#utility.yul\":6244:6253   */\n      dup2\n        /* \"#utility.yul\":6238:6242   */\n      dup2\n        /* \"#utility.yul\":6234:6254   */\n      sub\n        /* \"#utility.yul\":6230:6231   */\n      0x00\n        /* \"#utility.yul\":6219:6228   */\n      dup4\n        /* \"#utility.yul\":6215:6232   */\n      add\n        /* \"#utility.yul\":6208:6255   */\n      mstore\n        /* \"#utility.yul\":6272:6403   */\n      tag_163\n        /* \"#utility.yul\":6398:6402   */\n      dup2\n        /* \"#utility.yul\":6272:6403   */\n      tag_88\n      jump\t// in\n    tag_163:\n        /* \"#utility.yul\":6264:6403   */\n      swap1\n      pop\n        /* \"#utility.yul\":5991:6410   */\n      swap2\n      swap1\n      pop\n      jump\t// out\n        /* \"#utility.yul\":6416:6515   */\n    tag_89:\n        /* \"#utility.yul\":6468:6474   */\n      0x00\n        /* \"#utility.yul\":6502:6507   */\n      dup2\n        /* \"#utility.yul\":6496:6508   */\n      mload\n        /* \"#utility.yul\":6486:6508   */\n      swap1\n      pop\n        /* \"#utility.yul\":6416:6515   */\n      swap2\n      swap1\n      pop\n      jump\t// out\n        /* \"#utility.yul\":6521:6669   */\n    tag_90:\n        /* \"#utility.yul\":6623:6634   */\n      0x00\n        /* \"#utility.yul\":6660:6663   */\n      dup2\n        /* \"#utility.yul\":6645:6663   */\n      swap1\n      pop\n        /* \"#utility.yul\":6521:6669   */\n      swap3\n      swap2\n      pop\n      pop\n      jump\t// out\n        /* \"#utility.yul\":6675:6814   */\n    tag_91:\n        /* \"#utility.yul\":6764:6770   */\n      dup3\n        /* \"#utility.yul\":6759:6762   */\n      dup2\n        /* \"#utility.yul\":6754:6757   */\n      dup4\n        /* \"#utility.yul\":6748:6771   */\n      mcopy\n        /* \"#utility.yul\":6805:6806   */\n      0x00\n        /* \"#utility.yul\":6796:6802   */\n      dup4\n        /* \"#utility.yul\":6791:6794   */\n      dup4\n        /* \"#utility.yul\":6787:6803   */\n      add\n        /* \"#utility.yul\":6780:6807   */\n      mstore\n        /* \"#utility.yul\":6675:6814   */\n      pop\n      pop\n      pop\n      jump\t// out\n        /* \"#utility.yul\":6820:7210   */\n    tag_92:\n        /* \"#utility.yul\":6926:6929   */\n      0x00\n        /* \"#utility.yul\":6954:6993   */\n      tag_168\n        /* \"#utility.yul\":6987:6992   */\n      dup3\n        /* \"#utility.yul\":6954:6993   */\n      tag_89\n      jump\t// in\n    tag_168:\n        /* \"#utility.yul\":7009:7098   */\n      tag_169\n        /* \"#utility.yul\":7091:7097   */\n      dup2\n        /* \"#utility.yul\":7086:7089   */\n      dup6\n        /* \"#utility.yul\":7009:7098   */\n      tag_90\n      jump\t// in\n    tag_169:\n        /* \"#utility.yul\":7002:7098   */\n      swap4\n      pop\n        /* \"#utility.yul\":7107:7172   */\n      tag_170\n        /* \"#utility.yul\":7165:7171   */\n      dup2\n        /* \"#utility.yul\":7160:7163   */\n      dup6\n        /* \"#utility.yul\":7153:7157   */\n      0x20\n        /* \"#utility.yul\":7146:7151   */\n      dup7\n        /* \"#utility.yul\":7142:7158   */\n      add\n        /* \"#utility.yul\":7107:7172   */\n      tag_91\n      jump\t// in\n    tag_170:\n        /* \"#utility.yul\":7197:7203   */\n      dup1\n        /* \"#utility.yul\":7192:7195   */\n      dup5\n        /* \"#utility.yul\":7188:7204   */\n      add\n        /* \"#utility.yul\":7181:7204   */\n      swap2\n      pop\n        /* \"#utility.yul\":6930:7210   */\n      pop\n        /* \"#utility.yul\":6820:7210   */\n      swap3\n      swap2\n      pop\n      pop\n      jump\t// out\n        /* \"#utility.yul\":7216:7491   */\n    tag_50:\n        /* \"#utility.yul\":7348:7351   */\n      0x00\n        /* \"#utility.yul\":7370:7465   */\n      tag_172\n        /* \"#utility.yul\":7461:7464   */\n      dup3\n        /* \"#utility.yul\":7452:7458   */\n      dup5\n        /* \"#utility.yul\":7370:7465   */\n      tag_92\n      jump\t// in\n    tag_172:\n        /* \"#utility.yul\":7363:7465   */\n      swap2\n      pop\n        /* \"#utility.yul\":7482:7485   */\n      dup2\n        /* \"#utility.yul\":7475:7485   */\n      swap1\n      pop\n        /* \"#utility.yul\":7216:7491   */\n      swap3\n      swap2\n      pop\n      pop\n      jump\t// out\n        /* \"#utility.yul\":7497:7660   */\n    tag_93:\n        /* \"#utility.yul\":7637:7652   */\n      0x496e76616c696420746f6b656e00000000000000000000000000000000000000\n        /* \"#utility.yul\":7633:7634   */\n      0x00\n        /* \"#utility.yul\":7625:7631   */\n      dup3\n        /* \"#utility.yul\":7621:7635   */\n      add\n        /* \"#utility.yul\":7614:7653   */\n      mstore\n        /* \"#utility.yul\":7497:7660   */\n      pop\n      jump\t// out\n        /* \"#utility.yul\":7666:8032   */\n    tag_94:\n        /* \"#utility.yul\":7808:7811   */\n      0x00\n        /* \"#utility.yul\":7829:7896   */\n      tag_175\n        /* \"#utility.yul\":7893:7895   */\n      0x0d\n        /* \"#utility.yul\":7888:7891   */\n      dup4\n        /* \"#utility.yul\":7829:7896   */\n      tag_86\n      jump\t// in\n    tag_175:\n        /* \"#utility.yul\":7822:7896   */\n      swap2\n      pop\n        /* \"#utility.yul\":7905:7998   */\n      tag_176\n        /* \"#utility.yul\":7994:7997   */\n      dup3\n        /* \"#utility.yul\":7905:7998   */\n      tag_93\n      jump\t// in\n    tag_176:\n        /* \"#utility.yul\":8023:8025   */\n      0x20\n        /* \"#utility.yul\":8018:8021   */\n      dup3\n        /* \"#utility.yul\":8014:8026   */\n      add\n        /* \"#utility.yul\":8007:8026   */\n      swap1\n      pop\n        /* \"#utility.yul\":7666:8032   */\n      swap2\n      swap1\n      pop\n      jump\t// out\n        /* \"#utility.yul\":8038:8457   */\n    tag_54:\n        /* \"#utility.yul\":8204:8208   */\n      0x00\n        /* \"#utility.yul\":8242:8244   */\n      0x20\n        /* \"#utility.yul\":8231:8240   */\n      dup3\n        /* \"#utility.yul\":8227:8245   */\n      add\n        /* \"#utility.yul\":8219:8245   */\n      swap1\n      pop\n        /* \"#utility.yul\":8291:8300   */\n      dup2\n        /* \"#utility.yul\":8285:8289   */\n      dup2\n        /* \"#utility.yul\":8281:8301   */\n      sub\n        /* \"#utility.yul\":8277:8278   */\n      0x00\n        /* \"#utility.yul\":8266:8275   */\n      dup4\n        /* \"#utility.yul\":8262:8279   */\n      add\n        /* \"#utility.yul\":8255:8302   */\n      mstore\n        /* \"#utility.yul\":8319:8450   */\n      tag_178\n        /* \"#utility.yul\":8445:8449   */\n      dup2\n        /* \"#utility.yul\":8319:8450   */\n      tag_94\n      jump\t// in\n    tag_178:\n        /* \"#utility.yul\":8311:8450   */\n      swap1\n      pop\n        /* \"#utility.yul\":8038:8457   */\n      swap2\n      swap1\n      pop\n      jump\t// out\n        /* \"#utility.yul\":8463:8654   */\n    tag_57:\n        /* \"#utility.yul\":8503:8506   */\n      0x00\n        /* \"#utility.yul\":8522:8542   */\n      tag_180\n        /* \"#utility.yul\":8540:8541   */\n      dup3\n        /* \"#utility.yul\":8522:8542   */\n      tag_65\n      jump\t// in\n    tag_180:\n        /* \"#utility.yul\":8517:8542   */\n      swap2\n      pop\n        /* \"#utility.yul\":8556:8576   */\n      tag_181\n        /* \"#utility.yul\":8574:8575   */\n      dup4\n        /* \"#utility.yul\":8556:8576   */\n      tag_65\n      jump\t// in\n    tag_181:\n        /* \"#utility.yul\":8551:8576   */\n      swap3\n      pop\n        /* \"#utility.yul\":8599:8600   */\n      dup3\n        /* \"#utility.yul\":8596:8597   */\n      dup3\n        /* \"#utility.yul\":8592:8601   */\n      add\n        /* \"#utility.yul\":8585:8601   */\n      swap1\n      pop\n        /* \"#utility.yul\":8620:8623   */\n      dup1\n        /* \"#utility.yul\":8617:8618   */\n      dup3\n        /* \"#utility.yul\":8614:8624   */\n      gt\n        /* \"#utility.yul\":8611:8647   */\n      iszero\n      tag_182\n      jumpi\n        /* \"#utility.yul\":8627:8645   */\n      tag_183\n      tag_85\n      jump\t// in\n    tag_183:\n        /* \"#utility.yul\":8611:8647   */\n    tag_182:\n        /* \"#utility.yul\":8463:8654   */\n      swap3\n      swap2\n      pop\n      pop\n      jump\t// out\n        /* \"#utility.yul\":8660:8854   */\n    tag_60:\n        /* \"#utility.yul\":8700:8704   */\n      0x00\n        /* \"#utility.yul\":8720:8740   */\n      tag_185\n        /* \"#utility.yul\":8738:8739   */\n      dup3\n        /* \"#utility.yul\":8720:8740   */\n      tag_65\n      jump\t// in\n    tag_185:\n        /* \"#utility.yul\":8715:8740   */\n      swap2\n      pop\n        /* \"#utility.yul\":8754:8774   */\n      tag_186\n        /* \"#utility.yul\":8772:8773   */\n      dup4\n        /* \"#utility.yul\":8754:8774   */\n      tag_65\n      jump\t// in\n    tag_186:\n        /* \"#utility.yul\":8749:8774   */\n      swap3\n      pop\n        /* \"#utility.yul\":8798:8799   */\n      dup3\n        /* \"#utility.yul\":8795:8796   */\n      dup3\n        /* \"#utility.yul\":8791:8800   */\n      sub\n        /* \"#utility.yul\":8783:8800   */\n      swap1\n      pop\n        /* \"#utility.yul\":8822:8823   */\n      dup2\n        /* \"#utility.yul\":8816:8820   */\n      dup2\n        /* \"#utility.yul\":8813:8824   */\n      gt\n        /* \"#utility.yul\":8810:8847   */\n      iszero\n      tag_187\n      jumpi\n        /* \"#utility.yul\":8827:8845   */\n      tag_188\n      tag_85\n      jump\t// in\n    tag_188:\n        /* \"#utility.yul\":8810:8847   */\n    tag_187:\n        /* \"#utility.yul\":8660:8854   */\n      swap3\n      swap2\n      pop\n      pop\n      jump\t// out\n\n    auxdata: 0xa2646970667358221220904c96189b06588d9628977eee8994b10efcba46638ec7e6f14c43d45fa88d5a64736f6c634300081a0033\n}\n",
				"bytecode": {
					"linkReferences": {},
					"object": "608060405234801561000f575f80fd5b50604051610c52380380610c5283398181016040528101906100319190610280565b5f8211801561003f57505f81115b61007e576040517f08c379a000000000000000000000000000000000000000000000000000000000815260040161007590610376565b60405180910390fd5b8360405160200161008f91906103d8565b60405160208183030381529060405280519060200120600381905550826040516020016100bc91906103d8565b60405160208183030381529060405280519060200120600481905550815f819055508060018190555080826100f1919061041b565b6002819055505050505061045c565b5f604051905090565b5f80fd5b5f80fd5b5f80fd5b5f80fd5b5f601f19601f8301169050919050565b7f4e487b71000000000000000000000000000000000000000000000000000000005f52604160045260245ffd5b61015f82610119565b810181811067ffffffffffffffff8211171561017e5761017d610129565b5b80604052505050565b5f610190610100565b905061019c8282610156565b919050565b5f67ffffffffffffffff8211156101bb576101ba610129565b5b6101c482610119565b9050602081019050919050565b8281835e5f83830152505050565b5f6101f16101ec846101a1565b610187565b90508281526020810184848401111561020d5761020c610115565b5b6102188482856101d1565b509392505050565b5f82601f83011261023457610233610111565b5b81516102448482602086016101df565b91505092915050565b5f819050919050565b61025f8161024d565b8114610269575f80fd5b50565b5f8151905061027a81610256565b92915050565b5f805f806080858703121561029857610297610109565b5b5f85015167ffffffffffffffff8111156102b5576102b461010d565b5b6102c187828801610220565b945050602085015167ffffffffffffffff8111156102e2576102e161010d565b5b6102ee87828801610220565b93505060406102ff8782880161026c565b92505060606103108782880161026c565b91505092959194509250565b5f82825260208201905092915050565b7f696e76616c6964207265736572766573000000000000000000000000000000005f82015250565b5f61036060108361031c565b915061036b8261032c565b602082019050919050565b5f6020820190508181035f83015261038d81610354565b9050919050565b5f81519050919050565b5f81905092915050565b5f6103b282610394565b6103bc818561039e565b93506103cc8185602086016101d1565b80840191505092915050565b5f6103e382846103a8565b915081905092915050565b7f4e487b71000000000000000000000000000000000000000000000000000000005f52601160045260245ffd5b5f6104258261024d565b91506104308361024d565b925082820261043e8161024d565b91508282048414831517610455576104546103ee565b5b5092915050565b6107e9806104695f395ff3fe608060405234801561000f575f80fd5b5060043610610086575f3560e01c806398d5fdca1161005957806398d5fdca14610103578063dc5fa6c514610121578063deb4a6d21461013f578063df45d88e1461016f57610086565b80630902f1ac1461008a57806319e36f3b146100a9578063518344ed146100c757806360641e59146100e5575b5f80fd5b61009261018d565b6040516100a0929190610339565b60405180910390f35b6100b161019c565b6040516100be9190610360565b60405180910390f35b6100cf6101a2565b6040516100dc9190610391565b60405180910390f35b6100ed6101a8565b6040516100fa9190610360565b60405180910390f35b61010b6101ae565b6040516101189190610360565b60405180910390f35b6101296101c3565b6040516101369190610360565b60405180910390f35b61015960048036038101906101549190610521565b6101c8565b6040516101669190610360565b60405180910390f35b61017761031b565b6040516101849190610391565b60405180910390f35b5f805f54600154915091509091565b60015481565b60035481565b60025481565b5f6001545f546101be91906105d5565b905090565b5f5481565b5f80831161020b576040517f08c379a00000000000000000000000000000000000000000000000000000000081526004016102029061065f565b60405180910390fd5b5f8260405160200161021d91906106cf565b604051602081830303815290604052805190602001209050600354811480610246575060045481145b610285576040517f08c379a000000000000000000000000000000000000000000000000000000000815260040161027c9061072f565b60405180910390fd5b60035481036102d3575f845f5461029c919061074d565b90505f816002546102ad91906105d5565b9050806001546102bd9190610780565b9350815f81905550806001819055505050610314565b5f846001546102e2919061074d565b90505f816002546102f391906105d5565b9050805f546103029190610780565b9350805f819055508160018190555050505b5092915050565b60045481565b5f819050919050565b61033381610321565b82525050565b5f60408201905061034c5f83018561032a565b610359602083018461032a565b9392505050565b5f6020820190506103735f83018461032a565b92915050565b5f819050919050565b61038b81610379565b82525050565b5f6020820190506103a45f830184610382565b92915050565b5f604051905090565b5f80fd5b5f80fd5b6103c481610321565b81146103ce575f80fd5b50565b5f813590506103df816103bb565b92915050565b5f80fd5b5f80fd5b5f601f19601f8301169050919050565b7f4e487b71000000000000000000000000000000000000000000000000000000005f52604160045260245ffd5b610433826103ed565b810181811067ffffffffffffffff82111715610452576104516103fd565b5b80604052505050565b5f6104646103aa565b9050610470828261042a565b919050565b5f67ffffffffffffffff82111561048f5761048e6103fd565b5b610498826103ed565b9050602081019050919050565b828183375f83830152505050565b5f6104c56104c084610475565b61045b565b9050828152602081018484840111156104e1576104e06103e9565b5b6104ec8482856104a5565b509392505050565b5f82601f830112610508576105076103e5565b5b81356105188482602086016104b3565b91505092915050565b5f8060408385031215610537576105366103b3565b5b5f610544858286016103d1565b925050602083013567ffffffffffffffff811115610565576105646103b7565b5b610571858286016104f4565b9150509250929050565b7f4e487b71000000000000000000000000000000000000000000000000000000005f52601260045260245ffd5b7f4e487b71000000000000000000000000000000000000000000000000000000005f52601160045260245ffd5b5f6105df82610321565b91506105ea83610321565b9250826105fa576105f961057b565b5b828204905092915050565b5f82825260208201905092915050565b7f416d6f756e74206d7573742062652067726561746572207468616e20300000005f82015250565b5f610649601d83610605565b915061065482610615565b602082019050919050565b5f6020820190508181035f8301526106768161063d565b9050919050565b5f81519050919050565b5f81905092915050565b8281835e5f83830152505050565b5f6106a98261067d565b6106b38185610687565b93506106c3818560208601610691565b80840191505092915050565b5f6106da828461069f565b915081905092915050565b7f496e76616c696420746f6b656e000000000000000000000000000000000000005f82015250565b5f610719600d83610605565b9150610724826106e5565b602082019050919050565b5f6020820190508181035f8301526107468161070d565b9050919050565b5f61075782610321565b915061076283610321565b925082820190508082111561077a576107796105a8565b5b92915050565b5f61078a82610321565b915061079583610321565b92508282039050818111156107ad576107ac6105a8565b5b9291505056fea2646970667358221220904c96189b06588d9628977eee8994b10efcba46638ec7e6f14c43d45fa88d5a64736f6c634300081a0033",
					"opcodes": "PUSH1 0x80 PUSH1 0x40 MSTORE CALLVALUE DUP1 ISZERO PUSH2 0xF JUMPI PUSH0 DUP1 REVERT JUMPDEST POP PUSH1 0x40 MLOAD PUSH2 0xC52 CODESIZE SUB DUP1 PUSH2 0xC52 DUP4 CODECOPY DUP2 DUP2 ADD PUSH1 0x40 MSTORE DUP2 ADD SWAP1 PUSH2 0x31 SWAP2 SWAP1 PUSH2 0x280 JUMP JUMPDEST PUSH0 DUP3 GT DUP1 ISZERO PUSH2 0x3F JUMPI POP PUSH0 DUP2 GT JUMPDEST PUSH2 0x7E JUMPI PUSH1 0x40 MLOAD PUSH32 0x8C379A000000000000000000000000000000000000000000000000000000000 DUP2 MSTORE PUSH1 0x4 ADD PUSH2 0x75 SWAP1 PUSH2 0x376 JUMP JUMPDEST PUSH1 0x40 MLOAD DUP1 SWAP2 SUB SWAP1 REVERT JUMPDEST DUP4 PUSH1 0x40 MLOAD PUSH1 0x20 ADD PUSH2 0x8F SWAP2 SWAP1 PUSH2 0x3D8 JUMP JUMPDEST PUSH1 0x40 MLOAD PUSH1 0x20 DUP2 DUP4 SUB SUB DUP2 MSTORE SWAP1 PUSH1 0x40 MSTORE DUP1 MLOAD SWAP1 PUSH1 0x20 ADD KECCAK256 PUSH1 0x3 DUP2 SWAP1 SSTORE POP DUP3 PUSH1 0x40 MLOAD PUSH1 0x20 ADD PUSH2 0xBC SWAP2 SWAP1 PUSH2 0x3D8 JUMP JUMPDEST PUSH1 0x40 MLOAD PUSH1 0x20 DUP2 DUP4 SUB SUB DUP2 MSTORE SWAP1 PUSH1 0x40 MSTORE DUP1 MLOAD SWAP1 PUSH1 0x20 ADD KECCAK256 PUSH1 0x4 DUP2 SWAP1 SSTORE POP DUP2 PUSH0 DUP2 SWAP1 SSTORE POP DUP1 PUSH1 0x1 DUP2 SWAP1 SSTORE POP DUP1 DUP3 PUSH2 0xF1 SWAP2 SWAP1 PUSH2 0x41B JUMP JUMPDEST PUSH1 0x2 DUP2 SWAP1 SSTORE POP POP POP POP POP PUSH2 0x45C JUMP JUMPDEST PUSH0 PUSH1 0x40 MLOAD SWAP1 POP SWAP1 JUMP JUMPDEST PUSH0 DUP1 REVERT JUMPDEST PUSH0 DUP1 REVERT JUMPDEST PUSH0 DUP1 REVERT JUMPDEST PUSH0 DUP1 REVERT JUMPDEST PUSH0 PUSH1 0x1F NOT PUSH1 0x1F DUP4 ADD AND SWAP1 POP SWAP2 SWAP1 POP JUMP JUMPDEST PUSH32 0x4E487B7100000000000000000000000000000000000000000000000000000000 PUSH0 MSTORE PUSH1 0x41 PUSH1 0x4 MSTORE PUSH1 0x24 PUSH0 REVERT JUMPDEST PUSH2 0x15F DUP3 PUSH2 0x119 JUMP JUMPDEST DUP2 ADD DUP2 DUP2 LT PUSH8 0xFFFFFFFFFFFFFFFF DUP3 GT OR ISZERO PUSH2 0x17E JUMPI PUSH2 0x17D PUSH2 0x129 JUMP JUMPDEST JUMPDEST DUP1 PUSH1 0x40 MSTORE POP POP POP JUMP JUMPDEST PUSH0 PUSH2 0x190 PUSH2 0x100 JUMP JUMPDEST SWAP1 POP PUSH2 0x19C DUP3 DUP3 PUSH2 0x156 JUMP JUMPDEST SWAP2 SWAP1 POP JUMP JUMPDEST PUSH0 PUSH8 0xFFFFFFFFFFFFFFFF DUP3 GT ISZERO PUSH2 0x1BB JUMPI PUSH2 0x1BA PUSH2 0x129 JUMP JUMPDEST JUMPDEST PUSH2 0x1C4 DUP3 PUSH2 0x119 JUMP JUMPDEST SWAP1 POP PUSH1 0x20 DUP2 ADD SWAP1 POP SWAP2 SWAP1 POP JUMP JUMPDEST DUP3 DUP2 DUP4 MCOPY PUSH0 DUP4 DUP4 ADD MSTORE POP POP POP JUMP JUMPDEST PUSH0 PUSH2 0x1F1 PUSH2 0x1EC DUP5 PUSH2 0x1A1 JUMP JUMPDEST PUSH2 0x187 JUMP JUMPDEST SWAP1 POP DUP3 DUP2 MSTORE PUSH1 0x20 DUP2 ADD DUP5 DUP5 DUP5 ADD GT ISZERO PUSH2 0x20D JUMPI PUSH2 0x20C PUSH2 0x115 JUMP JUMPDEST JUMPDEST PUSH2 0x218 DUP5 DUP3 DUP6 PUSH2 0x1D1 JUMP JUMPDEST POP SWAP4 SWAP3 POP POP POP JUMP JUMPDEST PUSH0 DUP3 PUSH1 0x1F DUP4 ADD SLT PUSH2 0x234 JUMPI PUSH2 0x233 PUSH2 0x111 JUMP JUMPDEST JUMPDEST DUP2 MLOAD PUSH2 0x244 DUP5 DUP3 PUSH1 0x20 DUP7 ADD PUSH2 0x1DF JUMP JUMPDEST SWAP2 POP POP SWAP3 SWAP2 POP POP JUMP JUMPDEST PUSH0 DUP2 SWAP1 POP SWAP2 SWAP1 POP JUMP JUMPDEST PUSH2 0x25F DUP2 PUSH2 0x24D JUMP JUMPDEST DUP2 EQ PUSH2 0x269 JUMPI PUSH0 DUP1 REVERT JUMPDEST POP JUMP JUMPDEST PUSH0 DUP2 MLOAD SWAP1 POP PUSH2 0x27A DUP2 PUSH2 0x256 JUMP JUMPDEST SWAP3 SWAP2 POP POP JUMP JUMPDEST PUSH0 DUP1 PUSH0 DUP1 PUSH1 0x80 DUP6 DUP8 SUB SLT ISZERO PUSH2 0x298 JUMPI PUSH2 0x297 PUSH2 0x109 JUMP JUMPDEST JUMPDEST PUSH0 DUP6 ADD MLOAD PUSH8 0xFFFFFFFFFFFFFFFF DUP2 GT ISZERO PUSH2 0x2B5 JUMPI PUSH2 0x2B4 PUSH2 0x10D JUMP JUMPDEST JUMPDEST PUSH2 0x2C1 DUP8 DUP3 DUP9 ADD PUSH2 0x220 JUMP JUMPDEST SWAP5 POP POP PUSH1 0x20 DUP6 ADD MLOAD PUSH8 0xFFFFFFFFFFFFFFFF DUP2 GT ISZERO PUSH2 0x2E2 JUMPI PUSH2 0x2E1 PUSH2 0x10D JUMP JUMPDEST JUMPDEST PUSH2 0x2EE DUP8 DUP3 DUP9 ADD PUSH2 0x220 JUMP JUMPDEST SWAP4 POP POP PUSH1 0x40 PUSH2 0x2FF DUP8 DUP3 DUP9 ADD PUSH2 0x26C JUMP JUMPDEST SWAP3 POP POP PUSH1 0x60 PUSH2 0x310 DUP8 DUP3 DUP9 ADD PUSH2 0x26C JUMP JUMPDEST SWAP2 POP POP SWAP3 SWAP6 SWAP2 SWAP5 POP SWAP3 POP JUMP JUMPDEST PUSH0 DUP3 DUP3 MSTORE PUSH1 0x20 DUP3 ADD SWAP1 POP SWAP3 SWAP2 POP POP JUMP JUMPDEST PUSH32 0x696E76616C696420726573657276657300000000000000000000000000000000 PUSH0 DUP3 ADD MSTORE POP JUMP JUMPDEST PUSH0 PUSH2 0x360 PUSH1 0x10 DUP4 PUSH2 0x31C JUMP JUMPDEST SWAP2 POP PUSH2 0x36B DUP3 PUSH2 0x32C JUMP JUMPDEST PUSH1 0x20 DUP3 ADD SWAP1 POP SWAP2 SWAP1 POP JUMP JUMPDEST PUSH0 PUSH1 0x20 DUP3 ADD SWAP1 POP DUP2 DUP2 SUB PUSH0 DUP4 ADD MSTORE PUSH2 0x38D DUP2 PUSH2 0x354 JUMP JUMPDEST SWAP1 POP SWAP2 SWAP1 POP JUMP JUMPDEST PUSH0 DUP2 MLOAD SWAP1 POP SWAP2 SWAP1 POP JUMP JUMPDEST PUSH0 DUP2 SWAP1 POP SWAP3 SWAP2 POP POP JUMP JUMPDEST PUSH0 PUSH2 0x3B2 DUP3 PUSH2 0x394 JUMP JUMPDEST PUSH2 0x3BC DUP2 DUP6 PUSH2 0x39E JUMP JUMPDEST SWAP4 POP PUSH2 0x3CC DUP2 DUP6 PUSH1 0x20 DUP7 ADD PUSH2 0x1D1 JUMP JUMPDEST DUP1 DUP5 ADD SWAP2 POP POP SWAP3 SWAP2 POP POP JUMP JUMPDEST PUSH0 PUSH2 0x3E3 DUP3 DUP5 PUSH2 0x3A8 JUMP JUMPDEST SWAP2 POP DUP2 SWAP1 POP SWAP3 SWAP2 POP POP JUMP JUMPDEST PUSH32 0x4E487B7100000000000000000000000000000000000000000000000000000000 PUSH0 MSTORE PUSH1 0x11 PUSH1 0x4 MSTORE PUSH1 0x24 PUSH0 REVERT JUMPDEST PUSH0 PUSH2 0x425 DUP3 PUSH2 0x24D JUMP JUMPDEST SWAP2 POP PUSH2 0x430 DUP4 PUSH2 0x24D JUMP JUMPDEST SWAP3 POP DUP3 DUP3 MUL PUSH2 0x43E DUP2 PUSH2 0x24D JUMP JUMPDEST SWAP2 POP DUP3 DUP3 DIV DUP5 EQ DUP4 ISZERO OR PUSH2 0x455 JUMPI PUSH2 0x454 PUSH2 0x3EE JUMP JUMPDEST JUMPDEST POP SWAP3 SWAP2 POP POP JUMP JUMPDEST PUSH2 0x7E9 DUP1 PUSH2 0x469 PUSH0 CODECOPY PUSH0 RETURN INVALID PUSH1 0x80 PUSH1 0x40 MSTORE CALLVALUE DUP1 ISZERO PUSH2 0xF JUMPI PUSH0 DUP1 REVERT JUMPDEST POP PUSH1 0x4 CALLDATASIZE LT PUSH2 0x86 JUMPI PUSH0 CALLDATALOAD PUSH1 0xE0 SHR DUP1 PUSH4 0x98D5FDCA GT PUSH2 0x59 JUMPI DUP1 PUSH4 0x98D5FDCA EQ PUSH2 0x103 JUMPI DUP1 PUSH4 0xDC5FA6C5 EQ PUSH2 0x121 JUMPI DUP1 PUSH4 0xDEB4A6D2 EQ PUSH2 0x13F JUMPI DUP1 PUSH4 0xDF45D88E EQ PUSH2 0x16F JUMPI PUSH2 0x86 JUMP JUMPDEST DUP1 PUSH4 0x902F1AC EQ PUSH2 0x8A JUMPI DUP1 PUSH4 0x19E36F3B EQ PUSH2 0xA9 JUMPI DUP1 PUSH4 0x518344ED EQ PUSH2 0xC7 JUMPI DUP1 PUSH4 0x60641E59 EQ PUSH2 0xE5 JUMPI JUMPDEST PUSH0 DUP1 REVERT JUMPDEST PUSH2 0x92 PUSH2 0x18D JUMP JUMPDEST PUSH1 0x40 MLOAD PUSH2 0xA0 SWAP3 SWAP2 SWAP1 PUSH2 0x339 JUMP JUMPDEST PUSH1 0x40 MLOAD DUP1 SWAP2 SUB SWAP1 RETURN JUMPDEST PUSH2 0xB1 PUSH2 0x19C JUMP JUMPDEST PUSH1 0x40 MLOAD PUSH2 0xBE SWAP2 SWAP1 PUSH2 0x360 JUMP JUMPDEST PUSH1 0x40 MLOAD DUP1 SWAP2 SUB SWAP1 RETURN JUMPDEST PUSH2 0xCF PUSH2 0x1A2 JUMP JUMPDEST PUSH1 0x40 MLOAD PUSH2 0xDC SWAP2 SWAP1 PUSH2 0x391 JUMP JUMPDEST PUSH1 0x40 MLOAD DUP1 SWAP2 SUB SWAP1 RETURN JUMPDEST PUSH2 0xED PUSH2 0x1A8 JUMP JUMPDEST PUSH1 0x40 MLOAD PUSH2 0xFA SWAP2 SWAP1 PUSH2 0x360 JUMP JUMPDEST PUSH1 0x40 MLOAD DUP1 SWAP2 SUB SWAP1 RETURN JUMPDEST PUSH2 0x10B PUSH2 0x1AE JUMP JUMPDEST PUSH1 0x40 MLOAD PUSH2 0x118 SWAP2 SWAP1 PUSH2 0x360 JUMP JUMPDEST PUSH1 0x40 MLOAD DUP1 SWAP2 SUB SWAP1 RETURN JUMPDEST PUSH2 0x129 PUSH2 0x1C3 JUMP JUMPDEST PUSH1 0x40 MLOAD PUSH2 0x136 SWAP2 SWAP1 PUSH2 0x360 JUMP JUMPDEST PUSH1 0x40 MLOAD DUP1 SWAP2 SUB SWAP1 RETURN JUMPDEST PUSH2 0x159 PUSH1 0x4 DUP1 CALLDATASIZE SUB DUP2 ADD SWAP1 PUSH2 0x154 SWAP2 SWAP1 PUSH2 0x521 JUMP JUMPDEST PUSH2 0x1C8 JUMP JUMPDEST PUSH1 0x40 MLOAD PUSH2 0x166 SWAP2 SWAP1 PUSH2 0x360 JUMP JUMPDEST PUSH1 0x40 MLOAD DUP1 SWAP2 SUB SWAP1 RETURN JUMPDEST PUSH2 0x177 PUSH2 0x31B JUMP JUMPDEST PUSH1 0x40 MLOAD PUSH2 0x184 SWAP2 SWAP1 PUSH2 0x391 JUMP JUMPDEST PUSH1 0x40 MLOAD DUP1 SWAP2 SUB SWAP1 RETURN JUMPDEST PUSH0 DUP1 PUSH0 SLOAD PUSH1 0x1 SLOAD SWAP2 POP SWAP2 POP SWAP1 SWAP2 JUMP JUMPDEST PUSH1 0x1 SLOAD DUP2 JUMP JUMPDEST PUSH1 0x3 SLOAD DUP2 JUMP JUMPDEST PUSH1 0x2 SLOAD DUP2 JUMP JUMPDEST PUSH0 PUSH1 0x1 SLOAD PUSH0 SLOAD PUSH2 0x1BE SWAP2 SWAP1 PUSH2 0x5D5 JUMP JUMPDEST SWAP1 POP SWAP1 JUMP JUMPDEST PUSH0 SLOAD DUP2 JUMP JUMPDEST PUSH0 DUP1 DUP4 GT PUSH2 0x20B JUMPI PUSH1 0x40 MLOAD PUSH32 0x8C379A000000000000000000000000000000000000000000000000000000000 DUP2 MSTORE PUSH1 0x4 ADD PUSH2 0x202 SWAP1 PUSH2 0x65F JUMP JUMPDEST PUSH1 0x40 MLOAD DUP1 SWAP2 SUB SWAP1 REVERT JUMPDEST PUSH0 DUP3 PUSH1 0x40 MLOAD PUSH1 0x20 ADD PUSH2 0x21D SWAP2 SWAP1 PUSH2 0x6CF JUMP JUMPDEST PUSH1 0x40 MLOAD PUSH1 0x20 DUP2 DUP4 SUB SUB DUP2 MSTORE SWAP1 PUSH1 0x40 MSTORE DUP1 MLOAD SWAP1 PUSH1 0x20 ADD KECCAK256 SWAP1 POP PUSH1 0x3 SLOAD DUP2 EQ DUP1 PUSH2 0x246 JUMPI POP PUSH1 0x4 SLOAD DUP2 EQ JUMPDEST PUSH2 0x285 JUMPI PUSH1 0x40 MLOAD PUSH32 0x8C379A000000000000000000000000000000000000000000000000000000000 DUP2 MSTORE PUSH1 0x4 ADD PUSH2 0x27C SWAP1 PUSH2 0x72F JUMP JUMPDEST PUSH1 0x40 MLOAD DUP1 SWAP2 SUB SWAP1 REVERT JUMPDEST PUSH1 0x3 SLOAD DUP2 SUB PUSH2 0x2D3 JUMPI PUSH0 DUP5 PUSH0 SLOAD PUSH2 0x29C SWAP2 SWAP1 PUSH2 0x74D JUMP JUMPDEST SWAP1 POP PUSH0 DUP2 PUSH1 0x2 SLOAD PUSH2 0x2AD SWAP2 SWAP1 PUSH2 0x5D5 JUMP JUMPDEST SWAP1 POP DUP1 PUSH1 0x1 SLOAD PUSH2 0x2BD SWAP2 SWAP1 PUSH2 0x780 JUMP JUMPDEST SWAP4 POP DUP2 PUSH0 DUP2 SWAP1 SSTORE POP DUP1 PUSH1 0x1 DUP2 SWAP1 SSTORE POP POP POP PUSH2 0x314 JUMP JUMPDEST PUSH0 DUP5 PUSH1 0x1 SLOAD PUSH2 0x2E2 SWAP2 SWAP1 PUSH2 0x74D JUMP JUMPDEST SWAP1 POP PUSH0 DUP2 PUSH1 0x2 SLOAD PUSH2 0x2F3 SWAP2 SWAP1 PUSH2 0x5D5 JUMP JUMPDEST SWAP1 POP DUP1 PUSH0 SLOAD PUSH2 0x302 SWAP2 SWAP1 PUSH2 0x780 JUMP JUMPDEST SWAP4 POP DUP1 PUSH0 DUP2 SWAP1 SSTORE POP DUP2 PUSH1 0x1 DUP2 SWAP1 SSTORE POP POP POP JUMPDEST POP SWAP3 SWAP2 POP POP JUMP JUMPDEST PUSH1 0x4 SLOAD DUP2 JUMP JUMPDEST PUSH0 DUP2 SWAP1 POP SWAP2 SWAP1 POP JUMP JUMPDEST PUSH2 0x333 DUP2 PUSH2 0x321 JUMP JUMPDEST DUP3 MSTORE POP POP JUMP JUMPDEST PUSH0 PUSH1 0x40 DUP3 ADD SWAP1 POP PUSH2 0x34C PUSH0 DUP4 ADD DUP6 PUSH2 0x32A JUMP JUMPDEST PUSH2 0x359 PUSH1 0x20 DUP4 ADD DUP5 PUSH2 0x32A JUMP JUMPDEST SWAP4 SWAP3 POP POP POP JUMP JUMPDEST PUSH0 PUSH1 0x20 DUP3 ADD SWAP1 POP PUSH2 0x373 PUSH0 DUP4 ADD DUP5 PUSH2 0x32A JUMP JUMPDEST SWAP3 SWAP2 POP POP JUMP JUMPDEST PUSH0 DUP2 SWAP1 POP SWAP2 SWAP1 POP JUMP JUMPDEST PUSH2 0x38B DUP2 PUSH2 0x379 JUMP JUMPDEST DUP3 MSTORE POP POP JUMP JUMPDEST PUSH0 PUSH1 0x20 DUP3 ADD SWAP1 POP PUSH2 0x3A4 PUSH0 DUP4 ADD DUP5 PUSH2 0x382 JUMP JUMPDEST SWAP3 SWAP2 POP POP JUMP JUMPDEST PUSH0 PUSH1 0x40 MLOAD SWAP1 POP SWAP1 JUMP JUMPDEST PUSH0 DUP1 REVERT JUMPDEST PUSH0 DUP1 REVERT JUMPDEST PUSH2 0x3C4 DUP2 PUSH2 0x321 JUMP JUMPDEST DUP2 EQ PUSH2 0x3CE JUMPI PUSH0 DUP1 REVERT JUMPDEST POP JUMP JUMPDEST PUSH0 DUP2 CALLDATALOAD SWAP1 POP PUSH2 0x3DF DUP2 PUSH2 0x3BB JUMP JUMPDEST SWAP3 SWAP2 POP POP JUMP JUMPDEST PUSH0 DUP1 REVERT JUMPDEST PUSH0 DUP1 REVERT JUMPDEST PUSH0 PUSH1 0x1F NOT PUSH1 0x1F DUP4 ADD AND SWAP1 POP SWAP2 SWAP1 POP JUMP JUMPDEST PUSH32 0x4E487B7100000000000000000000000000000000000000000000000000000000 PUSH0 MSTORE PUSH1 0x41 PUSH1 0x4 MSTORE PUSH1 0x24 PUSH0 REVERT JUMPDEST PUSH2 0x433 DUP3 PUSH2 0x3ED JUMP JUMPDEST DUP2 ADD DUP2 DUP2 LT PUSH8 0xFFFFFFFFFFFFFFFF DUP3 GT OR ISZERO PUSH2 0x452 JUMPI PUSH2 0x451 PUSH2 0x3FD JUMP JUMPDEST JUMPDEST DUP1 PUSH1 0x40 MSTORE POP POP POP JUMP JUMPDEST PUSH0 PUSH2 0x464 PUSH2 0x3AA JUMP JUMPDEST SWAP1 POP PUSH2 0x470 DUP3 DUP3 PUSH2 0x42A JUMP JUMPDEST SWAP2 SWAP1 POP JUMP JUMPDEST PUSH0 PUSH8 0xFFFFFFFFFFFFFFFF DUP3 GT ISZERO PUSH2 0x48F JUMPI PUSH2 0x48E PUSH2 0x3FD JUMP JUMPDEST JUMPDEST PUSH2 0x498 DUP3 PUSH2 0x3ED JUMP JUMPDEST SWAP1 POP PUSH1 0x20 DUP2 ADD SWAP1 POP SWAP2 SWAP1 POP JUMP JUMPDEST DUP3 DUP2 DUP4 CALLDATACOPY PUSH0 DUP4 DUP4 ADD MSTORE POP POP POP JUMP JUMPDEST PUSH0 PUSH2 0x4C5 PUSH2 0x4C0 DUP5 PUSH2 0x475 JUMP JUMPDEST PUSH2 0x45B JUMP JUMPDEST SWAP1 POP DUP3 DUP2 MSTORE PUSH1 0x20 DUP2 ADD DUP5 DUP5 DUP5 ADD GT ISZERO PUSH2 0x4E1 JUMPI PUSH2 0x4E0 PUSH2 0x3E9 JUMP JUMPDEST JUMPDEST PUSH2 0x4EC DUP5 DUP3 DUP6 PUSH2 0x4A5 JUMP JUMPDEST POP SWAP4 SWAP3 POP POP POP JUMP JUMPDEST PUSH0 DUP3 PUSH1 0x1F DUP4 ADD SLT PUSH2 0x508 JUMPI PUSH2 0x507 PUSH2 0x3E5 JUMP JUMPDEST JUMPDEST DUP2 CALLDATALOAD PUSH2 0x518 DUP5 DUP3 PUSH1 0x20 DUP7 ADD PUSH2 0x4B3 JUMP JUMPDEST SWAP2 POP POP SWAP3 SWAP2 POP POP JUMP JUMPDEST PUSH0 DUP1 PUSH1 0x40 DUP4 DUP6 SUB SLT ISZERO PUSH2 0x537 JUMPI PUSH2 0x536 PUSH2 0x3B3 JUMP JUMPDEST JUMPDEST PUSH0 PUSH2 0x544 DUP6 DUP3 DUP7 ADD PUSH2 0x3D1 JUMP JUMPDEST SWAP3 POP POP PUSH1 0x20 DUP4 ADD CALLDATALOAD PUSH8 0xFFFFFFFFFFFFFFFF DUP2 GT ISZERO PUSH2 0x565 JUMPI PUSH2 0x564 PUSH2 0x3B7 JUMP JUMPDEST JUMPDEST PUSH2 0x571 DUP6 DUP3 DUP7 ADD PUSH2 0x4F4 JUMP JUMPDEST SWAP2 POP POP SWAP3 POP SWAP3 SWAP1 POP JUMP JUMPDEST PUSH32 0x4E487B7100000000000000000000000000000000000000000000000000000000 PUSH0 MSTORE PUSH1 0x12 PUSH1 0x4 MSTORE PUSH1 0x24 PUSH0 REVERT JUMPDEST PUSH32 0x4E487B7100000000000000000000000000000000000000000000000000000000 PUSH0 MSTORE PUSH1 0x11 PUSH1 0x4 MSTORE PUSH1 0x24 PUSH0 REVERT JUMPDEST PUSH0 PUSH2 0x5DF DUP3 PUSH2 0x321 JUMP JUMPDEST SWAP2 POP PUSH2 0x5EA DUP4 PUSH2 0x321 JUMP JUMPDEST SWAP3 POP DUP3 PUSH2 0x5FA JUMPI PUSH2 0x5F9 PUSH2 0x57B JUMP JUMPDEST JUMPDEST DUP3 DUP3 DIV SWAP1 POP SWAP3 SWAP2 POP POP JUMP JUMPDEST PUSH0 DUP3 DUP3 MSTORE PUSH1 0x20 DUP3 ADD SWAP1 POP SWAP3 SWAP2 POP POP JUMP JUMPDEST PUSH32 0x416D6F756E74206D7573742062652067726561746572207468616E2030000000 PUSH0 DUP3 ADD MSTORE POP JUMP JUMPDEST PUSH0 PUSH2 0x649 PUSH1 0x1D DUP4 PUSH2 0x605 JUMP JUMPDEST SWAP2 POP PUSH2 0x654 DUP3 PUSH2 0x615 JUMP JUMPDEST PUSH1 0x20 DUP3 ADD SWAP1 POP SWAP2 SWAP1 POP JUMP JUMPDEST PUSH0 PUSH1 0x20 DUP3 ADD SWAP1 POP DUP2 DUP2 SUB PUSH0 DUP4 ADD MSTORE PUSH2 0x676 DUP2 PUSH2 0x63D JUMP JUMPDEST SWAP1 POP SWAP2 SWAP1 POP JUMP JUMPDEST PUSH0 DUP2 MLOAD SWAP1 POP SWAP2 SWAP1 POP JUMP JUMPDEST PUSH0 DUP2 SWAP1 POP SWAP3 SWAP2 POP POP JUMP JUMPDEST DUP3 DUP2 DUP4 MCOPY PUSH0 DUP4 DUP4 ADD MSTORE POP POP POP JUMP JUMPDEST PUSH0 PUSH2 0x6A9 DUP3 PUSH2 0x67D JUMP JUMPDEST PUSH2 0x6B3 DUP2 DUP6 PUSH2 0x687 JUMP JUMPDEST SWAP4 POP PUSH2 0x6C3 DUP2 DUP6 PUSH1 0x20 DUP7 ADD PUSH2 0x691 JUMP JUMPDEST DUP1 DUP5 ADD SWAP2 POP POP SWAP3 SWAP2 POP POP JUMP JUMPDEST PUSH0 PUSH2 0x6DA DUP3 DUP5 PUSH2 0x69F JUMP JUMPDEST SWAP2 POP DUP2 SWAP1 POP SWAP3 SWAP2 POP POP JUMP JUMPDEST PUSH32 0x496E76616C696420746F6B656E00000000000000000000000000000000000000 PUSH0 DUP3 ADD MSTORE POP JUMP JUMPDEST PUSH0 PUSH2 0x719 PUSH1 0xD DUP4 PUSH2 0x605 JUMP JUMPDEST SWAP2 POP PUSH2 0x724 DUP3 PUSH2 0x6E5 JUMP JUMPDEST PUSH1 0x20 DUP3 ADD SWAP1 POP SWAP2 SWAP1 POP JUMP JUMPDEST PUSH0 PUSH1 0x20 DUP3 ADD SWAP1 POP DUP2 DUP2 SUB PUSH0 DUP4 ADD MSTORE PUSH2 0x746 DUP2 PUSH2 0x70D JUMP JUMPDEST SWAP1 POP SWAP2 SWAP1 POP JUMP JUMPDEST PUSH0 PUSH2 0x757 DUP3 PUSH2 0x321 JUMP JUMPDEST SWAP2 POP PUSH2 0x762 DUP4 PUSH2 0x321 JUMP JUMPDEST SWAP3 POP DUP3 DUP3 ADD SWAP1 POP DUP1 DUP3 GT ISZERO PUSH2 0x77A JUMPI PUSH2 0x779 PUSH2 0x5A8 JUMP JUMPDEST JUMPDEST SWAP3 SWAP2 POP POP JUMP JUMPDEST PUSH0 PUSH2 0x78A DUP3 PUSH2 0x321 JUMP JUMPDEST SWAP2 POP PUSH2 0x795 DUP4 PUSH2 0x321 JUMP JUMPDEST SWAP3 POP DUP3 DUP3 SUB SWAP1 POP DUP2 DUP2 GT ISZERO PUSH2 0x7AD JUMPI PUSH2 0x7AC PUSH2 0x5A8 JUMP JUMPDEST JUMPDEST SWAP3 SWAP2 POP POP JUMP INVALID LOG2 PUSH5 0x6970667358 0x22 SLT KECCAK256 SWAP1 0x4C SWAP7 XOR SWAP12 MOD PC DUP14 SWAP7 0x28 SWAP8 PUSH31 0xEE8994B10EFCBA46638EC7E6F14C43D45FA88D5A64736F6C634300081A0033 "
				},
				"gasEstimates": {
					"creation": {
						"codeDepositCost": "405000",
						"executionCost": "infinite",
						"totalCost": "infinite"
					},
					"external": {
						"constantProduct()": "2492",
						"getPrice()": "infinite",
						"getReserves()": "infinite",
						"hashA()": "2470",
						"hashB()": "2491",
						"reserveA()": "2446",
						"reserveB()": "2448",
						"swap(uint256,string)": "infinite"
					}
				},
				"methodIdentifiers": {
					"constantProduct()": "60641e59",
					"getPrice()": "98d5fdca",
					"getReserves()": "0902f1ac",
					"hashA()": "518344ed",
					"hashB()": "df45d88e",
					"reserveA()": "dc5fa6c5",
					"reserveB()": "19e36f3b",
					"swap(uint256,string)": "deb4a6d2"
				}
			},
			"storageLayout": {
				"storage": [
					{
						"astId": 3,
						"contract": "contracts/8_SimpleAMM.sol:SimpleAMM",
						"label": "reserveA",
						"offset": 0,
						"slot": "0",
						"type": "t_uint256"
					},
					{
						"astId": 5,
						"contract": "contracts/8_SimpleAMM.sol:SimpleAMM",
						"label": "reserveB",
						"offset": 0,
						"slot": "1",
						"type": "t_uint256"
					},
					{
						"astId": 7,
						"contract": "contracts/8_SimpleAMM.sol:SimpleAMM",
						"label": "constantProduct",
						"offset": 0,
						"slot": "2",
						"type": "t_uint256"
					},
					{
						"astId": 9,
						"contract": "contracts/8_SimpleAMM.sol:SimpleAMM",
						"label": "hashA",
						"offset": 0,
						"slot": "3",
						"type": "t_bytes32"
					},
					{
						"astId": 11,
						"contract": "contracts/8_SimpleAMM.sol:SimpleAMM",
						"label": "hashB",
						"offset": 0,
						"slot": "4",
						"type": "t_bytes32"
					}
				],
				"types": {
					"t_bytes32": {
						"encoding": "inplace",
						"label": "bytes32",
						"numberOfBytes": "32"
					},
					"t_uint256": {
						"encoding": "inplace",
						"label": "uint256",
						"numberOfBytes": "32"
					}
				}
			},
			"userdoc": {
				"kind": "user",
				"methods": {},
				"version": 1
			}
		}
	}
}