{
	"contracts/6_EventDriven.sol": {
		"EventDrivenArchitecture": {
			"abi": [
				{
					"anonymous": false,
					"inputs": [
						{
							"indexed": true,
							"internalType": "address",
							"name": "from",
							"type": "address"
						},
						{
							"indexed": true,
							"internalType": "address",
							"name": "to",
							"type": "address"
						},
						{
							"indexed": false,
							"internalType": "uint256",
							"name": "value",
							"type": "uint256"
						}
					],
					"name": "TransferConfirmed",
					"type": "event"
				},
				{
					"anonymous": false,
					"inputs": [
						{
							"indexed": true,
							"internalType": "address",
							"name": "from",
							"type": "address"
						},
						{
							"indexed": true,
							"internalType": "address",
							"name": "to",
							"type": "address"
						},
						{
							"indexed": false,
							"internalType": "uint256",
							"name": "value",
							"type": "uint256"
						}
					],
					"name": "TransferInitiated",
					"type": "event"
				},
				{
					"inputs": [
						{
							"internalType": "bytes32",
							"name": "transferId",
							"type": "bytes32"
						}
					],
					"name": "confirmTransfer",
					"outputs": [],
					"stateMutability": "nonpayable",
					"type": "function"
				},
				{
					"inputs": [
						{
							"internalType": "address",
							"name": "to",
							"type": "address"
						},
						{
							"internalType": "uint256",
							"name": "value",
							"type": "uint256"
						}
					],
					"name": "initiateTransfer",
					"outputs": [],
					"stateMutability": "nonpayable",
					"type": "function"
				},
				{
					"inputs": [
						{
							"internalType": "bytes32",
							"name": "",
							"type": "bytes32"
						}
					],
					"name": "transferConfirmations",
					"outputs": [
						{
							"internalType": "bool",
							"name": "",
							"type": "bool"
						}
					],
					"stateMutability": "view",
					"type": "function"
				}
			],
			"devdoc": {
				"kind": "dev",
				"methods": {},
				"version": 1
			},
			"evm": {
				"assembly": "    /* \"contracts/6_EventDriven.sol\":61:837  contract EventDrivenArchitecture {... */\n  mstore(0x40, 0x80)\n  callvalue\n  dup1\n  iszero\n  tag_1\n  jumpi\n  0x00\n  dup1\n  revert\ntag_1:\n  pop\n  dataSize(sub_0)\n  dup1\n  dataOffset(sub_0)\n  0x00\n  codecopy\n  0x00\n  return\nstop\n\nsub_0: assembly {\n        /* \"contracts/6_EventDriven.sol\":61:837  contract EventDrivenArchitecture {... */\n      mstore(0x40, 0x80)\n      callvalue\n      dup1\n      iszero\n      tag_1\n      jumpi\n      0x00\n      dup1\n      revert\n    tag_1:\n      pop\n      jumpi(tag_2, lt(calldatasize, 0x04))\n      shr(0xe0, calldataload(0x00))\n      dup1\n      0x36a55b38\n      eq\n      tag_3\n      jumpi\n      dup1\n      0xb504cd1e\n      eq\n      tag_4\n      jumpi\n      dup1\n      0xec700fb4\n      eq\n      tag_5\n      jumpi\n    tag_2:\n      0x00\n      dup1\n      revert\n        /* \"contracts/6_EventDriven.sol\":539:834  function confirmTransfer(bytes32 transferId) public {... */\n    tag_3:\n      tag_6\n      0x04\n      dup1\n      calldatasize\n      sub\n      dup2\n      add\n      swap1\n      tag_7\n      swap2\n      swap1\n      tag_8\n      jump\t// in\n    tag_7:\n      tag_9\n      jump\t// in\n    tag_6:\n      stop\n        /* \"contracts/6_EventDriven.sol\":407:531  function initiateTransfer(address to, uint256 value) public {... */\n    tag_4:\n      tag_10\n      0x04\n      dup1\n      calldatasize\n      sub\n      dup2\n      add\n      swap1\n      tag_11\n      swap2\n      swap1\n      tag_12\n      jump\t// in\n    tag_11:\n      tag_13\n      jump\t// in\n    tag_10:\n      stop\n        /* \"contracts/6_EventDriven.sol\":345:398  mapping(bytes32 => bool) public transferConfirmations */\n    tag_5:\n      tag_14\n      0x04\n      dup1\n      calldatasize\n      sub\n      dup2\n      add\n      swap1\n      tag_15\n      swap2\n      swap1\n      tag_8\n      jump\t// in\n    tag_15:\n      tag_16\n      jump\t// in\n    tag_14:\n      mload(0x40)\n      tag_17\n      swap2\n      swap1\n      tag_18\n      jump\t// in\n    tag_17:\n      mload(0x40)\n      dup1\n      swap2\n      sub\n      swap1\n      return\n        /* \"contracts/6_EventDriven.sol\":539:834  function confirmTransfer(bytes32 transferId) public {... */\n    tag_9:\n        /* \"contracts/6_EventDriven.sol\":625:646  transferConfirmations */\n      0x00\n        /* \"contracts/6_EventDriven.sol\":625:658  transferConfirmations[transferId] */\n      dup1\n        /* \"contracts/6_EventDriven.sol\":647:657  transferId */\n      dup3\n        /* \"contracts/6_EventDriven.sol\":625:658  transferConfirmations[transferId] */\n      dup2\n      mstore\n      0x20\n      add\n      swap1\n      dup2\n      mstore\n      0x20\n      add\n      0x00\n      keccak256\n      0x00\n      swap1\n      sload\n      swap1\n      0x0100\n      exp\n      swap1\n      div\n      0xff\n      and\n        /* \"contracts/6_EventDriven.sol\":624:658  !transferConfirmations[transferId] */\n      iszero\n        /* \"contracts/6_EventDriven.sol\":602:712  require(... */\n      tag_20\n      jumpi\n      mload(0x40)\n      0x08c379a000000000000000000000000000000000000000000000000000000000\n      dup2\n      mstore\n      0x04\n      add\n      tag_21\n      swap1\n      tag_22\n      jump\t// in\n    tag_21:\n      mload(0x40)\n      dup1\n      swap2\n      sub\n      swap1\n      revert\n    tag_20:\n        /* \"contracts/6_EventDriven.sol\":759:763  true */\n      0x01\n        /* \"contracts/6_EventDriven.sol\":723:744  transferConfirmations */\n      0x00\n        /* \"contracts/6_EventDriven.sol\":723:756  transferConfirmations[transferId] */\n      dup1\n        /* \"contracts/6_EventDriven.sol\":745:755  transferId */\n      dup4\n        /* \"contracts/6_EventDriven.sol\":723:756  transferConfirmations[transferId] */\n      dup2\n      mstore\n      0x20\n      add\n      swap1\n      dup2\n      mstore\n      0x20\n      add\n      0x00\n      keccak256\n      0x00\n        /* \"contracts/6_EventDriven.sol\":723:763  transferConfirmations[transferId] = true */\n      0x0100\n      exp\n      dup2\n      sload\n      dup2\n      0xff\n      mul\n      not\n      and\n      swap1\n      dup4\n      iszero\n      iszero\n      mul\n      or\n      swap1\n      sstore\n      pop\n        /* \"contracts/6_EventDriven.sol\":817:821  this */\n      address\n        /* \"contracts/6_EventDriven.sol\":779:826  TransferConfirmed(msg.sender, address(this), 0) */\n      0xffffffffffffffffffffffffffffffffffffffff\n      and\n        /* \"contracts/6_EventDriven.sol\":797:807  msg.sender */\n      caller\n        /* \"contracts/6_EventDriven.sol\":779:826  TransferConfirmed(msg.sender, address(this), 0) */\n      0xffffffffffffffffffffffffffffffffffffffff\n      and\n      0x2124d88aa92c7e58a611e48ff010ce34513712663afaac6573ccfd957d896579\n        /* \"contracts/6_EventDriven.sol\":824:825  0 */\n      0x00\n        /* \"contracts/6_EventDriven.sol\":779:826  TransferConfirmed(msg.sender, address(this), 0) */\n      mload(0x40)\n      tag_23\n      swap2\n      swap1\n      tag_24\n      jump\t// in\n    tag_23:\n      mload(0x40)\n      dup1\n      swap2\n      sub\n      swap1\n      log3\n        /* \"contracts/6_EventDriven.sol\":539:834  function confirmTransfer(bytes32 transferId) public {... */\n      pop\n      jump\t// out\n        /* \"contracts/6_EventDriven.sol\":407:531  function initiateTransfer(address to, uint256 value) public {... */\n    tag_13:\n        /* \"contracts/6_EventDriven.sol\":513:515  to */\n      dup2\n        /* \"contracts/6_EventDriven.sol\":483:523  TransferInitiated(msg.sender, to, value) */\n      0xffffffffffffffffffffffffffffffffffffffff\n      and\n        /* \"contracts/6_EventDriven.sol\":501:511  msg.sender */\n      caller\n        /* \"contracts/6_EventDriven.sol\":483:523  TransferInitiated(msg.sender, to, value) */\n      0xffffffffffffffffffffffffffffffffffffffff\n      and\n      0x0cb34e106629dce34b632826bbba6b38e39c5957eb06a27e76efcc3d55da46b5\n        /* \"contracts/6_EventDriven.sol\":517:522  value */\n      dup4\n        /* \"contracts/6_EventDriven.sol\":483:523  TransferInitiated(msg.sender, to, value) */\n      mload(0x40)\n      tag_26\n      swap2\n      swap1\n      tag_27\n      jump\t// in\n    tag_26:\n      mload(0x40)\n      dup1\n      swap2\n      sub\n      swap1\n      log3\n        /* \"contracts/6_EventDriven.sol\":407:531  function initiateTransfer(address to, uint256 value) public {... */\n      pop\n      pop\n      jump\t// out\n        /* \"contracts/6_EventDriven.sol\":345:398  mapping(bytes32 => bool) public transferConfirmations */\n    tag_16:\n      mstore(0x20, 0x00)\n      dup1\n      0x00\n      mstore\n      keccak256(0x00, 0x40)\n      0x00\n      swap2\n      pop\n      sload\n      swap1\n      0x0100\n      exp\n      swap1\n      div\n      0xff\n      and\n      dup2\n      jump\t// out\n        /* \"#utility.yul\":88:205   */\n    tag_29:\n        /* \"#utility.yul\":197:198   */\n      0x00\n        /* \"#utility.yul\":194:195   */\n      dup1\n        /* \"#utility.yul\":187:199   */\n      revert\n        /* \"#utility.yul\":334:411   */\n    tag_31:\n        /* \"#utility.yul\":371:378   */\n      0x00\n        /* \"#utility.yul\":400:405   */\n      dup2\n        /* \"#utility.yul\":389:405   */\n      swap1\n      pop\n        /* \"#utility.yul\":334:411   */\n      swap2\n      swap1\n      pop\n      jump\t// out\n        /* \"#utility.yul\":417:539   */\n    tag_32:\n        /* \"#utility.yul\":490:514   */\n      tag_57\n        /* \"#utility.yul\":508:513   */\n      dup2\n        /* \"#utility.yul\":490:514   */\n      tag_31\n      jump\t// in\n    tag_57:\n        /* \"#utility.yul\":483:488   */\n      dup2\n        /* \"#utility.yul\":480:515   */\n      eq\n        /* \"#utility.yul\":470:533   */\n      tag_58\n      jumpi\n        /* \"#utility.yul\":529:530   */\n      0x00\n        /* \"#utility.yul\":526:527   */\n      dup1\n        /* \"#utility.yul\":519:531   */\n      revert\n        /* \"#utility.yul\":470:533   */\n    tag_58:\n        /* \"#utility.yul\":417:539   */\n      pop\n      jump\t// out\n        /* \"#utility.yul\":545:684   */\n    tag_33:\n        /* \"#utility.yul\":591:596   */\n      0x00\n        /* \"#utility.yul\":629:635   */\n      dup2\n        /* \"#utility.yul\":616:636   */\n      calldataload\n        /* \"#utility.yul\":607:636   */\n      swap1\n      pop\n        /* \"#utility.yul\":645:678   */\n      tag_60\n        /* \"#utility.yul\":672:677   */\n      dup2\n        /* \"#utility.yul\":645:678   */\n      tag_32\n      jump\t// in\n    tag_60:\n        /* \"#utility.yul\":545:684   */\n      swap3\n      swap2\n      pop\n      pop\n      jump\t// out\n        /* \"#utility.yul\":690:1019   */\n    tag_8:\n        /* \"#utility.yul\":749:755   */\n      0x00\n        /* \"#utility.yul\":798:800   */\n      0x20\n        /* \"#utility.yul\":786:795   */\n      dup3\n        /* \"#utility.yul\":777:784   */\n      dup5\n        /* \"#utility.yul\":773:796   */\n      sub\n        /* \"#utility.yul\":769:801   */\n      slt\n        /* \"#utility.yul\":766:885   */\n      iszero\n      tag_62\n      jumpi\n        /* \"#utility.yul\":804:883   */\n      tag_63\n      tag_29\n      jump\t// in\n    tag_63:\n        /* \"#utility.yul\":766:885   */\n    tag_62:\n        /* \"#utility.yul\":924:925   */\n      0x00\n        /* \"#utility.yul\":949:1002   */\n      tag_64\n        /* \"#utility.yul\":994:1001   */\n      dup5\n        /* \"#utility.yul\":985:991   */\n      dup3\n        /* \"#utility.yul\":974:983   */\n      dup6\n        /* \"#utility.yul\":970:992   */\n      add\n        /* \"#utility.yul\":949:1002   */\n      tag_33\n      jump\t// in\n    tag_64:\n        /* \"#utility.yul\":939:1002   */\n      swap2\n      pop\n        /* \"#utility.yul\":895:1012   */\n      pop\n        /* \"#utility.yul\":690:1019   */\n      swap3\n      swap2\n      pop\n      pop\n      jump\t// out\n        /* \"#utility.yul\":1025:1151   */\n    tag_34:\n        /* \"#utility.yul\":1062:1069   */\n      0x00\n        /* \"#utility.yul\":1102:1144   */\n      0xffffffffffffffffffffffffffffffffffffffff\n        /* \"#utility.yul\":1095:1100   */\n      dup3\n        /* \"#utility.yul\":1091:1145   */\n      and\n        /* \"#utility.yul\":1080:1145   */\n      swap1\n      pop\n        /* \"#utility.yul\":1025:1151   */\n      swap2\n      swap1\n      pop\n      jump\t// out\n        /* \"#utility.yul\":1157:1253   */\n    tag_35:\n        /* \"#utility.yul\":1194:1201   */\n      0x00\n        /* \"#utility.yul\":1223:1247   */\n      tag_67\n        /* \"#utility.yul\":1241:1246   */\n      dup3\n        /* \"#utility.yul\":1223:1247   */\n      tag_34\n      jump\t// in\n    tag_67:\n        /* \"#utility.yul\":1212:1247   */\n      swap1\n      pop\n        /* \"#utility.yul\":1157:1253   */\n      swap2\n      swap1\n      pop\n      jump\t// out\n        /* \"#utility.yul\":1259:1381   */\n    tag_36:\n        /* \"#utility.yul\":1332:1356   */\n      tag_69\n        /* \"#utility.yul\":1350:1355   */\n      dup2\n        /* \"#utility.yul\":1332:1356   */\n      tag_35\n      jump\t// in\n    tag_69:\n        /* \"#utility.yul\":1325:1330   */\n      dup2\n        /* \"#utility.yul\":1322:1357   */\n      eq\n        /* \"#utility.yul\":1312:1375   */\n      tag_70\n      jumpi\n        /* \"#utility.yul\":1371:1372   */\n      0x00\n        /* \"#utility.yul\":1368:1369   */\n      dup1\n        /* \"#utility.yul\":1361:1373   */\n      revert\n        /* \"#utility.yul\":1312:1375   */\n    tag_70:\n        /* \"#utility.yul\":1259:1381   */\n      pop\n      jump\t// out\n        /* \"#utility.yul\":1387:1526   */\n    tag_37:\n        /* \"#utility.yul\":1433:1438   */\n      0x00\n        /* \"#utility.yul\":1471:1477   */\n      dup2\n        /* \"#utility.yul\":1458:1478   */\n      calldataload\n        /* \"#utility.yul\":1449:1478   */\n      swap1\n      pop\n        /* \"#utility.yul\":1487:1520   */\n      tag_72\n        /* \"#utility.yul\":1514:1519   */\n      dup2\n        /* \"#utility.yul\":1487:1520   */\n      tag_36\n      jump\t// in\n    tag_72:\n        /* \"#utility.yul\":1387:1526   */\n      swap3\n      swap2\n      pop\n      pop\n      jump\t// out\n        /* \"#utility.yul\":1532:1609   */\n    tag_38:\n        /* \"#utility.yul\":1569:1576   */\n      0x00\n        /* \"#utility.yul\":1598:1603   */\n      dup2\n        /* \"#utility.yul\":1587:1603   */\n      swap1\n      pop\n        /* \"#utility.yul\":1532:1609   */\n      swap2\n      swap1\n      pop\n      jump\t// out\n        /* \"#utility.yul\":1615:1737   */\n    tag_39:\n        /* \"#utility.yul\":1688:1712   */\n      tag_75\n        /* \"#utility.yul\":1706:1711   */\n      dup2\n        /* \"#utility.yul\":1688:1712   */\n      tag_38\n      jump\t// in\n    tag_75:\n        /* \"#utility.yul\":1681:1686   */\n      dup2\n        /* \"#utility.yul\":1678:1713   */\n      eq\n        /* \"#utility.yul\":1668:1731   */\n      tag_76\n      jumpi\n        /* \"#utility.yul\":1727:1728   */\n      0x00\n        /* \"#utility.yul\":1724:1725   */\n      dup1\n        /* \"#utility.yul\":1717:1729   */\n      revert\n        /* \"#utility.yul\":1668:1731   */\n    tag_76:\n        /* \"#utility.yul\":1615:1737   */\n      pop\n      jump\t// out\n        /* \"#utility.yul\":1743:1882   */\n    tag_40:\n        /* \"#utility.yul\":1789:1794   */\n      0x00\n        /* \"#utility.yul\":1827:1833   */\n      dup2\n        /* \"#utility.yul\":1814:1834   */\n      calldataload\n        /* \"#utility.yul\":1805:1834   */\n      swap1\n      pop\n        /* \"#utility.yul\":1843:1876   */\n      tag_78\n        /* \"#utility.yul\":1870:1875   */\n      dup2\n        /* \"#utility.yul\":1843:1876   */\n      tag_39\n      jump\t// in\n    tag_78:\n        /* \"#utility.yul\":1743:1882   */\n      swap3\n      swap2\n      pop\n      pop\n      jump\t// out\n        /* \"#utility.yul\":1888:2362   */\n    tag_12:\n        /* \"#utility.yul\":1956:1962   */\n      0x00\n        /* \"#utility.yul\":1964:1970   */\n      dup1\n        /* \"#utility.yul\":2013:2015   */\n      0x40\n        /* \"#utility.yul\":2001:2010   */\n      dup4\n        /* \"#utility.yul\":1992:1999   */\n      dup6\n        /* \"#utility.yul\":1988:2011   */\n      sub\n        /* \"#utility.yul\":1984:2016   */\n      slt\n        /* \"#utility.yul\":1981:2100   */\n      iszero\n      tag_80\n      jumpi\n        /* \"#utility.yul\":2019:2098   */\n      tag_81\n      tag_29\n      jump\t// in\n    tag_81:\n        /* \"#utility.yul\":1981:2100   */\n    tag_80:\n        /* \"#utility.yul\":2139:2140   */\n      0x00\n        /* \"#utility.yul\":2164:2217   */\n      tag_82\n        /* \"#utility.yul\":2209:2216   */\n      dup6\n        /* \"#utility.yul\":2200:2206   */\n      dup3\n        /* \"#utility.yul\":2189:2198   */\n      dup7\n        /* \"#utility.yul\":2185:2207   */\n      add\n        /* \"#utility.yul\":2164:2217   */\n      tag_37\n      jump\t// in\n    tag_82:\n        /* \"#utility.yul\":2154:2217   */\n      swap3\n      pop\n        /* \"#utility.yul\":2110:2227   */\n      pop\n        /* \"#utility.yul\":2266:2268   */\n      0x20\n        /* \"#utility.yul\":2292:2345   */\n      tag_83\n        /* \"#utility.yul\":2337:2344   */\n      dup6\n        /* \"#utility.yul\":2328:2334   */\n      dup3\n        /* \"#utility.yul\":2317:2326   */\n      dup7\n        /* \"#utility.yul\":2313:2335   */\n      add\n        /* \"#utility.yul\":2292:2345   */\n      tag_40\n      jump\t// in\n    tag_83:\n        /* \"#utility.yul\":2282:2345   */\n      swap2\n      pop\n        /* \"#utility.yul\":2237:2355   */\n      pop\n        /* \"#utility.yul\":1888:2362   */\n      swap3\n      pop\n      swap3\n      swap1\n      pop\n      jump\t// out\n        /* \"#utility.yul\":2368:2458   */\n    tag_41:\n        /* \"#utility.yul\":2402:2409   */\n      0x00\n        /* \"#utility.yul\":2445:2450   */\n      dup2\n        /* \"#utility.yul\":2438:2451   */\n      iszero\n        /* \"#utility.yul\":2431:2452   */\n      iszero\n        /* \"#utility.yul\":2420:2452   */\n      swap1\n      pop\n        /* \"#utility.yul\":2368:2458   */\n      swap2\n      swap1\n      pop\n      jump\t// out\n        /* \"#utility.yul\":2464:2573   */\n    tag_42:\n        /* \"#utility.yul\":2545:2566   */\n      tag_86\n        /* \"#utility.yul\":2560:2565   */\n      dup2\n        /* \"#utility.yul\":2545:2566   */\n      tag_41\n      jump\t// in\n    tag_86:\n        /* \"#utility.yul\":2540:2543   */\n      dup3\n        /* \"#utility.yul\":2533:2567   */\n      mstore\n        /* \"#utility.yul\":2464:2573   */\n      pop\n      pop\n      jump\t// out\n        /* \"#utility.yul\":2579:2789   */\n    tag_18:\n        /* \"#utility.yul\":2666:2670   */\n      0x00\n        /* \"#utility.yul\":2704:2706   */\n      0x20\n        /* \"#utility.yul\":2693:2702   */\n      dup3\n        /* \"#utility.yul\":2689:2707   */\n      add\n        /* \"#utility.yul\":2681:2707   */\n      swap1\n      pop\n        /* \"#utility.yul\":2717:2782   */\n      tag_88\n        /* \"#utility.yul\":2779:2780   */\n      0x00\n        /* \"#utility.yul\":2768:2777   */\n      dup4\n        /* \"#utility.yul\":2764:2781   */\n      add\n        /* \"#utility.yul\":2755:2761   */\n      dup5\n        /* \"#utility.yul\":2717:2782   */\n      tag_42\n      jump\t// in\n    tag_88:\n        /* \"#utility.yul\":2579:2789   */\n      swap3\n      swap2\n      pop\n      pop\n      jump\t// out\n        /* \"#utility.yul\":2795:2964   */\n    tag_43:\n        /* \"#utility.yul\":2879:2890   */\n      0x00\n        /* \"#utility.yul\":2913:2919   */\n      dup3\n        /* \"#utility.yul\":2908:2911   */\n      dup3\n        /* \"#utility.yul\":2901:2920   */\n      mstore\n        /* \"#utility.yul\":2953:2957   */\n      0x20\n        /* \"#utility.yul\":2948:2951   */\n      dup3\n        /* \"#utility.yul\":2944:2958   */\n      add\n        /* \"#utility.yul\":2929:2958   */\n      swap1\n      pop\n        /* \"#utility.yul\":2795:2964   */\n      swap3\n      swap2\n      pop\n      pop\n      jump\t// out\n        /* \"#utility.yul\":2970:3146   */\n    tag_44:\n        /* \"#utility.yul\":3110:3138   */\n      0x5472616e7366657220616c726561647920636f6e6669726d6564000000000000\n        /* \"#utility.yul\":3106:3107   */\n      0x00\n        /* \"#utility.yul\":3098:3104   */\n      dup3\n        /* \"#utility.yul\":3094:3108   */\n      add\n        /* \"#utility.yul\":3087:3139   */\n      mstore\n        /* \"#utility.yul\":2970:3146   */\n      pop\n      jump\t// out\n        /* \"#utility.yul\":3152:3518   */\n    tag_45:\n        /* \"#utility.yul\":3294:3297   */\n      0x00\n        /* \"#utility.yul\":3315:3382   */\n      tag_92\n        /* \"#utility.yul\":3379:3381   */\n      0x1a\n        /* \"#utility.yul\":3374:3377   */\n      dup4\n        /* \"#utility.yul\":3315:3382   */\n      tag_43\n      jump\t// in\n    tag_92:\n        /* \"#utility.yul\":3308:3382   */\n      swap2\n      pop\n        /* \"#utility.yul\":3391:3484   */\n      tag_93\n        /* \"#utility.yul\":3480:3483   */\n      dup3\n        /* \"#utility.yul\":3391:3484   */\n      tag_44\n      jump\t// in\n    tag_93:\n        /* \"#utility.yul\":3509:3511   */\n      0x20\n        /* \"#utility.yul\":3504:3507   */\n      dup3\n        /* \"#utility.yul\":3500:3512   */\n      add\n        /* \"#utility.yul\":3493:3512   */\n      swap1\n      pop\n        /* \"#utility.yul\":3152:3518   */\n      swap2\n      swap1\n      pop\n      jump\t// out\n        /* \"#utility.yul\":3524:3943   */\n    tag_22:\n        /* \"#utility.yul\":3690:3694   */\n      0x00\n        /* \"#utility.yul\":3728:3730   */\n      0x20\n        /* \"#utility.yul\":3717:3726   */\n      dup3\n        /* \"#utility.yul\":3713:3731   */\n      add\n        /* \"#utility.yul\":3705:3731   */\n      swap1\n      pop\n        /* \"#utility.yul\":3777:3786   */\n      dup2\n        /* \"#utility.yul\":3771:3775   */\n      dup2\n        /* \"#utility.yul\":3767:3787   */\n      sub\n        /* \"#utility.yul\":3763:3764   */\n      0x00\n        /* \"#utility.yul\":3752:3761   */\n      dup4\n        /* \"#utility.yul\":3748:3765   */\n      add\n        /* \"#utility.yul\":3741:3788   */\n      mstore\n        /* \"#utility.yul\":3805:3936   */\n      tag_95\n        /* \"#utility.yul\":3931:3935   */\n      dup2\n        /* \"#utility.yul\":3805:3936   */\n      tag_45\n      jump\t// in\n    tag_95:\n        /* \"#utility.yul\":3797:3936   */\n      swap1\n      pop\n        /* \"#utility.yul\":3524:3943   */\n      swap2\n      swap1\n      pop\n      jump\t// out\n        /* \"#utility.yul\":3949:4034   */\n    tag_46:\n        /* \"#utility.yul\":3994:4001   */\n      0x00\n        /* \"#utility.yul\":4023:4028   */\n      dup2\n        /* \"#utility.yul\":4012:4028   */\n      swap1\n      pop\n        /* \"#utility.yul\":3949:4034   */\n      swap2\n      swap1\n      pop\n      jump\t// out\n        /* \"#utility.yul\":4040:4100   */\n    tag_47:\n        /* \"#utility.yul\":4068:4071   */\n      0x00\n        /* \"#utility.yul\":4089:4094   */\n      dup2\n        /* \"#utility.yul\":4082:4094   */\n      swap1\n      pop\n        /* \"#utility.yul\":4040:4100   */\n      swap2\n      swap1\n      pop\n      jump\t// out\n        /* \"#utility.yul\":4106:4264   */\n    tag_48:\n        /* \"#utility.yul\":4164:4173   */\n      0x00\n        /* \"#utility.yul\":4197:4258   */\n      tag_99\n        /* \"#utility.yul\":4215:4257   */\n      tag_100\n        /* \"#utility.yul\":4224:4256   */\n      tag_101\n        /* \"#utility.yul\":4250:4255   */\n      dup5\n        /* \"#utility.yul\":4224:4256   */\n      tag_46\n      jump\t// in\n    tag_101:\n        /* \"#utility.yul\":4215:4257   */\n      tag_47\n      jump\t// in\n    tag_100:\n        /* \"#utility.yul\":4197:4258   */\n      tag_38\n      jump\t// in\n    tag_99:\n        /* \"#utility.yul\":4184:4258   */\n      swap1\n      pop\n        /* \"#utility.yul\":4106:4264   */\n      swap2\n      swap1\n      pop\n      jump\t// out\n        /* \"#utility.yul\":4270:4417   */\n    tag_49:\n        /* \"#utility.yul\":4365:4410   */\n      tag_103\n        /* \"#utility.yul\":4404:4409   */\n      dup2\n        /* \"#utility.yul\":4365:4410   */\n      tag_48\n      jump\t// in\n    tag_103:\n        /* \"#utility.yul\":4360:4363   */\n      dup3\n        /* \"#utility.yul\":4353:4411   */\n      mstore\n        /* \"#utility.yul\":4270:4417   */\n      pop\n      pop\n      jump\t// out\n        /* \"#utility.yul\":4423:4661   */\n    tag_24:\n        /* \"#utility.yul\":4524:4528   */\n      0x00\n        /* \"#utility.yul\":4562:4564   */\n      0x20\n        /* \"#utility.yul\":4551:4560   */\n      dup3\n        /* \"#utility.yul\":4547:4565   */\n      add\n        /* \"#utility.yul\":4539:4565   */\n      swap1\n      pop\n        /* \"#utility.yul\":4575:4654   */\n      tag_105\n        /* \"#utility.yul\":4651:4652   */\n      0x00\n        /* \"#utility.yul\":4640:4649   */\n      dup4\n        /* \"#utility.yul\":4636:4653   */\n      add\n        /* \"#utility.yul\":4627:4633   */\n      dup5\n        /* \"#utility.yul\":4575:4654   */\n      tag_49\n      jump\t// in\n    tag_105:\n        /* \"#utility.yul\":4423:4661   */\n      swap3\n      swap2\n      pop\n      pop\n      jump\t// out\n        /* \"#utility.yul\":4667:4785   */\n    tag_50:\n        /* \"#utility.yul\":4754:4778   */\n      tag_107\n        /* \"#utility.yul\":4772:4777   */\n      dup2\n        /* \"#utility.yul\":4754:4778   */\n      tag_38\n      jump\t// in\n    tag_107:\n        /* \"#utility.yul\":4749:4752   */\n      dup3\n        /* \"#utility.yul\":4742:4779   */\n      mstore\n        /* \"#utility.yul\":4667:4785   */\n      pop\n      pop\n      jump\t// out\n        /* \"#utility.yul\":4791:5013   */\n    tag_27:\n        /* \"#utility.yul\":4884:4888   */\n      0x00\n        /* \"#utility.yul\":4922:4924   */\n      0x20\n        /* \"#utility.yul\":4911:4920   */\n      dup3\n        /* \"#utility.yul\":4907:4925   */\n      add\n        /* \"#utility.yul\":4899:4925   */\n      swap1\n      pop\n        /* \"#utility.yul\":4935:5006   */\n      tag_109\n        /* \"#utility.yul\":5003:5004   */\n      0x00\n        /* \"#utility.yul\":4992:5001   */\n      dup4\n        /* \"#utility.yul\":4988:5005   */\n      add\n        /* \"#utility.yul\":4979:4985   */\n      dup5\n        /* \"#utility.yul\":4935:5006   */\n      tag_50\n      jump\t// in\n    tag_109:\n        /* \"#utility.yul\":4791:5013   */\n      swap3\n      swap2\n      pop\n      pop\n      jump\t// out\n\n    auxdata: 0xa26469706673582212209aaadb5d442da5cbd31542e6bf57f817e155be3c28df7edd1c007b0123158f2464736f6c634300081a0033\n}\n",
				"bytecode": {
					"linkReferences": {},
					"object": "6080604052348015600e575f80fd5b506104ae8061001c5f395ff3fe608060405234801561000f575f80fd5b506004361061003f575f3560e01c806336a55b3814610043578063b504cd1e1461005f578063ec700fb41461007b575b5f80fd5b61005d60048036038101906100589190610254565b6100ab565b005b6100796004803603810190610074919061030c565b610198565b005b61009560048036038101906100909190610254565b610201565b6040516100a29190610364565b60405180910390f35b5f808281526020019081526020015f205f9054906101000a900460ff1615610108576040517f08c379a00000000000000000000000000000000000000000000000000000000081526004016100ff906103d7565b60405180910390fd5b60015f808381526020019081526020015f205f6101000a81548160ff0219169083151502179055503073ffffffffffffffffffffffffffffffffffffffff163373ffffffffffffffffffffffffffffffffffffffff167f2124d88aa92c7e58a611e48ff010ce34513712663afaac6573ccfd957d8965795f60405161018d9190610437565b60405180910390a350565b8173ffffffffffffffffffffffffffffffffffffffff163373ffffffffffffffffffffffffffffffffffffffff167f0cb34e106629dce34b632826bbba6b38e39c5957eb06a27e76efcc3d55da46b5836040516101f5919061045f565b60405180910390a35050565b5f602052805f5260405f205f915054906101000a900460ff1681565b5f80fd5b5f819050919050565b61023381610221565b811461023d575f80fd5b50565b5f8135905061024e8161022a565b92915050565b5f602082840312156102695761026861021d565b5b5f61027684828501610240565b91505092915050565b5f73ffffffffffffffffffffffffffffffffffffffff82169050919050565b5f6102a88261027f565b9050919050565b6102b88161029e565b81146102c2575f80fd5b50565b5f813590506102d3816102af565b92915050565b5f819050919050565b6102eb816102d9565b81146102f5575f80fd5b50565b5f81359050610306816102e2565b92915050565b5f80604083850312156103225761032161021d565b5b5f61032f858286016102c5565b9250506020610340858286016102f8565b9150509250929050565b5f8115159050919050565b61035e8161034a565b82525050565b5f6020820190506103775f830184610355565b92915050565b5f82825260208201905092915050565b7f5472616e7366657220616c726561647920636f6e6669726d65640000000000005f82015250565b5f6103c1601a8361037d565b91506103cc8261038d565b602082019050919050565b5f6020820190508181035f8301526103ee816103b5565b9050919050565b5f819050919050565b5f819050919050565b5f61042161041c610417846103f5565b6103fe565b6102d9565b9050919050565b61043181610407565b82525050565b5f60208201905061044a5f830184610428565b92915050565b610459816102d9565b82525050565b5f6020820190506104725f830184610450565b9291505056fea26469706673582212209aaadb5d442da5cbd31542e6bf57f817e155be3c28df7edd1c007b0123158f2464736f6c634300081a0033",
					"opcodes": "PUSH1 0x80 PUSH1 0x40 MSTORE CALLVALUE DUP1 ISZERO PUSH1 0xE JUMPI PUSH0 DUP1 REVERT JUMPDEST POP PUSH2 0x4AE DUP1 PUSH2 0x1C PUSH0 CODECOPY PUSH0 RETURN INVALID PUSH1 0x80 PUSH1 0x40 MSTORE CALLVALUE DUP1 ISZERO PUSH2 0xF JUMPI PUSH0 DUP1 REVERT JUMPDEST POP PUSH1 0x4 CALLDATASIZE LT PUSH2 0x3F JUMPI PUSH0 CALLDATALOAD PUSH1 0xE0 SHR DUP1 PUSH4 0x36A55B38 EQ PUSH2 0x43 JUMPI DUP1 PUSH4 0xB504CD1E EQ PUSH2 0x5F JUMPI DUP1 PUSH4 0xEC700FB4 EQ PUSH2 0x7B JUMPI JUMPDEST PUSH0 DUP1 REVERT JUMPDEST PUSH2 0x5D PUSH1 0x4 DUP1 CALLDATASIZE SUB DUP2 ADD SWAP1 PUSH2 0x58 SWAP2 SWAP1 PUSH2 0x254 JUMP JUMPDEST PUSH2 0xAB JUMP JUMPDEST STOP JUMPDEST PUSH2 0x79 PUSH1 0x4 DUP1 CALLDATASIZE SUB DUP2 ADD SWAP1 PUSH2 0x74 SWAP2 SWAP1 PUSH2 0x30C JUMP JUMPDEST PUSH2 0x198 JUMP JUMPDEST STOP JUMPDEST PUSH2 0x95 PUSH1 0x4 DUP1 CALLDATASIZE SUB DUP2 ADD SWAP1 PUSH2 0x90 SWAP2 SWAP1 PUSH2 0x254 JUMP JUMPDEST PUSH2 0x201 JUMP JUMPDEST PUSH1 0x40 MLOAD PUSH2 0xA2 SWAP2 SWAP1 PUSH2 0x364 JUMP JUMPDEST PUSH1 0x40 MLOAD DUP1 SWAP2 SUB SWAP1 RETURN JUMPDEST PUSH0 DUP1 DUP3 DUP2 MSTORE PUSH1 0x20 ADD SWAP1 DUP2 MSTORE PUSH1 0x20 ADD PUSH0 KECCAK256 PUSH0 SWAP1 SLOAD SWAP1 PUSH2 0x100 EXP SWAP1 DIV PUSH1 0xFF AND ISZERO PUSH2 0x108 JUMPI PUSH1 0x40 MLOAD PUSH32 0x8C379A000000000000000000000000000000000000000000000000000000000 DUP2 MSTORE PUSH1 0x4 ADD PUSH2 0xFF SWAP1 PUSH2 0x3D7 JUMP JUMPDEST PUSH1 0x40 MLOAD DUP1 SWAP2 SUB SWAP1 REVERT JUMPDEST PUSH1 0x1 PUSH0 DUP1 DUP4 DUP2 MSTORE PUSH1 0x20 ADD SWAP1 DUP2 MSTORE PUSH1 0x20 ADD PUSH0 KECCAK256 PUSH0 PUSH2 0x100 EXP DUP2 SLOAD DUP2 PUSH1 0xFF MUL NOT AND SWAP1 DUP4 ISZERO ISZERO MUL OR SWAP1 SSTORE POP ADDRESS PUSH20 0xFFFFFFFFFFFFFFFFFFFFFFFFFFFFFFFFFFFFFFFF AND CALLER PUSH20 0xFFFFFFFFFFFFFFFFFFFFFFFFFFFFFFFFFFFFFFFF AND PUSH32 0x2124D88AA92C7E58A611E48FF010CE34513712663AFAAC6573CCFD957D896579 PUSH0 PUSH1 0x40 MLOAD PUSH2 0x18D SWAP2 SWAP1 PUSH2 0x437 JUMP JUMPDEST PUSH1 0x40 MLOAD DUP1 SWAP2 SUB SWAP1 LOG3 POP JUMP JUMPDEST DUP2 PUSH20 0xFFFFFFFFFFFFFFFFFFFFFFFFFFFFFFFFFFFFFFFF AND CALLER PUSH20 0xFFFFFFFFFFFFFFFFFFFFFFFFFFFFFFFFFFFFFFFF AND PUSH32 0xCB34E106629DCE34B632826BBBA6B38E39C5957EB06A27E76EFCC3D55DA46B5 DUP4 PUSH1 0x40 MLOAD PUSH2 0x1F5 SWAP2 SWAP1 PUSH2 0x45F JUMP JUMPDEST PUSH1 0x40 MLOAD DUP1 SWAP2 SUB SWAP1 LOG3 POP POP JUMP JUMPDEST PUSH0 PUSH1 0x20 MSTORE DUP1 PUSH0 MSTORE PUSH1 0x40 PUSH0 KECCAK256 PUSH0 SWAP2 POP SLOAD SWAP1 PUSH2 0x100 EXP SWAP1 DIV PUSH1 0xFF AND DUP2 JUMP JUMPDEST PUSH0 DUP1 REVERT JUMPDEST PUSH0 DUP2 SWAP1 POP SWAP2 SWAP1 POP JUMP JUMPDEST PUSH2 0x233 DUP2 PUSH2 0x221 JUMP JUMPDEST DUP2 EQ PUSH2 0x23D JUMPI PUSH0 DUP1 REVERT JUMPDEST POP JUMP JUMPDEST PUSH0 DUP2 CALLDATALOAD SWAP1 POP PUSH2 0x24E DUP2 PUSH2 0x22A JUMP JUMPDEST SWAP3 SWAP2 POP POP JUMP JUMPDEST PUSH0 PUSH1 0x20 DUP3 DUP5 SUB SLT ISZERO PUSH2 0x269 JUMPI PUSH2 0x268 PUSH2 0x21D JUMP JUMPDEST JUMPDEST PUSH0 PUSH2 0x276 DUP5 DUP3 DUP6 ADD PUSH2 0x240 JUMP JUMPDEST SWAP2 POP POP SWAP3 SWAP2 POP POP JUMP JUMPDEST PUSH0 PUSH20 0xFFFFFFFFFFFFFFFFFFFFFFFFFFFFFFFFFFFFFFFF DUP3 AND SWAP1 POP SWAP2 SWAP1 POP JUMP JUMPDEST PUSH0 PUSH2 0x2A8 DUP3 PUSH2 0x27F JUMP JUMPDEST SWAP1 POP SWAP2 SWAP1 POP JUMP JUMPDEST PUSH2 0x2B8 DUP2 PUSH2 0x29E JUMP JUMPDEST DUP2 EQ PUSH2 0x2C2 JUMPI PUSH0 DUP1 REVERT JUMPDEST POP JUMP JUMPDEST PUSH0 DUP2 CALLDATALOAD SWAP1 POP PUSH2 0x2D3 DUP2 PUSH2 0x2AF JUMP JUMPDEST SWAP3 SWAP2 POP POP JUMP JUMPDEST PUSH0 DUP2 SWAP1 POP SWAP2 SWAP1 POP JUMP JUMPDEST PUSH2 0x2EB DUP2 PUSH2 0x2D9 JUMP JUMPDEST DUP2 EQ PUSH2 0x2F5 JUMPI PUSH0 DUP1 REVERT JUMPDEST POP JUMP JUMPDEST PUSH0 DUP2 CALLDATALOAD SWAP1 POP PUSH2 0x306 DUP2 PUSH2 0x2E2 JUMP JUMPDEST SWAP3 SWAP2 POP POP JUMP JUMPDEST PUSH0 DUP1 PUSH1 0x40 DUP4 DUP6 SUB SLT ISZERO PUSH2 0x322 JUMPI PUSH2 0x321 PUSH2 0x21D JUMP JUMPDEST JUMPDEST PUSH0 PUSH2 0x32F DUP6 DUP3 DUP7 ADD PUSH2 0x2C5 JUMP JUMPDEST SWAP3 POP POP PUSH1 0x20 PUSH2 0x340 DUP6 DUP3 DUP7 ADD PUSH2 0x2F8 JUMP JUMPDEST SWAP2 POP POP SWAP3 POP SWAP3 SWAP1 POP JUMP JUMPDEST PUSH0 DUP2 ISZERO ISZERO SWAP1 POP SWAP2 SWAP1 POP JUMP JUMPDEST PUSH2 0x35E DUP2 PUSH2 0x34A JUMP JUMPDEST DUP3 MSTORE POP POP JUMP JUMPDEST PUSH0 PUSH1 0x20 DUP3 ADD SWAP1 POP PUSH2 0x377 PUSH0 DUP4 ADD DUP5 PUSH2 0x355 JUMP JUMPDEST SWAP3 SWAP2 POP POP JUMP JUMPDEST PUSH0 DUP3 DUP3 MSTORE PUSH1 0x20 DUP3 ADD SWAP1 POP SWAP3 SWAP2 POP POP JUMP JUMPDEST PUSH32 0x5472616E7366657220616C726561647920636F6E6669726D6564000000000000 PUSH0 DUP3 ADD MSTORE POP JUMP JUMPDEST PUSH0 PUSH2 0x3C1 PUSH1 0x1A DUP4 PUSH2 0x37D JUMP JUMPDEST SWAP2 POP PUSH2 0x3CC DUP3 PUSH2 0x38D JUMP JUMPDEST PUSH1 0x20 DUP3 ADD SWAP1 POP SWAP2 SWAP1 POP JUMP JUMPDEST PUSH0 PUSH1 0x20 DUP3 ADD SWAP1 POP DUP2 DUP2 SUB PUSH0 DUP4 ADD MSTORE PUSH2 0x3EE DUP2 PUSH2 0x3B5 JUMP JUMPDEST SWAP1 POP SWAP2 SWAP1 POP JUMP JUMPDEST PUSH0 DUP2 SWAP1 POP SWAP2 SWAP1 POP JUMP JUMPDEST PUSH0 DUP2 SWAP1 POP SWAP2 SWAP1 POP JUMP JUMPDEST PUSH0 PUSH2 0x421 PUSH2 0x41C PUSH2 0x417 DUP5 PUSH2 0x3F5 JUMP JUMPDEST PUSH2 0x3FE JUMP JUMPDEST PUSH2 0x2D9 JUMP JUMPDEST SWAP1 POP SWAP2 SWAP1 POP JUMP JUMPDEST PUSH2 0x431 DUP2 PUSH2 0x407 JUMP JUMPDEST DUP3 MSTORE POP POP JUMP JUMPDEST PUSH0 PUSH1 0x20 DUP3 ADD SWAP1 POP PUSH2 0x44A PUSH0 DUP4 ADD DUP5 PUSH2 0x428 JUMP JUMPDEST SWAP3 SWAP2 POP POP JUMP JUMPDEST PUSH2 0x459 DUP2 PUSH2 0x2D9 JUMP JUMPDEST DUP3 MSTORE POP POP JUMP JUMPDEST PUSH0 PUSH1 0x20 DUP3 ADD SWAP1 POP PUSH2 0x472 PUSH0 DUP4 ADD DUP5 PUSH2 0x450 JUMP JUMPDEST SWAP3 SWAP2 POP POP JUMP INVALID LOG2 PUSH5 0x6970667358 0x22 SLT KECCAK256 SWAP11 0xAA 0xDB TSTORE PREVRANDAO 0x2D 0xA5 0xCB 0xD3 ISZERO TIMESTAMP 0xE6 0xBF JUMPI 0xF8 OR 0xE1 SSTORE 0xBE EXTCODECOPY 0x28 0xDF PUSH31 0xDD1C007B0123158F2464736F6C634300081A00330000000000000000000000 "
				},
				"gasEstimates": {
					"creation": {
						"codeDepositCost": "239600",
						"executionCost": "279",
						"totalCost": "239879"
					},
					"external": {
						"confirmTransfer(bytes32)": "29031",
						"initiateTransfer(address,uint256)": "infinite",
						"transferConfirmations(bytes32)": "2806"
					}
				},
				"methodIdentifiers": {
					"confirmTransfer(bytes32)": "36a55b38",
					"initiateTransfer(address,uint256)": "b504cd1e",
					"transferConfirmations(bytes32)": "ec700fb4"
				}
			},
			"storageLayout": {
				"storage": [
					{
						"astId": 21,
						"contract": "contracts/6_EventDriven.sol:EventDrivenArchitecture",
						"label": "transferConfirmations",
						"offset": 0,
						"slot": "0",
						"type": "t_mapping(t_bytes32,t_bool)"
					}
				],
				"types": {
					"t_bool": {
						"encoding": "inplace",
						"label": "bool",
						"numberOfBytes": "1"
					},
					"t_bytes32": {
						"encoding": "inplace",
						"label": "bytes32",
						"numberOfBytes": "32"
					},
					"t_mapping(t_bytes32,t_bool)": {
						"encoding": "mapping",
						"key": "t_bytes32",
						"label": "mapping(bytes32 => bool)",
						"numberOfBytes": "32",
						"value": "t_bool"
					}
				}
			},
			"userdoc": {
				"kind": "user",
				"methods": {},
				"version": 1
			}
		}
	}
}