{
	"data": {
		"bytecode": {
			"linkReferences": {},
			"object": "6080604052348015600e575f80fd5b50606a80601a5f395ff3fe6080604052348015600e575f80fd5b50600436106026575f3560e01c8063646d9ccb14602a575b5f80fd5b60306032565b005b56fea2646970667358221220fe2f842c552ac87d2d05d8fbaf9f4e3a789367adde61fd2a76452a3d28186b3e64736f6c634300081a0033",
			"opcodes": "PUSH1 0x80 PUSH1 0x40 MSTORE CALLVALUE DUP1 ISZERO PUSH1 0xE JUMPI PUSH0 DUP1 REVERT JUMPDEST POP PUSH1 0x6A DUP1 PUSH1 0x1A PUSH0 CODECOPY PUSH0 RETURN INVALID PUSH1 0x80 PUSH1 0x40 MSTORE CALLVALUE DUP1 ISZERO PUSH1 0xE JUMPI PUSH0 DUP1 REVERT JUMPDEST POP PUSH1 0x4 CALLDATASIZE LT PUSH1 0x26 JUMPI PUSH0 CALLDATALOAD PUSH1 0xE0 SHR DUP1 PUSH4 0x646D9CCB EQ PUSH1 0x2A JUMPI JUMPDEST PUSH0 DUP1 REVERT JUMPDEST PUSH1 0x30 PUSH1 0x32 JUMP JUMPDEST STOP JUMPDEST JUMP INVALID LOG2 PUSH5 0x6970667358 0x22 SLT KECCAK256 INVALID 0x2F DUP5 0x2C SSTORE 0x2A 0xC8 PUSH30 0x2D05D8FBAF9F4E3A789367ADDE61FD2A76452A3D28186B3E64736F6C6343 STOP ADDMOD BYTE STOP CALLER "
		},
		"gasEstimates": {
			"creation": {
				"codeDepositCost": "21200",
				"executionCost": "73",
				"totalCost": "21273"
			},
			"external": {
				"doSomethingWithPool()": "121"
			}
		},
		"methodIdentifiers": {
			"doSomethingWithPool()": "646d9ccb"
		}
	},
	"abi": [
		{
			"inputs": [],
			"name": "doSomethingWithPool",
			"outputs": [],
			"stateMutability": "nonpayable",
			"type": "function"
		}
	]
}