{
	"data": {
		"bytecode": {
			"linkReferences": {},
			"object": "608060405234801561000f575f80fd5b506040516108903803806108908339818101604052810190610031919061011e565b5f8211801561003f57505f81115b61007e576040517f08c379a0000000000000000000000000000000000000000000000000000000008152600401610075906101dc565b60405180910390fd5b8360038190555082600481905550815f819055508060018190555080826100a59190610227565b60028190555050505050610268565b5f80fd5b5f819050919050565b6100ca816100b8565b81146100d4575f80fd5b50565b5f815190506100e5816100c1565b92915050565b5f819050919050565b6100fd816100eb565b8114610107575f80fd5b50565b5f81519050610118816100f4565b92915050565b5f805f8060808587031215610136576101356100b4565b5b5f610143878288016100d7565b9450506020610154878288016100d7565b93505060406101658782880161010a565b92505060606101768782880161010a565b91505092959194509250565b5f82825260208201905092915050565b7f696e76616c6964207265736572766573000000000000000000000000000000005f82015250565b5f6101c6601083610182565b91506101d182610192565b602082019050919050565b5f6020820190508181035f8301526101f3816101ba565b9050919050565b7f4e487b71000000000000000000000000000000000000000000000000000000005f52601160045260245ffd5b5f610231826100eb565b915061023c836100eb565b925082820261024a816100eb565b91508282048414831517610261576102606101fa565b5b5092915050565b61061b806102755f395ff3fe608060405234801561000f575f80fd5b5060043610610086575f3560e01c80635f64b55b116100595780635f64b55b1461011557806360641e591461013357806398d5fdca14610151578063dc5fa6c51461016f57610086565b80630902f1ac1461008a5780630fc63d10146100a957806319e36f3b146100c757806343dbf2a9146100e5575b5f80fd5b61009261018d565b6040516100a092919061030e565b60405180910390f35b6100b161019c565b6040516100be919061034d565b60405180910390f35b6100cf6101a2565b6040516100dc9190610366565b60405180910390f35b6100ff60048036038101906100fa91906103d7565b6101a8565b60405161010c9190610366565b60405180910390f35b61011d6102d0565b60405161012a919061034d565b60405180910390f35b61013b6102d6565b6040516101489190610366565b60405180910390f35b6101596102dc565b6040516101669190610366565b60405180910390f35b6101776102f1565b6040516101849190610366565b60405180910390f35b5f805f54600154915091509091565b60035481565b60015481565b5f8083116101eb576040517f08c379a00000000000000000000000000000000000000000000000000000000081526004016101e29061046f565b60405180910390fd5b6003548214806101fc575060045482145b61023b576040517f08c379a0000000000000000000000000000000000000000000000000000000008152600401610232906104d7565b60405180910390fd5b6003548203610289575f835f546102529190610522565b90505f816002546102639190610582565b90508060015461027391906105b2565b9250815f819055508060018190555050506102ca565b5f836001546102989190610522565b90505f816002546102a99190610582565b9050805f546102b891906105b2565b9250805f819055508160018190555050505b92915050565b60045481565b60025481565b5f6001545f546102ec9190610582565b905090565b5f5481565b5f819050919050565b610308816102f6565b82525050565b5f6040820190506103215f8301856102ff565b61032e60208301846102ff565b9392505050565b5f819050919050565b61034781610335565b82525050565b5f6020820190506103605f83018461033e565b92915050565b5f6020820190506103795f8301846102ff565b92915050565b5f80fd5b61038c816102f6565b8114610396575f80fd5b50565b5f813590506103a781610383565b92915050565b6103b681610335565b81146103c0575f80fd5b50565b5f813590506103d1816103ad565b92915050565b5f80604083850312156103ed576103ec61037f565b5b5f6103fa85828601610399565b925050602061040b858286016103c3565b9150509250929050565b5f82825260208201905092915050565b7f416d6f756e74206d7573742062652067726561746572207468616e20300000005f82015250565b5f610459601d83610415565b915061046482610425565b602082019050919050565b5f6020820190508181035f8301526104868161044d565b9050919050565b7f496e76616c696420746f6b656e000000000000000000000000000000000000005f82015250565b5f6104c1600d83610415565b91506104cc8261048d565b602082019050919050565b5f6020820190508181035f8301526104ee816104b5565b9050919050565b7f4e487b71000000000000000000000000000000000000000000000000000000005f52601160045260245ffd5b5f61052c826102f6565b9150610537836102f6565b925082820190508082111561054f5761054e6104f5565b5b92915050565b7f4e487b71000000000000000000000000000000000000000000000000000000005f52601260045260245ffd5b5f61058c826102f6565b9150610597836102f6565b9250826105a7576105a6610555565b5b828204905092915050565b5f6105bc826102f6565b91506105c7836102f6565b92508282039050818111156105df576105de6104f5565b5b9291505056fea2646970667358221220366f48aa768c8aa9e69e86efc3f4d7f29548a1b7f6c64f0d7e36a5824353193d64736f6c634300081a0033",
			"opcodes": "PUSH1 0x80 PUSH1 0x40 MSTORE CALLVALUE DUP1 ISZERO PUSH2 0xF JUMPI PUSH0 DUP1 REVERT JUMPDEST POP PUSH1 0x40 MLOAD PUSH2 0x890 CODESIZE SUB DUP1 PUSH2 0x890 DUP4 CODECOPY DUP2 DUP2 ADD PUSH1 0x40 MSTORE DUP2 ADD SWAP1 PUSH2 0x31 SWAP2 SWAP1 PUSH2 0x11E JUMP JUMPDEST PUSH0 DUP3 GT DUP1 ISZERO PUSH2 0x3F JUMPI POP PUSH0 DUP2 GT JUMPDEST PUSH2 0x7E JUMPI PUSH1 0x40 MLOAD PUSH32 0x8C379A000000000000000000000000000000000000000000000000000000000 DUP2 MSTORE PUSH1 0x4 ADD PUSH2 0x75 SWAP1 PUSH2 0x1DC JUMP JUMPDEST PUSH1 0x40 MLOAD DUP1 SWAP2 SUB SWAP1 REVERT JUMPDEST DUP4 PUSH1 0x3 DUP2 SWAP1 SSTORE POP DUP3 PUSH1 0x4 DUP2 SWAP1 SSTORE POP DUP2 PUSH0 DUP2 SWAP1 SSTORE POP DUP1 PUSH1 0x1 DUP2 SWAP1 SSTORE POP DUP1 DUP3 PUSH2 0xA5 SWAP2 SWAP1 PUSH2 0x227 JUMP JUMPDEST PUSH1 0x2 DUP2 SWAP1 SSTORE POP POP POP POP POP PUSH2 0x268 JUMP JUMPDEST PUSH0 DUP1 REVERT JUMPDEST PUSH0 DUP2 SWAP1 POP SWAP2 SWAP1 POP JUMP JUMPDEST PUSH2 0xCA DUP2 PUSH2 0xB8 JUMP JUMPDEST DUP2 EQ PUSH2 0xD4 JUMPI PUSH0 DUP1 REVERT JUMPDEST POP JUMP JUMPDEST PUSH0 DUP2 MLOAD SWAP1 POP PUSH2 0xE5 DUP2 PUSH2 0xC1 JUMP JUMPDEST SWAP3 SWAP2 POP POP JUMP JUMPDEST PUSH0 DUP2 SWAP1 POP SWAP2 SWAP1 POP JUMP JUMPDEST PUSH2 0xFD DUP2 PUSH2 0xEB JUMP JUMPDEST DUP2 EQ PUSH2 0x107 JUMPI PUSH0 DUP1 REVERT JUMPDEST POP JUMP JUMPDEST PUSH0 DUP2 MLOAD SWAP1 POP PUSH2 0x118 DUP2 PUSH2 0xF4 JUMP JUMPDEST SWAP3 SWAP2 POP POP JUMP JUMPDEST PUSH0 DUP1 PUSH0 DUP1 PUSH1 0x80 DUP6 DUP8 SUB SLT ISZERO PUSH2 0x136 JUMPI PUSH2 0x135 PUSH2 0xB4 JUMP JUMPDEST JUMPDEST PUSH0 PUSH2 0x143 DUP8 DUP3 DUP9 ADD PUSH2 0xD7 JUMP JUMPDEST SWAP5 POP POP PUSH1 0x20 PUSH2 0x154 DUP8 DUP3 DUP9 ADD PUSH2 0xD7 JUMP JUMPDEST SWAP4 POP POP PUSH1 0x40 PUSH2 0x165 DUP8 DUP3 DUP9 ADD PUSH2 0x10A JUMP JUMPDEST SWAP3 POP POP PUSH1 0x60 PUSH2 0x176 DUP8 DUP3 DUP9 ADD PUSH2 0x10A JUMP JUMPDEST SWAP2 POP POP SWAP3 SWAP6 SWAP2 SWAP5 POP SWAP3 POP JUMP JUMPDEST PUSH0 DUP3 DUP3 MSTORE PUSH1 0x20 DUP3 ADD SWAP1 POP SWAP3 SWAP2 POP POP JUMP JUMPDEST PUSH32 0x696E76616C696420726573657276657300000000000000000000000000000000 PUSH0 DUP3 ADD MSTORE POP JUMP JUMPDEST PUSH0 PUSH2 0x1C6 PUSH1 0x10 DUP4 PUSH2 0x182 JUMP JUMPDEST SWAP2 POP PUSH2 0x1D1 DUP3 PUSH2 0x192 JUMP JUMPDEST PUSH1 0x20 DUP3 ADD SWAP1 POP SWAP2 SWAP1 POP JUMP JUMPDEST PUSH0 PUSH1 0x20 DUP3 ADD SWAP1 POP DUP2 DUP2 SUB PUSH0 DUP4 ADD MSTORE PUSH2 0x1F3 DUP2 PUSH2 0x1BA JUMP JUMPDEST SWAP1 POP SWAP2 SWAP1 POP JUMP JUMPDEST PUSH32 0x4E487B7100000000000000000000000000000000000000000000000000000000 PUSH0 MSTORE PUSH1 0x11 PUSH1 0x4 MSTORE PUSH1 0x24 PUSH0 REVERT JUMPDEST PUSH0 PUSH2 0x231 DUP3 PUSH2 0xEB JUMP JUMPDEST SWAP2 POP PUSH2 0x23C DUP4 PUSH2 0xEB JUMP JUMPDEST SWAP3 POP DUP3 DUP3 MUL PUSH2 0x24A DUP2 PUSH2 0xEB JUMP JUMPDEST SWAP2 POP DUP3 DUP3 DIV DUP5 EQ DUP4 ISZERO OR PUSH2 0x261 JUMPI PUSH2 0x260 PUSH2 0x1FA JUMP JUMPDEST JUMPDEST POP SWAP3 SWAP2 POP POP JUMP JUMPDEST PUSH2 0x61B DUP1 PUSH2 0x275 PUSH0 CODECOPY PUSH0 RETURN INVALID PUSH1 0x80 PUSH1 0x40 MSTORE CALLVALUE DUP1 ISZERO PUSH2 0xF JUMPI PUSH0 DUP1 REVERT JUMPDEST POP PUSH1 0x4 CALLDATASIZE LT PUSH2 0x86 JUMPI PUSH0 CALLDATALOAD PUSH1 0xE0 SHR DUP1 PUSH4 0x5F64B55B GT PUSH2 0x59 JUMPI DUP1 PUSH4 0x5F64B55B EQ PUSH2 0x115 JUMPI DUP1 PUSH4 0x60641E59 EQ PUSH2 0x133 JUMPI DUP1 PUSH4 0x98D5FDCA EQ PUSH2 0x151 JUMPI DUP1 PUSH4 0xDC5FA6C5 EQ PUSH2 0x16F JUMPI PUSH2 0x86 JUMP JUMPDEST DUP1 PUSH4 0x902F1AC EQ PUSH2 0x8A JUMPI DUP1 PUSH4 0xFC63D10 EQ PUSH2 0xA9 JUMPI DUP1 PUSH4 0x19E36F3B EQ PUSH2 0xC7 JUMPI DUP1 PUSH4 0x43DBF2A9 EQ PUSH2 0xE5 JUMPI JUMPDEST PUSH0 DUP1 REVERT JUMPDEST PUSH2 0x92 PUSH2 0x18D JUMP JUMPDEST PUSH1 0x40 MLOAD PUSH2 0xA0 SWAP3 SWAP2 SWAP1 PUSH2 0x30E JUMP JUMPDEST PUSH1 0x40 MLOAD DUP1 SWAP2 SUB SWAP1 RETURN JUMPDEST PUSH2 0xB1 PUSH2 0x19C JUMP JUMPDEST PUSH1 0x40 MLOAD PUSH2 0xBE SWAP2 SWAP1 PUSH2 0x34D JUMP JUMPDEST PUSH1 0x40 MLOAD DUP1 SWAP2 SUB SWAP1 RETURN JUMPDEST PUSH2 0xCF PUSH2 0x1A2 JUMP JUMPDEST PUSH1 0x40 MLOAD PUSH2 0xDC SWAP2 SWAP1 PUSH2 0x366 JUMP JUMPDEST PUSH1 0x40 MLOAD DUP1 SWAP2 SUB SWAP1 RETURN JUMPDEST PUSH2 0xFF PUSH1 0x4 DUP1 CALLDATASIZE SUB DUP2 ADD SWAP1 PUSH2 0xFA SWAP2 SWAP1 PUSH2 0x3D7 JUMP JUMPDEST PUSH2 0x1A8 JUMP JUMPDEST PUSH1 0x40 MLOAD PUSH2 0x10C SWAP2 SWAP1 PUSH2 0x366 JUMP JUMPDEST PUSH1 0x40 MLOAD DUP1 SWAP2 SUB SWAP1 RETURN JUMPDEST PUSH2 0x11D PUSH2 0x2D0 JUMP JUMPDEST PUSH1 0x40 MLOAD PUSH2 0x12A SWAP2 SWAP1 PUSH2 0x34D JUMP JUMPDEST PUSH1 0x40 MLOAD DUP1 SWAP2 SUB SWAP1 RETURN JUMPDEST PUSH2 0x13B PUSH2 0x2D6 JUMP JUMPDEST PUSH1 0x40 MLOAD PUSH2 0x148 SWAP2 SWAP1 PUSH2 0x366 JUMP JUMPDEST PUSH1 0x40 MLOAD DUP1 SWAP2 SUB SWAP1 RETURN JUMPDEST PUSH2 0x159 PUSH2 0x2DC JUMP JUMPDEST PUSH1 0x40 MLOAD PUSH2 0x166 SWAP2 SWAP1 PUSH2 0x366 JUMP JUMPDEST PUSH1 0x40 MLOAD DUP1 SWAP2 SUB SWAP1 RETURN JUMPDEST PUSH2 0x177 PUSH2 0x2F1 JUMP JUMPDEST PUSH1 0x40 MLOAD PUSH2 0x184 SWAP2 SWAP1 PUSH2 0x366 JUMP JUMPDEST PUSH1 0x40 MLOAD DUP1 SWAP2 SUB SWAP1 RETURN JUMPDEST PUSH0 DUP1 PUSH0 SLOAD PUSH1 0x1 SLOAD SWAP2 POP SWAP2 POP SWAP1 SWAP2 JUMP JUMPDEST PUSH1 0x3 SLOAD DUP2 JUMP JUMPDEST PUSH1 0x1 SLOAD DUP2 JUMP JUMPDEST PUSH0 DUP1 DUP4 GT PUSH2 0x1EB JUMPI PUSH1 0x40 MLOAD PUSH32 0x8C379A000000000000000000000000000000000000000000000000000000000 DUP2 MSTORE PUSH1 0x4 ADD PUSH2 0x1E2 SWAP1 PUSH2 0x46F JUMP JUMPDEST PUSH1 0x40 MLOAD DUP1 SWAP2 SUB SWAP1 REVERT JUMPDEST PUSH1 0x3 SLOAD DUP3 EQ DUP1 PUSH2 0x1FC JUMPI POP PUSH1 0x4 SLOAD DUP3 EQ JUMPDEST PUSH2 0x23B JUMPI PUSH1 0x40 MLOAD PUSH32 0x8C379A000000000000000000000000000000000000000000000000000000000 DUP2 MSTORE PUSH1 0x4 ADD PUSH2 0x232 SWAP1 PUSH2 0x4D7 JUMP JUMPDEST PUSH1 0x40 MLOAD DUP1 SWAP2 SUB SWAP1 REVERT JUMPDEST PUSH1 0x3 SLOAD DUP3 SUB PUSH2 0x289 JUMPI PUSH0 DUP4 PUSH0 SLOAD PUSH2 0x252 SWAP2 SWAP1 PUSH2 0x522 JUMP JUMPDEST SWAP1 POP PUSH0 DUP2 PUSH1 0x2 SLOAD PUSH2 0x263 SWAP2 SWAP1 PUSH2 0x582 JUMP JUMPDEST SWAP1 POP DUP1 PUSH1 0x1 SLOAD PUSH2 0x273 SWAP2 SWAP1 PUSH2 0x5B2 JUMP JUMPDEST SWAP3 POP DUP2 PUSH0 DUP2 SWAP1 SSTORE POP DUP1 PUSH1 0x1 DUP2 SWAP1 SSTORE POP POP POP PUSH2 0x2CA JUMP JUMPDEST PUSH0 DUP4 PUSH1 0x1 SLOAD PUSH2 0x298 SWAP2 SWAP1 PUSH2 0x522 JUMP JUMPDEST SWAP1 POP PUSH0 DUP2 PUSH1 0x2 SLOAD PUSH2 0x2A9 SWAP2 SWAP1 PUSH2 0x582 JUMP JUMPDEST SWAP1 POP DUP1 PUSH0 SLOAD PUSH2 0x2B8 SWAP2 SWAP1 PUSH2 0x5B2 JUMP JUMPDEST SWAP3 POP DUP1 PUSH0 DUP2 SWAP1 SSTORE POP DUP2 PUSH1 0x1 DUP2 SWAP1 SSTORE POP POP POP JUMPDEST SWAP3 SWAP2 POP POP JUMP JUMPDEST PUSH1 0x4 SLOAD DUP2 JUMP JUMPDEST PUSH1 0x2 SLOAD DUP2 JUMP JUMPDEST PUSH0 PUSH1 0x1 SLOAD PUSH0 SLOAD PUSH2 0x2EC SWAP2 SWAP1 PUSH2 0x582 JUMP JUMPDEST SWAP1 POP SWAP1 JUMP JUMPDEST PUSH0 SLOAD DUP2 JUMP JUMPDEST PUSH0 DUP2 SWAP1 POP SWAP2 SWAP1 POP JUMP JUMPDEST PUSH2 0x308 DUP2 PUSH2 0x2F6 JUMP JUMPDEST DUP3 MSTORE POP POP JUMP JUMPDEST PUSH0 PUSH1 0x40 DUP3 ADD SWAP1 POP PUSH2 0x321 PUSH0 DUP4 ADD DUP6 PUSH2 0x2FF JUMP JUMPDEST PUSH2 0x32E PUSH1 0x20 DUP4 ADD DUP5 PUSH2 0x2FF JUMP JUMPDEST SWAP4 SWAP3 POP POP POP JUMP JUMPDEST PUSH0 DUP2 SWAP1 POP SWAP2 SWAP1 POP JUMP JUMPDEST PUSH2 0x347 DUP2 PUSH2 0x335 JUMP JUMPDEST DUP3 MSTORE POP POP JUMP JUMPDEST PUSH0 PUSH1 0x20 DUP3 ADD SWAP1 POP PUSH2 0x360 PUSH0 DUP4 ADD DUP5 PUSH2 0x33E JUMP JUMPDEST SWAP3 SWAP2 POP POP JUMP JUMPDEST PUSH0 PUSH1 0x20 DUP3 ADD SWAP1 POP PUSH2 0x379 PUSH0 DUP4 ADD DUP5 PUSH2 0x2FF JUMP JUMPDEST SWAP3 SWAP2 POP POP JUMP JUMPDEST PUSH0 DUP1 REVERT JUMPDEST PUSH2 0x38C DUP2 PUSH2 0x2F6 JUMP JUMPDEST DUP2 EQ PUSH2 0x396 JUMPI PUSH0 DUP1 REVERT JUMPDEST POP JUMP JUMPDEST PUSH0 DUP2 CALLDATALOAD SWAP1 POP PUSH2 0x3A7 DUP2 PUSH2 0x383 JUMP JUMPDEST SWAP3 SWAP2 POP POP JUMP JUMPDEST PUSH2 0x3B6 DUP2 PUSH2 0x335 JUMP JUMPDEST DUP2 EQ PUSH2 0x3C0 JUMPI PUSH0 DUP1 REVERT JUMPDEST POP JUMP JUMPDEST PUSH0 DUP2 CALLDATALOAD SWAP1 POP PUSH2 0x3D1 DUP2 PUSH2 0x3AD JUMP JUMPDEST SWAP3 SWAP2 POP POP JUMP JUMPDEST PUSH0 DUP1 PUSH1 0x40 DUP4 DUP6 SUB SLT ISZERO PUSH2 0x3ED JUMPI PUSH2 0x3EC PUSH2 0x37F JUMP JUMPDEST JUMPDEST PUSH0 PUSH2 0x3FA DUP6 DUP3 DUP7 ADD PUSH2 0x399 JUMP JUMPDEST SWAP3 POP POP PUSH1 0x20 PUSH2 0x40B DUP6 DUP3 DUP7 ADD PUSH2 0x3C3 JUMP JUMPDEST SWAP2 POP POP SWAP3 POP SWAP3 SWAP1 POP JUMP JUMPDEST PUSH0 DUP3 DUP3 MSTORE PUSH1 0x20 DUP3 ADD SWAP1 POP SWAP3 SWAP2 POP POP JUMP JUMPDEST PUSH32 0x416D6F756E74206D7573742062652067726561746572207468616E2030000000 PUSH0 DUP3 ADD MSTORE POP JUMP JUMPDEST PUSH0 PUSH2 0x459 PUSH1 0x1D DUP4 PUSH2 0x415 JUMP JUMPDEST SWAP2 POP PUSH2 0x464 DUP3 PUSH2 0x425 JUMP JUMPDEST PUSH1 0x20 DUP3 ADD SWAP1 POP SWAP2 SWAP1 POP JUMP JUMPDEST PUSH0 PUSH1 0x20 DUP3 ADD SWAP1 POP DUP2 DUP2 SUB PUSH0 DUP4 ADD MSTORE PUSH2 0x486 DUP2 PUSH2 0x44D JUMP JUMPDEST SWAP1 POP SWAP2 SWAP1 POP JUMP JUMPDEST PUSH32 0x496E76616C696420746F6B656E00000000000000000000000000000000000000 PUSH0 DUP3 ADD MSTORE POP JUMP JUMPDEST PUSH0 PUSH2 0x4C1 PUSH1 0xD DUP4 PUSH2 0x415 JUMP JUMPDEST SWAP2 POP PUSH2 0x4CC DUP3 PUSH2 0x48D JUMP JUMPDEST PUSH1 0x20 DUP3 ADD SWAP1 POP SWAP2 SWAP1 POP JUMP JUMPDEST PUSH0 PUSH1 0x20 DUP3 ADD SWAP1 POP DUP2 DUP2 SUB PUSH0 DUP4 ADD MSTORE PUSH2 0x4EE DUP2 PUSH2 0x4B5 JUMP JUMPDEST SWAP1 POP SWAP2 SWAP1 POP JUMP JUMPDEST PUSH32 0x4E487B7100000000000000000000000000000000000000000000000000000000 PUSH0 MSTORE PUSH1 0x11 PUSH1 0x4 MSTORE PUSH1 0x24 PUSH0 REVERT JUMPDEST PUSH0 PUSH2 0x52C DUP3 PUSH2 0x2F6 JUMP JUMPDEST SWAP2 POP PUSH2 0x537 DUP4 PUSH2 0x2F6 JUMP JUMPDEST SWAP3 POP DUP3 DUP3 ADD SWAP1 POP DUP1 DUP3 GT ISZERO PUSH2 0x54F JUMPI PUSH2 0x54E PUSH2 0x4F5 JUMP JUMPDEST JUMPDEST SWAP3 SWAP2 POP POP JUMP JUMPDEST PUSH32 0x4E487B7100000000000000000000000000000000000000000000000000000000 PUSH0 MSTORE PUSH1 0x12 PUSH1 0x4 MSTORE PUSH1 0x24 PUSH0 REVERT JUMPDEST PUSH0 PUSH2 0x58C DUP3 PUSH2 0x2F6 JUMP JUMPDEST SWAP2 POP PUSH2 0x597 DUP4 PUSH2 0x2F6 JUMP JUMPDEST SWAP3 POP DUP3 PUSH2 0x5A7 JUMPI PUSH2 0x5A6 PUSH2 0x555 JUMP JUMPDEST JUMPDEST DUP3 DUP3 DIV SWAP1 POP SWAP3 SWAP2 POP POP JUMP JUMPDEST PUSH0 PUSH2 0x5BC DUP3 PUSH2 0x2F6 JUMP JUMPDEST SWAP2 POP PUSH2 0x5C7 DUP4 PUSH2 0x2F6 JUMP JUMPDEST SWAP3 POP DUP3 DUP3 SUB SWAP1 POP DUP2 DUP2 GT ISZERO PUSH2 0x5DF JUMPI PUSH2 0x5DE PUSH2 0x4F5 JUMP JUMPDEST JUMPDEST SWAP3 SWAP2 POP POP JUMP INVALID LOG2 PUSH5 0x6970667358 0x22 SLT KECCAK256 CALLDATASIZE PUSH16 0x48AA768C8AA9E69E86EFC3F4D7F29548 LOG1 0xB7 0xF6 0xC6 0x4F 0xD PUSH31 0x36A5824353193D64736F6C634300081A003300000000000000000000000000 "
		},
		"gasEstimates": {
			"creation": {
				"codeDepositCost": "312600",
				"executionCost": "infinite",
				"totalCost": "infinite"
			},
			"external": {
				"constantProduct()": "2447",
				"getPrice()": "infinite",
				"getReserves()": "infinite",
				"reserveA()": "2490",
				"reserveB()": "2470",
				"swap(uint256,bytes32)": "infinite",
				"tokenA()": "2448",
				"tokenB()": "2425"
			}
		},
		"methodIdentifiers": {
			"constantProduct()": "60641e59",
			"getPrice()": "98d5fdca",
			"getReserves()": "0902f1ac",
			"reserveA()": "dc5fa6c5",
			"reserveB()": "19e36f3b",
			"swap(uint256,bytes32)": "43dbf2a9",
			"tokenA()": "0fc63d10",
			"tokenB()": "5f64b55b"
		}
	},
	"abi": [
		{
			"inputs": [
				{
					"internalType": "bytes32",
					"name": "_tokenA",
					"type": "bytes32"
				},
				{
					"internalType": "bytes32",
					"name": "_tokenB",
					"type": "bytes32"
				},
				{
					"internalType": "uint256",
					"name": "_reserveA",
					"type": "uint256"
				},
				{
					"internalType": "uint256",
					"name": "_reserveB",
					"type": "uint256"
				}
			],
			"stateMutability": "nonpayable",
			"type": "constructor"
		},
		{
			"anonymous": false,
			"inputs": [
				{
					"indexed": true,
					"internalType": "address",
					"name": "user",
					"type": "address"
				},
				{
					"indexed": false,
					"internalType": "string",
					"name": "inputToken",
					"type": "string"
				},
				{
					"indexed": false,
					"internalType": "uint256",
					"name": "amountIn",
					"type": "uint256"
				},
				{
					"indexed": false,
					"internalType": "uint256",
					"name": "amountOut",
					"type": "uint256"
				}
			],
			"name": "Swap",
			"type": "event"
		},
		{
			"inputs": [],
			"name": "constantProduct",
			"outputs": [
				{
					"internalType": "uint256",
					"name": "",
					"type": "uint256"
				}
			],
			"stateMutability": "view",
			"type": "function"
		},
		{
			"inputs": [],
			"name": "getPrice",
			"outputs": [
				{
					"internalType": "uint256",
					"name": "",
					"type": "uint256"
				}
			],
			"stateMutability": "view",
			"type": "function"
		},
		{
			"inputs": [],
			"name": "getReserves",
			"outputs": [
				{
					"internalType": "uint256",
					"name": "",
					"type": "uint256"
				},
				{
					"internalType": "uint256",
					"name": "",
					"type": "uint256"
				}
			],
			"stateMutability": "view",
			"type": "function"
		},
		{
			"inputs": [],
			"name": "reserveA",
			"outputs": [
				{
					"internalType": "uint256",
					"name": "",
					"type": "uint256"
				}
			],
			"stateMutability": "view",
			"type": "function"
		},
		{
			"inputs": [],
			"name": "reserveB",
			"outputs": [
				{
					"internalType": "uint256",
					"name": "",
					"type": "uint256"
				}
			],
			"stateMutability": "view",
			"type": "function"
		},
		{
			"inputs": [
				{
					"internalType": "uint256",
					"name": "amountIn",
					"type": "uint256"
				},
				{
					"internalType": "bytes32",
					"name": "inputToken",
					"type": "bytes32"
				}
			],
			"name": "swap",
			"outputs": [
				{
					"internalType": "uint256",
					"name": "amountOut",
					"type": "uint256"
				}
			],
			"stateMutability": "nonpayable",
			"type": "function"
		},
		{
			"inputs": [],
			"name": "tokenA",
			"outputs": [
				{
					"internalType": "bytes32",
					"name": "",
					"type": "bytes32"
				}
			],
			"stateMutability": "view",
			"type": "function"
		},
		{
			"inputs": [],
			"name": "tokenB",
			"outputs": [
				{
					"internalType": "bytes32",
					"name": "",
					"type": "bytes32"
				}
			],
			"stateMutability": "view",
			"type": "function"
		}
	]
}